:020000021000EC
:1020000010780020FDA80200F5A90200F5A9020041
:1020100000000000000000000000000000000000C0
:102020000000000000000000000000004D9E0100C4
:102030000000000000000000719F0100B99F010036
:10204000F5A90200F5A90200F5A902004D6A0200F7
:10205000795F0200F5A9020061240100F5A90200E0
:10206000A5250100F1700200097102002171020032
:1020700039710200517102006971020045A8020025
:1020800059A802006DA80200897A01009D7A01001A
:10209000B17A01000000000000000000E922010008
:1020A000F5A9020025240100F5A90200F5A9020006
:1020B0000000000010B5064C2378002B07D1054B1B
:1020C000002B02D0044800E000BF0123237010BDA4
:1020D000B002002000000000709B0300084B10B508
:1020E000002B03D00749084800E000BF07480368F9
:1020F000002B00D110BD064B002BFBD09847F9E711
:1021000000000000B4020020709B0300709B0300DD
:102110000000000080B584B000AF78607B681B6869
:10212000FB60FB685B7EDBB25BB2002B01DA012354
:1021300000E000231800BD4604B080BD80B584B027
:1021400000AF78607B681B68FB60C0467B68180046
:102150000B4B9847031EF9D1FB681B7BDBB20222B5
:102160001343DAB2FB681A73C0467B681800044B4D
:102170009847031EF9D1C046BD4604B080BDC04695
:102180001521010080B584B000AF78600A00FB1C07
:102190001A707B681B68FB60FB68FA1C12789A75E2
:1021A000C046BD4604B080BD80B584B000AF02001B
:1021B000FB1D1A70FB1D1A78474B9200D358FB6029
:1021C000FB681B681B7EDAB2FB681B68DB7DDBB239
:1021D0001340DBB2BB60BB680122134045D0FB68F3
:1021E0001B6801221A76C046FB6818003B4B9847D3
:1021F000031EF9D1FB685B69991CFA685161FA68A2
:102200001268528B92B21A80FB681B8B9BB2013B07
:102210009BB2FA68191C1183002B08D0FB685B7F06
:10222000002B22D0FB6818002D4B98471DE0FB685F
:10223000012118002B4B9847FB681B7FDBB2052B55
:1022400013D1FB6800221A77FB68DB7E1A0001239A
:1022500013400AD0FB689B7E1A000123134004D070
:10226000FB689B68FA6810009847BB68042213401B
:1022700014D0FB681B6804221A76FB68DB7E1A0008
:10228000022313400AD0FB689B7E1A0002231340EE
:1022900004D0FB68DB68FA6810009847BB6802222C
:1022A000134014D0FB681B6802221A76FB68DB7EA1
:1022B0001A00042313400AD0FB689B7E1A000423F3
:1022C000134004D0FB681B69FA6810009847C046A9
:1022D000BD4604B080BDC046184300201521010052
:1022E0003D2101008521010080B500AF0020024B97
:1022F0009847C046BD4680BDA921010080B582B087
:1023000000AF0200FB1D1A70074AFB1D1B78190065
:102310001F230B40012199400B0019008023D1504D
:10232000C046BD4602B080BD00E100E080B584B08B
:1023300000AF0200FB1D1A70FB1D1A78374B92008C
:10234000D358FB60FB681B68BB60BB689B79DBB242
:102350001A00012313400ED0BB6801229A71FB685A
:102360001433002B07D0FB685B7C002B03D0FB6889
:102370009B6900209847BB689B79DBB21A00022357
:10238000134047D0BB6802229A71FB689B899BB2BD
:10239000002B33D0FB689A68FB68DB899BB2591C21
:1023A00088B2F968C8815B00D3181B889AB2BB68F1
:1023B0009A81FB689B899BB2013B9AB2FB689A8128
:1023C000FB689B899BB2002B18D1FB68202200215F
:1023D0009954BB6802221A71BB6802229A711920B3
:1023E0000F4B9847FB681433002B07D0FB689B7C8E
:1023F000002B03D0FB68DB6900209847FB6814338F
:10240000002B07D0FB681B7C002B03D0FB685B69AB
:1024100000209847C046BD4604B080BD1C43002044
:10242000FD22010080B500AF0020024B9847C04656
:10243000BD4680BD2D23010080B500AF024B9847FB
:10244000C046BD4680BDC046D95B020080B500AF26
:10245000024B9847C046BD4680BDC0462D5C020079
:1024600080B586B000AF494B9847494B1B8C9BB257
:10247000DAB21723FB180F210A401A701723FB1832
:102480001A78444B9200D3583B61414A3B691B7810
:102490000F210B40D9B23F23D1543D490F23FB18E4
:1024A0004E228A5C1A703B691B783B4A1B01D31889
:1024B00002331B889BB2BB603B691B78374A1B0108
:1024C000D31802331B889BB27B60BA687B68D21A30
:1024D0003B695A610F23FB181B780122134016D069
:1024E0002B4A4E230121D1543B6910225A743B6977
:1024F0001B7C1A000123134042D03B695B68002B10
:102500003ED03B695B683A691000984738E00F237A
:10251000FB181B780222134016D01D4A4E230221BD
:10252000D1543B6900225A743B691B7C1A00022378
:10253000134025D03B699B68002B21D03B699B68E9
:102540003A69100098471BE00F23FB181B78042200
:10255000134015D00E4A4E230421D1543B69062264
:102560005A743B691B7C1A000423134008D03B6952
:10257000DB68002B04D03B69DB683A6910009847A0
:10258000074B9847C046BD4606B080BD39240100C0
:10259000004800412003002020430020D0020020FA
:1025A0004D24010080B582B000AF154B1B697B60E4
:1025B000144B9B693B60124B9A683B681A43104B63
:1025C0009A60104B104A9A6108E07B685A687B68F1
:1025D0001B68180090477B689B687B607B68002BBA
:1025E000F3D1074BDB683B60054B9B683A68D243ED
:1025F0001A40034B9A60C046BD4602B080BDC0463B
:102600000000002000040042FFFF0F0F80B582B0E1
:1026100000AF02003960FB1D1A70FB1D1B78012BF7
:102620000AD0022B0FD0002B14D10E4B0D4A91690A
:102630003A680A439A610FE00A4B0A4AD1693A683C
:102640000A43DA6108E0074B064A116A3A680A430E
:102650001A6201E0172300E000231800BD4602B013
:1026600080BDC0460004004080B500AF02210220BA
:10267000074B9847074B01221A70C046054B1B7841
:10268000DBB21A0001231340F8D1C046BD4680BD1D
:102690000D2601000004004280B584B000AF7860D0
:1026A0007B681B68FB60FB68DB69072213405A1ECE
:1026B0009341DBB21800BD4604B080BD80B582B046
:1026C00000AF7860C0467B681800044B9847031E33
:1026D000F9D1C046BD4602B080BDC0469926010072
:1026E00080B584B000AF78607B681B68FB60FB68D6
:1026F0001B681B01DB0FDBB21A000B23FB18511EFA
:102700008A411A700823FB187A68528B1A807B68FA
:102710009B8B9AB20823FB180821791809888A1A1A
:102720001A807B689B8B9BB2013B9AB27B689A8331
:102730000B23FB181B78002B10D07B68DB7A002B57
:102740001CD07B689B8B9BB2012B17D1FB685B680D
:102750008022D2021A43FB685A600FE07B68DB7A62
:10276000002B0BD07B689B8B9BB2002B06D1FB68A8
:102770005B688022D2021A43FB685A607B689B8B9D
:102780009BB2002B0ED17B689B7A002B0AD07B6812
:1027900018000E4B9847FB685B68C02292021A43F0
:1027A000FB685A607B681800084B98477B681A6A78
:1027B0000823FB181B88D318FA682821525CD2B270
:1027C0001A70C046BD4604B080BDC046BD2601009B
:1027D00080B584B000AF78607B681B68FB60FB68E5
:1027E0005B8B9BB21A000423134004D07B68252224
:1027F0001E21995424E00A23FB187A68528B1A8010
:102800007B689B8B9AB20A23FB180A2179180988E6
:102810008A1A1A807B689B8B9BB2013B9AB27B68B9
:102820009A837B681800084B98477B681A6A0A23CA
:10283000FB181B88D3181B78D9B2FB68282299543F
:10284000BD4604B080BDC046BD26010080B584B041
:1028500000AF78607B681B68FB60FB681B7EDBB2A7
:102860001A00012313402BD0FB6801221A76FB6863
:102870005B8B9BB21A000223134004D07B68252295
:10288000412199541CE0FB685B8B9BB21A00042326
:10289000134015D07B682522182199547B680022AB
:1028A0009A837B689B7A002B0AD07B681800134BB5
:1028B0009847FB685B68C02292021A43FB685A6023
:1028C0007B689B8B9AB27B685A837B6825229B5CD2
:1028D000DBB2052B0ED17B6824229B5CDBB2002B84
:1028E00004D17B681800064B984703E07B6818000A
:1028F000044B9847C046BD4604B080BDBD260100CC
:10290000D1270100E126010080B584B000AFF86056
:10291000B960FB1D1A70FB1D1B78FA6802339B001F
:10292000D3180433BA681A60FB681B7EDBB25AB254
:10293000FB1D1B78012199400B005BB213435BB276
:10294000DAB2FB681A76C046BD4604B080BD00000E
:1029500090B587B000AF786039607B681B683B61D9
:102960003B685A687B681A623B685A887B689A831E
:102970007B682422012199547B68252205219954E2
:102980003B691B681B01DB0FDBB21A000F23FB182E
:10299000511E8A411A703B685B7A002B06D03B6857
:1029A0009A7A7B68110018003B4B98470F23FB185D
:1029B0001B78002B0BD03B685B88012B07D13B6950
:1029C0005B688022D2021A433B695A6005E03B698A
:1029D0005B68324A1A403B695A603B681B7A002B9D
:1029E00045D03B681B885A003B685B7A9B031343C6
:1029F0001A0080231B021A433B695A621723FC18F2
:102A00007B681800264B9847030023703B695B687E
:102A1000224A1A403B695A601723FB181B78002B87
:102A200007D11723FC187B6818001E4B984703003A
:102A300023701723FB181B78002B14D13B6903224A
:102A40009A753B681B881B0A9BB2782213439BB282
:102A50005A003B685B7A9B031343012213431A001D
:102A60003B695A6212E01723FB181B780FE03B69A1
:102A700003229A753B681B885B0001221A433B685E
:102A80005B7A9B0313431A003B695A6200231800C8
:102A9000BD4607B090BDC046357A0100FFFFFBFF81
:102AA000D77901007979010080B582B000AF7860F4
:102AB00039607B689B8B9BB2002B01D005230CE017
:102AC0007B6801229A727B680122DA723A687B681D
:102AD00011001800034B984703001800BD4602B0D0
:102AE00080BDC0465129010080B584B000AF786038
:102AF00039607B681B68FB603B685B7A002B06D003
:102B00003B689A7A7B68110018001E4B9847FB6857
:102B10005B681D4A1A40FB685A603B685A687B68CC
:102B20001A623B685A887B689A837B68242200215A
:102B300099547B68252205219954FB6803229A75D4
:102B40003B681B7A002B0DD03B681B885A003B6802
:102B50005B7A9B0313431A0080231B021A43FB6812
:102B60005A6209E03B681B885A003B685B7A9B030A
:102B700013431A00FB685A6200231800BD4604B0D4
:102B800080BDC046357A0100FFFFFBFF80B582B0F3
:102B900000AF786039607B689B8B9BB2002B01D0C3
:102BA00005230CE07B6801229A727B680122DA72AD
:102BB0003A687B6811001800034B9847030018001F
:102BC000BD4602B080BDC046E92A010080B586B08E
:102BD00000AF0200FB1D1A70FB1D1A78934B920088
:102BE000D3587B617B691B683B613B691B681B0198
:102BF000DB0FDBB21A000F23FB18511E8A411A703B
:102C00000E23FB187A69527E1A707B691B7EDAB23A
:102C10000E23FB180E21791809780A401A707B6977
:102C20005B8B9BB2002B09D17B699B8B9BB2002BEA
:102C300004D07B6918007E4B984770E07B695B8B02
:102C40009BB2002B39D07B699B8B9BB2002B34D17C
:102C50007B6925229B5CDBB2052B2ED17B6924226C
:102C60009B5CDBB2002B28D13B6903221A757B6980
:102C700000225A837B692522002199547B699B7A23
:102C8000002B0BD07B6918006A4B98473B695B6847
:102C9000C02292021A433B695A6002E03B6901225A
:102CA0001A760E23FB181B780122134037D07B695C
:102CB000DB687A691000984731E07B695B8B9BB2D7
:102CC000002B2CD07B699B8B9BB2002B27D03B69C0
:102CD0005B8B9BB21A002023134011D10F23FB18EA
:102CE0001B7801225340DBB2002B04D17B699B8B04
:102CF0009BB2012B04D07B692522412199540EE01F
:102D00007B6924229B5CDBB2002B04D17B69180019
:102D1000494B984703E07B691800484B98477B690B
:102D20005B8B9BB2002B47D07B699B8B9BB2002BAC
:102D300042D17B6925229B5CDBB2052B3CD17B69B0
:102D400024229B5CDBB2012B36D13B691B7EDBB2BC
:102D50001A000223134002D03B6902221A763B6913
:102D600003221A757B6900225A837B692522002180
:102D700099540E23FB181B78022213400BD07B6959
:102D800024229B5CDBB2012B05D17B691B697A692C
:102D90001000984710E00E23FB181B780122134007
:102DA0000AD07B6924229B5CDBB2002B04D17B69B7
:102DB000DB687A69100098477B6925229B5CDBB24F
:102DC000052B2ED07B6925229B5CDBB2002B28D003
:102DD0003B6903221A757B6900225A837B690022B2
:102DE0009A837B6925229B5CDBB2412B0ED07B69E9
:102DF0009B7A002B0AD07B6918000E4B98473B69E1
:102E00005B68E022D2021A433B695A600E23FB182A
:102E10001B780422134004D07B695B697A69100037
:102E20009847C046BD4606B080BDC04684570020C6
:102E30004D280100BD260100D1270100E126010037
:102E400080B500AFBFF34F8F024B034ADA60BFF388
:102E50004F8FFEE700ED00E00400FA0580B500AFFB
:102E6000024B9847C046BD4680BDC046412E01007A
:102E700080B586B000AF78609C4B18009C4B98479B
:102E80009C4B18009A4B98479B4B1800984B9847BF
:102E90009A4B1800964B9847994B1800944B9847BB
:102EA000984B1800924B9847974B1800904B9847B7
:102EB000964B18008E4B98471723FB1800221A7068
:102EC000934B1800934B9847032200210120924B0B
:102ED00098470200914B1A60904B1B68002B07D15A
:102EE0008F4B190003208F4B984700208E4B98473B
:102EF0000C23FB1818008D4B98470C23FB181B78EC
:102F00000A2B04D00C23FB181B780D2B37D1884BD0
:102F10001800804B9847874B00221A70864B00227E
:102F20001A708649864B31221800864B9847844B8D
:102F30003122002199548449804B64221800834B2C
:102F4000984703003B61804B6322002199547E4BDC
:102F50001800704B98473B69002BECD11723FB18E6
:102F600000221A70754B322200211800784B9847C6
:102F7000754B642200211800754B9847B5E06D4BE6
:102F80001B78002B59D06C4B1B78032B0CD86A4B49
:102F90001B785A1CD1B2684A11701A000C23FB1816
:102FA00019786C4B995405E0624B00221A70624B01
:102FB00000221A70604B1B78012B99D9664A654B29
:102FC00011001800654B9847031E2FD064495B4BD6
:102FD0001B221800634B9847584B18004D4B9847DD
:102FE0001723FB1800221A70544B322200211800BC
:102FF000574B98475249514B31221800514B984733
:103000004E4B1800584B98470300302B06D84C4BBA
:103010001800554B98470300DAB200E0312217231D
:10302000FB181A70454B18003A4B9847414B002249
:103030001A70414B00221A705AE70C23FB181B78B8
:103040000D2B00D154E70C23FB181B78082B04D060
:103050000C23FB181B787F2B1CD10823FB18434A39
:1030600012681A600823FB1818002A4B9847172388
:10307000FB181B78002B37D01723FB181A7817235F
:10308000FB18013A1A701723FB181B782B4A0021F2
:10309000D15429E00C23FB181B781B2B06D1254BA0
:1030A00001221A70244B00221A7021E71723FB1803
:1030B0001B78312B0ED81723FB181B780C22BA185B
:1030C00011781E4AD1541723FB181A781723FB18BE
:1030D00001321A700C23FB1800225A700C23FB18C3
:1030E00018000C4B984703E7C04601E7045B030058
:1030F0007D7B0100F45A0300445B0300645B030022
:10310000145B0300245B0300345B0300545B030087
:103110004C57030055DB0100F5A10100704300206E
:103120002059030041DC0100E1BF010071310100C1
:103130004059030044030020450300207C03002085
:103140004803002057470300B0030020ED7B010037
:103150008B43030014040020445903008D460300F0
:10316000485903004946030027470300505903000C
:1031700080B584B000AF78607B6818000C4B98472E
:103180000300FB600DE00B4B1A6801235B42190042
:103190001000094B98477B681800054B98470300BF
:1031A000FB60FB680133EED0C046BD4604B080BD75
:1031B000F1DB010070430020ADB1010080B500AF2C
:1031C0000A4B00221A600A4B1B68084A11001800BB
:1031D000084B9847054B1B68002B03D0064B8022F9
:1031E00052051A60C046BD4680BDC0461804002086
:1031F0007043002025AB010004ED00E0B0B58AB0BB
:1032000002AFF860B9607A60444B98470300FB61F5
:103210001B23FA18FB6911001800414B98471B2328
:10322000FB181B78002B5FD03E4B062200211800B4
:103230003D4B98473B4AFB69110018003B4B9847B0
:10324000384B00229B5E1800394B9847021C394BC3
:103250001A60344B02229B5E1800354B9847021CC3
:10326000344B5A602F4B04229B5E1800304B98471A
:10327000021C304B9A602F4B1A682F4B101C98473A
:1032800005002C4B5A682C4B101C98470400294B06
:103290009A68294B101C98470300284AB968F868B7
:1032A000019300942B00264CA047224B1A68224B16
:1032B000101C984703001AB21423FB181A801D4BE8
:1032C0005A681D4B101C984703001AB21423FB18B0
:1032D0005A80184B9A68184B101C984703001AB272
:1032E0001423FB189A8014E0164AB968FB6818008A
:1032F000134B98471423FB18012252421A801423BF
:10330000FB18022252425A801423FB180322524215
:103310009A8000231800BD4608B0B0BD854F01005B
:10332000814901001C0400208B430300BD490100BA
:1033300011420100240400203129030054590300E4
:10334000E54503007859030090B587B002AFF860F7
:10335000B9607A60124B1800124B984703001A00AC
:1033600001235340DBB2002B07D00F4AB968FB683A
:1033700018000E4B984700230EE0094B00229B5E7D
:103380001C00074B02229B5E094AB968F86800934B
:103390002300064CA04700231800BD4605B090BD91
:1033A0003004002001560100A0590300E545030048
:1033B000B059030090B587B000AFF860B9607A608B
:1033C0001723FB181B221A701723FB181B78084AB7
:1033D00008480F21084CA047064AB968FB68180046
:1033E000054B984700231800BD4607B090BDC04666
:1033F000D059030034030020E545030080B584B0B4
:1034000000AFF860B9607A600220034B9847002350
:103410001800BD4604B080BDE571010080B584B0E0
:1034200000AFF860B9607A60034B9847002318003A
:10343000BD4604B080BDC0465D2E010090B591B080
:1034400000AFF860B9607A601C23FA187B6801212C
:103450001800554B98470300FB631823FA187B6844
:1034600002211800504B98470300BB631423FA183D
:103470007B68032118004C4B984703007B631023A3
:10348000FA187B6804211800474B984703003B63F8
:10349000FB691A00FB6B9B1800221A70BB691A00AB
:1034A000BB6B9B1800221A707B691A007B6B9B1800
:1034B00000221A703B691A003B6B9B1800221A709D
:1034C000FB6B1800394B98470300FB62BB6B18007D
:1034D000364B98470300BB627B6B1800334B984711
:1034E00003007B623B6B1800304B984703003B6244
:1034F000FB6A002B02DBFB6A0F2B07DD2C4AB96845
:10350000FB6818002B4B9847002348E0BB6A002B50
:1035100002DBBB6AFF2B07DD274AB968FB6818008E
:10352000244B984700233AE07B6A002B02DB7B6A3E
:10353000FF2B07DD214AB968FB6818001D4B98472F
:1035400000232CE03B6A002B02DB3B6AFF2B07DDEC
:103550001B4AB968FB681800164B984700231EE009
:10356000FB6AD8B2BB6AD9B27B6ADAB23B6ADBB219
:10357000144CA047031E07D0134AB968FB68180013
:103580000C4B984700230AE0104B9847031E05D0C8
:103590000D4AB968FB681800064B984700231800CD
:1035A000BD4611B090BDC046157D0100D942030053
:1035B000D8590300E5450300FC5903001C5A0300D9
:1035C000405A030039530100645A030001540100BA
:1035D00090B599B000AFF860B9607A605F23FC18CD
:1035E000364B9847030023705F23FB181B78002B92
:1035F0005DD01023FB1801211800314B98470300C0
:10360000BB65BB6D002B50D11023FB181A785723D4
:10361000FB1803210A401A701023FB181A7856234E
:10362000FB1892081A705623FB181B78DB08DBB2D4
:103630009A005623FB181B7807210B40D3183B65D3
:103640005723FB181B78022B15D13B6D002B00DA9A
:103650000733DB109A003B6D1A490B4004D5013B40
:10366000082149420B430133D318174AB968F86857
:10367000164CA04719E05723FB181B78032B14D1D5
:103680003B6D002B00DA0733DB109A003B6D0D49D0
:103690000B4004D5013B082149420B430133D318A9
:1036A0000B4AB968F868094CA047012302E00023DF
:1036B000FB6000231800BD4619B090BD8551010084
:1036C000ED510100070000807C5A0300E54503002E
:1036D000985A030090B58FB000AFF860B9607A6077
:1036E0001823FB1800221A701823FB1800225A70A6
:1036F0001823FB1800221A701823FB1800225A7096
:103700001C23FB1800221A701C23FB181422BA1861
:103710009A601C23FB180122DA811C23FB18182253
:10372000BA185A601C23FB1801229A812A4B1800F0
:103730002A4B984700237B6342E07B6B284A294849
:103740000F21294CA047274B1800244B98470023F2
:103750003B632BE07B6BDAB23B6BDBB2D318DAB2A4
:103760001C23FB181A701C23FB1864226421180008
:103770001E4B98470300FB62FB6A002B0CD11C23F5
:10378000FB181B781A4A17480F21174CA047154BF6
:103790001800124B984706E0124B164A1A60114B5C
:1037A00018000E4B98473B6B01333B633B6B0F2B71
:1037B000D0DD114B1800094B98477B6B10337B63AE
:1037C0007B6B7F2BB9DD0C4B1800044B9847002313
:1037D0001800BD460FB090BDB05A030055DB010084
:1037E000E45A030034030020E5450300B94001001A
:1037F000EC5A0300582020004059030080B582B0E5
:1038000000AF78600B4B18000B4B98470B4B002216
:103810001A700A4B1B78002B05D0012B05D0074BE3
:1038200000221A7002E0C04600E0C0462820044B87
:103830009847EEE7745B030055DB010074430020FA
:1038400001BF010090B585B002AF78600A00FB1C93
:103850001A70FB1C1A787968134B1800134B9847A1
:10386000134BFA1C12781A70124B00221A70124B6A
:1038700001221A700C4B1B781A000B4B5B78180056
:10388000094B9B780D490093030001200C4CA04785
:10389000074B1A78044B110018000A4B9847C04692
:1038A000BD4603B090BDC046784300205543030099
:1038B000754300203404002074430020945B03000F
:1038C00041DC0100055A010080B582B000AF020062
:1038D000FB1D1A70064BFA1D127811001F220A40B8
:1038E000012191400A001A60C046BD4602B080BD69
:1038F00000E100E080B584B000AF78607B681B68B1
:10390000FB60FB68DB69072213405A1E9341DBB260
:103910001800BD4604B080BD80B582B000AF7860AD
:10392000C0467B681800044B9847031EF9D1C04677
:10393000BD4602B080BDC046F538010080B582B0FA
:1039400000AF78607B6864221A607B681B4A5A600B
:103950007B6800229A607B6800221A737B680022D1
:103960001A767B68802292031A617B680122524298
:10397000DA827B68012252429A827B680022DA61F5
:103980007B6800221A627B682422002199547B689C
:1039900000229A627B682C22002199547B682D2298
:1039A000002199547B682E22002199547B68D722EC
:1039B0001A86C046BD4602B080BDC046480D000014
:1039C00080B584B000AF78607B681B68BB60002363
:1039D000FB607B681800144B9847BB681B68022289
:1039E0001A43BB681A607B681B6818000F4B984726
:1039F000030018000E4B98470CE0FB680133FB6096
:103A00007B68DB881A00FB689A4203D8BB681022E7
:103A10005A8306E0BB685B8B9BB21A0010231340ED
:103A2000EBD0BD4604B080BD19390100AD70020075
:103A3000C938010080B582B000AF78600A00FB1C75
:103A40001A707B685B7EDBB25AB2FB1C1B780121CB
:103A500099400B005BB213435BB2DAB27B685A76D3
:103A6000C046BD4602B080BD90B591B000AF002306
:103A7000FB633A23FB1800221A703B1D1800214BF0
:103A800098473B1D204ADA613B1D204A1A623B1DC4
:103A9000FA229200DA823B23FB1803221A701EE0FE
:103AA0003A23FC183A1D1A491A4B18001A4B98472A
:103AB000030023703A23FB181B78002B04D13A2310
:103AC000FB181B78FB630FE0124B1800134B984751
:103AD0003B23FB181A783B23FB18013A1A703B234F
:103AE000FB181B78002BDBD1FB6B002B04D1094B9F
:103AF00018000B4B984700E0C046FB6B1800BD4612
:103B000011B090BD3D39010002000800020009001B
:103B10000008004284430020DD7701001179010094
:103B2000C139010080B584B000AF78600E4B00222F
:103B30001A700D4B01229A600023FB600B4B1B682F
:103B40000C22BA1811001800094B9847094B0022A3
:103B50001A70FB68002B03D0074B802252051A60B5
:103B6000C046BD4604B080BD38040020AC430020F0
:103B700025AB01003504002004ED00E080B584B0E1
:103B800000AF78600E4B00221A700D4B01229A6034
:103B90000023FB600B4B1B680C22BA1811001800A5
:103BA000094B9847094B00221A70FB68002B03D081
:103BB000074B802252051A60C046BD4604B080BD46
:103BC00038040020AC43002025AB01003504002060
:103BD00004ED00E080B584B000AF78600E4B0022A9
:103BE0001A700D4B01225A600023FB600B4B1B68BF
:103BF0000C22BA1811001800094B9847094B0122F2
:103C00001A70FB68002B03D0074B802252051A6004
:103C1000C046BD4604B080BD38040020AC4300203F
:103C200025AB01003504002004ED00E080B500AFB5
:103C30001149124B00221800114B98470F4B0021DD
:103C40001800104B984710490C4B012218000C4BE0
:103C500098470A4B012118000A4B98470B49074B1C
:103C600002221800064B9847044B02211800054B0E
:103C70009847C046BD4680BD253B010084430020D7
:103C800009290100353A01007D3B0100D53B0100C7
:103C900080B582B000AF00237B60144B98470300CF
:103CA0007B607B68002B1AD1114B98470120114B88
:103CB00098470200104B1A600322002101200F4B8D
:103CC000984702000E4B1A600B4B1B68002B03D069
:103CD0000B4B1B68002B03D106237B6000E0C04622
:103CE0007B681800BD4602B080BDC046693A01003D
:103CF0002D3C01005DA4010080430020F5A10100DE
:103D0000AC43002090B585B000AF78600023FB6025
:103D10007B68002B03D07B685B68002B03D10823F2
:103D20005B42FB601FE07B681B789AB2104B1A80E5
:103D30007B685A680E4B5A607B68DA890C4B5A8054
:103D40000B23FC180A4A0B4B110018000A4B98472A
:103D5000030023700B23FB181B78002B03D00623D2
:103D60005B42FB60C046FB681800BD4605B090BDD5
:103D7000B0430020844300208D2B010090B585B016
:103D800000AF78600023FB607B68002B03D07B686A
:103D90009B68002B03D108235B42FB601FE07B681C
:103DA0001B789AB2104B1A807B689A680E4B5A6047
:103DB0007B689A890C4B5A800B23FC180A4A0B4BE0
:103DC000110018000A4B9847030023700B23FB18BF
:103DD0001B78002B03D006235B42FB60C046FB68C8
:103DE0001800BD4605B090BDB043002084430020BC
:103DF000A92A010090B583B000AF00237B60094B76
:103E00001868002300220021074CA0470300012B63
:103E100002D014235B427B607B681800BD4603B070
:103E200090BDC046804300209DA4010080B584B0B1
:103E300000AF78600023FB60084B1B687A681100B4
:103E40001800074B98470300012B02D01D235B424B
:103E5000FB60FB681800BD4604B080BD80430020B5
:103E6000ADB1010080B584B000AF78600023FB6085
:103E7000044B1A687B681A60FB681800BD4604B0E2
:103E800080BDC046AC43002080B500AF024B1B781C
:103E90001800BD4680BDC0463504002080B582B004
:103EA00000AF0200FB1D1A70034BFA1D12781A7046
:103EB000C046BD4602B080BD3504002080B584B048
:103EC00000AF786039600023FB600023BB6096235D
:103ED0005B001800284B98470300FB60FB68002B31
:103EE00038D10823FB181800244B98470300FB60C7
:103EF000FB68002B30D17B681800214B98470300EA
:103F0000FB60FB68002B2AD1BB683A6811001800DF
:103F10001C4B98470300012B11D11B4B9847031EE4
:103F200011D00020194B9847FB68002B03D02123A8
:103F30005B42FB6014E003235B42FB6010E0032361
:103F40005B42FB600CE0124B98470200FB68134396
:103F5000FB6002E0C04600E0C046FB6807E0C046E8
:103F60000B4B98470200FB681343FB60FB6818008B
:103F7000BD4604B080BDC0462D3E0100653E010037
:103F8000053D0100ADB10100893E01009D3E0100EB
:103F9000F53D010080B586B000AFF860B9607A6089
:103FA00000237B6100233B6196235B001800394BA3
:103FB000984703007B617B69002B5CD11023FB18C1
:103FC0001800354B984703007B617B69002B54D167
:103FD000FB685B68002B24D0FB68DB89002B20D0BA
:103FE000FB6818002D4B984703007B617B69002B11
:103FF00046D13B697A6811001800294B98470300A5
:10400000012B0AD1274B9847031E0AD00020264BCC
:10401000984703235B427B6135E003235B427B616E
:1040200031E0BB681800214B9847FB681800204B13
:10403000984703007B617B69002B23D13B697A6839
:1040400011001800164B98470300012B0AD1154B9D
:104050009847031E0AD00020134B984703235B4266
:104060007B6110E003235B427B610CE0114B9847BE
:1040700003007B6102E0C04600E0C0467B6905E0CA
:10408000C04600E0C0460B4B98477B691800BD4610
:1040900006B080BD2D3E0100653E0100053D0100DA
:1040A000ADB10100893E01009D3E010001BF01004C
:1040B0007D3D0100F53D010080B586B000AFF860A0
:1040C000B9607A6000237B6100233B6196235B002B
:1040D0001800244B984703007B617B69002B33D188
:1040E0001023FB181800204B984703007B617B6965
:1040F000002B2BD1FB6818001C4B984703007B61F9
:104100007B69002B25D13B697A6811001800184B98
:1041100098470300012B13D1164B9847031E06D076
:104120000020154B984703235B427B6112E0BB687C
:104130001800124B9847124B984703007B6106E02A
:1041400003235B427B6105E0C04600E0C0467B691B
:1041500003E0C0460A4B98477B691800BD4606B08D
:1041600080BDC0462D3E0100653E0100053D0100B9
:10417000ADB10100893E01009D3E010001BF01007B
:10418000F53D0100B0B586B000AFF86008007A6078
:1041900019000B23FB18021C1A700823FB180A1CB9
:1041A0001A80FB685C68FB6898680823FB181D8808
:1041B0007A680B23FB1819782B00A04703007B615A
:1041C0007B691800BD4606B0B0BDB0B586B000AF83
:1041D000F86008007A6019000B23FB18021C1A70A3
:1041E0000823FB180A1C1A80FB681C68FB68986887
:1041F0000823FB181D887A680B23FB1819782B00FD
:10420000A04703007B617B691800BD4606B0B0BDC6
:1042100080B582B000AF0200BB1D1A80BB1D00221A
:104220009A5E064B10009847021C054B0549101C6E
:104230009847031C181CBD4602B080BD71290300BD
:10424000F126030023DB793D90B585B000AF78609F
:104250000A00FB1C1A700823FA1878680123102141
:10426000124CA0470300FB60FB68002B19D1FB1C1C
:104270001B7803221340DAB20823FB1803210A40FB
:1042800090001A780C218A43111C021C0A431A70F0
:104290000823FA18786801231021054CA047030071
:1042A000FB60FB681800BD4605B090BD854101006C
:1042B000CB41010090B587B000AF78600A00FB1CCD
:1042C0001A701723FB18FA1C12781A700C23FA18AC
:1042D0007B6811001800A44B984703003B613B69C1
:1042E000002B00D013E10C23FB181B78DB07DB0F3E
:1042F000DAB20C23FB181B789B07DB0FDBB21343EE
:10430000DAB20C23FB181B785B07DB0FDBB213431D
:10431000DAB20C23FB181B781B07DB0FDBB213434D
:10432000DAB20C23FB181B78DB06DB0FDBB213437E
:10433000DAB20C23FB181B789B06DB0FDBB21343AE
:10434000DAB20C23FB181B785B06DB0FDBB21343DE
:10435000DAB20C23FB181B781B06DB0FDBB213430E
:10436000DAB20C23FB185B78DB07DB0FDBB21343FD
:10437000DAB20C23FB185B789B07DB0FDBB213432D
:10438000DAB20C23FB185B785B07DB0FDBB213435D
:10439000DAB20C23FB185B781B07DB0FDBB213438D
:1043A000DAB20C23FB185B78DB06DB0FDBB21343BE
:1043B000DAB20C23FB185B789B06DB0FDBB21343EE
:1043C000DAB20C23FB185B785B06DB0FDBB213431E
:1043D000DAB20C23FB185B781B06DB0FDBB213434E
:1043E000DBB2012B00D092E00B23FA187B6811009E
:1043F00018005E4B984703003B613B69002B00D0DF
:1044000085E00B23FB181B78012B17D002DC002B57
:1044100005D076E0022B29D0032B48D071E0FB1C9D
:104420001B78002B04D11723FB1801221A706EE0B1
:104430001723FB18FA1C12781A7068E0FB1C1B7813
:10444000002B04D11723FB1802221A705FE0FB1C1B
:104450001B78012B04D11723FB1802221A7056E097
:104460001723FB18FA1C12781A7050E0FB1C1B78FB
:10447000002B04D11723FB1803221A7047E0FB1C02
:104480001B78012B04D11723FB1803221A703EE07E
:10449000FB1C1B78022B04D11723FB1803221A7074
:1044A00035E01723FB18FA1C12781A702FE0FB1C5A
:1044B0001B78002B04D11723FB1804221A7026E066
:1044C000FB1C1B78012B04D11723FB1804221A7044
:1044D0001DE0FB1C1B78022B04D11723FB180422C0
:1044E0001A7014E0FB1C1B78032B04D11723FB1854
:1044F00004221A700BE01723FB18FA1C12781A70AA
:1045000005E01723FB18FA1C12781A70C0463B69A5
:10451000002B08D10823FA18786801231021144CC5
:10452000A04703003B613B69002B18D11723FB1800
:104530001B780F221340DAB20823FB1810011A78F7
:104540000F210A40111C021C0A431A700823FA1892
:10455000786801231021074CA04703003B613B69A9
:104560001800BD4607B090BD914D0100E54D01001A
:1045700085410100CB41010090B585B000AF786066
:104580000A00FB1C1A700823FA187868012311210D
:10459000124CA0470300FB60FB68002B19D1FB1CE9
:1045A0001B7807221340DAB20823FB1807210A40C0
:1045B00090181A780E218A43111C021C0A431A70A3
:1045C0000823FA18786801231121054CA04703003D
:1045D000FB60FB681800BD4605B090BD8541010039
:1045E000CB41010090B587B000AF78600A00FB1C9A
:1045F0001A701723FB18FA1C12781A700C23FA1879
:104600007B6811001800A44B984703003B613B698D
:10461000002B00D013E10C23FB181B78DB07DB0F0A
:10462000DAB20C23FB181B789B07DB0FDBB21343BA
:10463000DAB20C23FB181B785B07DB0FDBB21343EA
:10464000DAB20C23FB181B781B07DB0FDBB213431A
:10465000DAB20C23FB181B78DB06DB0FDBB213434B
:10466000DAB20C23FB181B789B06DB0FDBB213437B
:10467000DAB20C23FB181B785B06DB0FDBB21343AB
:10468000DAB20C23FB181B781B06DB0FDBB21343DB
:10469000DAB20C23FB185B78DB07DB0FDBB21343CA
:1046A000DAB20C23FB185B789B07DB0FDBB21343FA
:1046B000DAB20C23FB185B785B07DB0FDBB213432A
:1046C000DAB20C23FB185B781B07DB0FDBB213435A
:1046D000DAB20C23FB185B78DB06DB0FDBB213438B
:1046E000DAB20C23FB185B789B06DB0FDBB21343BB
:1046F000DAB20C23FB185B785B06DB0FDBB21343EB
:10470000DAB20C23FB185B781B06DB0FDBB213431A
:10471000DBB2012B00D092E00B23FA187B6811006A
:1047200018005E4B984703003B613B69002B00D0AB
:1047300085E00B23FB181B78012B17D002DC002B24
:1047400005D076E0022B29D0032B48D071E0FB1C6A
:104750001B78002B04D11723FB1801221A706EE07E
:104760001723FB18FA1C12781A7068E0FB1C1B78E0
:10477000002B04D11723FB1802221A705FE0FB1CE8
:104780001B78012B04D11723FB1802221A7056E064
:104790001723FB18FA1C12781A7050E0FB1C1B78C8
:1047A000002B04D11723FB1803221A7047E0FB1CCF
:1047B0001B78012B04D11723FB1803221A703EE04B
:1047C000FB1C1B78022B04D11723FB1803221A7041
:1047D00035E01723FB18FA1C12781A702FE0FB1C27
:1047E0001B78002B04D11723FB1804221A7026E033
:1047F000FB1C1B78012B04D11723FB1804221A7011
:104800001DE0FB1C1B78022B04D11723FB1804228C
:104810001A7014E0FB1C1B78032B04D11723FB1820
:1048200004221A700BE01723FB18FA1C12781A7076
:1048300005E01723FB18FA1C12781A70C0463B6972
:10484000002B08D10823FA18786801231121144C91
:10485000A04703003B613B69002B18D11723FB18CD
:104860001B780F221340DAB20823FB1810011A78C4
:104870000F210A40111C021C0A431A700823FA185F
:10488000786801231121074CA04703003B613B6975
:104890001800BD4607B090BD914D0100E54D0100E7
:1048A00085410100CB41010090B585B000AF786033
:1048B0000A00FB1C1A700823FA18786801231221D9
:1048C000124CA0470300FB60FB68002B19D1FB1CB6
:1048D0001B7801221340DAB20823FB1801210A4099
:1048E00090011A7840218A43111C021C0A431A7055
:1048F0000823FA18786801231221054CA047030009
:10490000FB60FB681800BD4605B090BD8541010005
:10491000CB41010090B585B000AF78600A00FB1C68
:104920001A700823FA18786801231521124CA04741
:104930000300FB60FB68002B19D1FB1C1B780122D4
:104940001340DAB20823FB1801210A40D0001A787C
:1049500008218A43111C021C0A431A700823FA1802
:10496000786801231521054CA0470300FB60FB6814
:104970001800BD4605B090BD85410100CB41010046
:1049800090B585B000AF786039600823FA18786870
:1049900001231E21084CA0470300FB600823FB18DD
:1049A0001B78DB07DB0FDBB21A003B681A70FB6871
:1049B0001800BD4605B090BD8541010090B587B097
:1049C00000AF786039600C23FA1878680623282134
:1049D000264CA04703007B610C23FB185B781AB2BE
:1049E0003B681A803B6800229B5E9BB21B029AB216
:1049F0000C23FB181B789BB2D3189BB21AB23B68EE
:104A00001A803B6802330C22BA18D27812B21A808C
:104A10003B6802333A6802320021525E92B21202BF
:104A200091B20C22BA18927892B28A1892B212B24B
:104A30001A803B6804330C22BA18527912B21A80D9
:104A40003B6804333A6804320021525E92B212028B
:104A500091B20C22BA18127992B28A1892B212B29A
:104A60001A807B691800BD4607B090BD85410100E2
:104A700090B585B000AF78600A00FB1C1A7008235F
:104A8000FA18786801230121114CA0470300FB604C
:104A9000FB68002B17D1FB1C1B7803221340DAB2F2
:104AA0000823FB1890011A783F210A40111C021CB0
:104AB0000A431A700823FA18786801230121054C6B
:104AC000A0470300FB60FB681800BD4605B090BD21
:104AD00085410100CB41010090B585B000AF786001
:104AE00039603A68786801230F21044CA04703001D
:104AF000FB60FB681800BD4605B090BD8541010014
:104B000090B585B000AF78600A00FB1C1A700823CE
:104B1000FA18786801231221124CA0470300FB60A9
:104B2000FB68002B19D1FB1C1B7801221340DAB261
:104B30000823FB1801210A4010001A7801218A433A
:104B4000111C021C0A431A700823FA187868012302
:104B50001221054CA0470300FB60FB681800BD460E
:104B600005B090BD85410100CB41010090B585B0F5
:104B700000AF786039600823FA18786801231221A1
:104B8000084CA0470300FB600823FB181B78DB07D9
:104B9000DB0FDBB21A003B681A70FB681800BD46D9
:104BA00005B090BD8541010090B585B000AF78603B
:104BB0000A00FB1C1A700823FA18786801231021D8
:104BC000124CA0470300FB60FB68002B19D1FB1CB3
:104BD0001B7801221340DAB20823FB1801210A4096
:104BE00090181A7802218A43111C021C0A431A7079
:104BF0000823FA18786801231021054CA047030008
:104C0000FB60FB681800BD4605B090BD8541010002
:104C1000CB41010090B585B000AF78600A00FB1C65
:104C20001A700823FA18786801231721254CA04729
:104C30000300FB60FB68002B3FD1FB1C1B781B09AA
:104C4000DBB21A1C01231340DAB20823FB1801213E
:104C50000A4090001A7804218A43111C021C0A435E
:104C60001A70FB1C1B785B09DBB21A1C0123134072
:104C7000DAB20823FB1801210A4010011A7810212A
:104C80008A43111C021C0A431A70FB1C1B78072262
:104C90001340DAB20823FB1850011A781F210A408A
:104CA000111C021C0A431A700823FA1878680123A1
:104CB0001721054CA0470300FB60FB681800BD46A8
:104CC00005B090BD85410100CB41010090B587B092
:104CD00000AF78600A00FB1C1A700C23FA18786881
:104CE00001231821284CA04703007B617B69002B1E
:104CF0001CD1FB1C1B78DB09DBB21A1C01231340FF
:104D0000DAB20C23FB1801210A4090181A7802210C
:104D10008A43111C021C0A431A700C23FA18786883
:104D200001231821194CA04703007B617B69002BEC
:104D300008D11023FA18786801236221124CA04789
:104D400003007B617B69002B19D1FB1C1B780322BC
:104D50001340DAB21023FB1803210A40D0001A785E
:104D600018218A43111C021C0A431A701023FA18D6
:104D7000786801236221054CA04703007B617B69B1
:104D80001800BD4607B090BD85410100CB41010030
:104D900090B585B000AF786039607B68022118005B
:104DA0000E4B98470300FB60FB68002B07D13A6865
:104DB0007868022346210A4CA0470300FB60FB6889
:104DC000002B06D17B6800211800044B9847030094
:104DD000FB60FB681800BD4605B090BD714A01003C
:104DE0008541010090B585B000AF786039607B687F
:104DF00002211800214B98470300FB60FB68002B41
:104E000008D10823FA18786801235F211C4CA047B9
:104E10000300FB60FB68002B2BD10823FB181B78D9
:104E2000DB069B0FDBB2012B0CD002DC002B05D084
:104E300014E0022B0AD0032B0CD00FE03B680022B9
:104E40001A700FE03B6801221A700BE03B680222E7
:104E50001A7007E03B6803221A7003E03B680022E7
:104E60001A70C0467B6800211800044B9847030065
:104E7000FB60FB681800BD4605B090BD714A01009B
:104E80008541010080B586B000AFF86008007A6007
:104E900019000B23FB18021C1A700823FB180A1CAC
:104EA0001A800823FB181B883F2B02D901235B4281
:104EB00030E01A4B0B22BA1812781A7001237B616A
:104EC0000CE07B69013B7A68D3181978134A7B6937
:104ED000D3180A1C1A707B6901337B610823FB1805
:104EE0001A887B699A42ECDA0823FB181B88013385
:104EF0009AB20B4BDA810A4B084A5A60084B0022DF
:104F00009A60074B00229A81054BC8211800054B77
:104F1000984703001800BD4606B080BDBC43002082
:104F200020000020BD3E010080B584B000AFF860D5
:104F300008007A6019000B23FB18021C1A70082362
:104F4000FB180A1C1A800D4B0822BA1812889A8185
:104F50000A4B7A689A60094B0122DA81074B0B22CF
:104F6000BA185A60054BC82205211800044B98470F
:104F700003001800BD4604B080BDC04620000020DC
:104F8000953F010080B500AF014B1800BD4680BDC4
:104F90001400002080B582B000AF00237B60234B5B
:104FA00001211800224B984703007B60FA1C1F4B1D
:104FB000110018001F4B984702007B6813437B6069
:104FC000FB1C1B78002BF1D1184B802118001A4BC9
:104FD0009847164B01211800184B9847134B002196
:104FE0001800174B9847114B01211800154B984793
:104FF0000E4B01211800144B98470C4B0021180050
:10500000124B9847094B06211800114B9847074B44
:10501000042118000F4B9847044B012118000E4B38
:1050200098477B681800BD4602B080BD1400002080
:10503000014B01006D4B0100CD4C0100A94801005E
:1050400015490100B5420100E54501004942010052
:1050500079450100154C0100A94B010080B582B0D3
:1050600000AF384B2E221A70364B374A5A60354BF8
:105070000222DA81334B3A009A60324B01229A8144
:10508000304B642200211800304B984703007B60AE
:105090007B68002B04D02E4B18002E4B98470CE059
:1050A0003B001B78552B04D02B4B1800294B9847FD
:1050B00003E02A4B1800274B9847224B284A5A6096
:1050C000204B0322DA811F4B64211800254B98479F
:1050D00003007B607B68002B03D0234B18001D4B23
:1050E0009847184B214A5A60164B0322DA81154B18
:1050F000642118001B4B984703007B607B68002BE2
:1051000003D01B4B1800134B98470E4B194A5A609B
:105110000C4B0422DA810B4B64211800114B984789
:1051200003007B607B68002B03D0134B1800094BF6
:105130009847124B9847124B98477B681800BD461A
:1051400002B080BDFC430020AC5B0300953F010032
:10515000C45B030055DB0100E45B0300F05B03006C
:10516000B05B0300BD3E0100045C0300B45B0300C0
:10517000245C0300B85B0300505C03003155010060
:105180004154010080B582B000AFFB1C00221A70B0
:10519000114B2E221A70104B104A5A600E4B0222ED
:1051A000DA810D4BFA1C9A600B4B01229A810A4B53
:1051B0006422002118000A4B984703007B607B683B
:1051C000002B03D0074B1800074B9847FB1C1B789C
:1051D0001800BD4602B080BDFC430020C05B030048
:1051E000953F0100845C030055DB010080B584B06D
:1051F00000AF78600A00FB1C1A70FB1C1B78002BA8
:1052000001D1002326E00823FB18144A12881A80D3
:10521000134B2E221A70124B0822BA185A60104BE8
:105220000222DA810E4B7A689A60FB1C1B789AB2D4
:105230000B4B9A810A4B642200211800094B9847B6
:105240000300FB60FB68002B03D0074B1800074BE3
:105250009847FB681800BD4604B080BDA85C0300F9
:10526000FC430020953F0100845C030055DB0100F6
:1052700090B587B000AF040008001100FB1D221C90
:105280001A70BB1D021C1A707B1D0A1C1A70102399
:10529000FB187A1D12780121100008401A780121AC
:1052A0008A43111C021C0A431A70BB1D1B78012281
:1052B0009A401300DBB21A1C0F231340DAB21023FA
:1052C000FB180F210A4090181A781E218A43111CDE
:1052D000021C0A431A700C23FB1810221A700C23AC
:1052E000FB1801225A700C23FB18FA1D12789A70D1
:1052F0001023FB181A780C23FB18DA700C4B2E22A3
:105300001A700B4B0C22BA185A60094B0422DA812E
:10531000074B00229A81064B64211800054B9847E1
:1053200003007B617B691800BD4607B090BDC04695
:10533000FC430020BD3E0100B0B586B000AF0500C3
:105340000C0010001900FB1D2A1C1A70BB1D221C2A
:105350001A707B1D021C1A703B1D0A1C1A70082350
:10536000FB180E221A700823FB1804225A70082317
:10537000FB1800229A700823FB180022DA70082319
:10538000FB187A1D12781A710823FB18BA1D1278BF
:105390005A710823FB183A1D12789A71FB1D1B786D
:1053A0009BB21622BA18191C0B1CDB185B18138051
:1053B0001623FB181B881B0A9BB2DAB20823FB18C2
:1053C0009A701623FB181B88DAB20823FB18DA70D0
:1053D000094B0822BA185A60074B0722DA81064B9C
:1053E00064211800054B984703003B613B69180096
:1053F000BD4606B0B0BDC046FC430020BD3E010026
:1054000080B582B000AF3B000A4A12881A800A4B6E
:105410003A005A60084B0222DA81074B64211800D7
:10542000064B984703007B607B681800BD4602B0BE
:1054300080BDC046AC5C0300FC430020BD3E0100C3
:1054400080B582B000AF334B2E221A70314B324AF6
:105450005A60304B0322DA812E4B00229A812D4B69
:10546000642118002D4B984703003B603B68002BDC
:1054700003D02B4B18002B4B984700237B6041E057
:105480007B68002B00DA03339B10DBB2DB00DAB25F
:105490007B6825490B4004D5013B042149420B435D
:1054A0000133DBB2D318DBB20122032118001F4BFA
:1054B000984703003B607B68002B00DA03339B10A6
:1054C000DBB2DB00DAB27B6817490B4004D5013B45
:1054D000042149420B430133DBB2D318DBB2012272
:1054E00002211800114B984702003B6813433B60B0
:1054F0003B68002B03D00A4B18000A4B98477B6887
:1055000001337B607B680F2BBADDC046BD4602B01D
:1055100080BDC046FC430020BC5B0300BD3E0100D3
:10552000B05C030055DB01000300008071520100F4
:10553000B0B500AFFF23FF22FF210F20094CA04789
:10554000094B9847C8235B001800084B9847002375
:10555000002200210F20034CA047034B9847C04670
:10556000BD46B0BD395301000154010001BF010027
:1055700080B582B000AF78600A00BB1C1A800B4B6C
:10558000BA1C1288DA81094B7A685A60074B0022EC
:105590009A60064B00229A81044B0A211800044BA2
:1055A000984703001800BD4602B080BD3C000020B3
:1055B000BD3E010080B582B000AF78600A00BB1C20
:1055C0001A800C4BBA1C1288DA810A4B7A685A602E
:1055D000084B094A9A60074B06229A81054B0A221A
:1055E000D2211800054B984703001800BD4602B0B1
:1055F00080BDC0463C0000200C440020953F0100C7
:1056000080B584B000AF78600023FB60314B02218D
:105610001800314B98470300FB60FB68002B49D111
:105620002E4B022118002E4B98470300FB60FB68AD
:10563000002B41D12B4B02211800274B98472A4BB6
:105640001B781B021AB2284B5B781BB213431BB2A8
:105650009AB27B681A807B680233234AD27812029E
:1056600011B2214A127912B20A4312B292B21A80CE
:105670007B681B881A0064235343002B02DA1B4A01
:10568000944663441B149AB27B681A807B689A1C08
:105690007B6802331B881900AF234B43002B02DACF
:1056A00012498C4663441B149BB22D3B9BB2138062
:1056B00001230AE0C04600E0C0467B6800221A8051
:1056C0007B68023300221A8000231800BD4604B014
:1056D00080BDC0463000002071550100340000201C
:1056E000B5550100380000200C440020FFFF0000E9
:1056F00090B587B000AF7860B14B1800B14B9847B8
:10570000B14B00221A70B04B1B78012B0BD0022B2F
:1057100000D14FE1002B00D048E1AC4B0121180033
:10572000AB4B984747E1AB4B00221A7000237B61DB
:1057300031E11123FB1800221A7001E1A64B9847B2
:10574000031E12D11323FB181322BA1812781A70F1
:105750001223FB181222BA1812781A701123FB18A0
:105760001122BA1812781A70EAE0984B0121180039
:10577000974B984701001323FB181322BA1812788D
:105780001A701223FB181222BA1812781A701123F9
:10579000FB181122BA1812781A70002900D0CFE035
:1057A0008A4B1B789B08DBB2002B00DA0733DB1037
:1057B000DBB29B00DAB2854B1B789B08DBB207217A
:1057C0000B40DBB2D318DAB2804B1A701123FB18EE
:1057D0001B78002B4AD17D4B1B781A007F4B9B5CBA
:1057E000012B12D11323FB181322BA1812781A7046
:1057F0001223FB181222BA1812781A701123FB1800
:105800001122BA1812781A709AE01123FB181B782B
:105810006E4A11780822BA18D1546C4B1B781A00C2
:105820006E4B01219954694B1878322300220021D4
:105830006B4CA0476B4B98471323FB18634A1278B5
:105840001A701223FB18614A12781A701123FB1880
:105850001A7865497B69CB181B78013B9A4268D05E
:105860005A4B1B781800614B984762E0574B1B78E6
:105870001A005A4B9B5C002B12D01323FB181322E7
:10588000BA1812781A701223FB181222BA1812785A
:105890001A701123FB181122BA1812781A704FE0EF
:1058A0001123FB181B78494A11780822BA18D154E1
:1058B000464B1B781A00494B01219954434B1878E9
:1058C000322300220021464CA047464B9847132321
:1058D000FB181B781800464B98471223FB181B78BF
:1058E0001800434B9847394B1B781322BA1812788B
:1058F0009A4205D91323FB18344A12781A7004E02F
:105900001223FB18314A12781A701123FB181A78E7
:1059100035497B69CB181B78013B9A4209D0122389
:10592000FB181A781323FB181B7811001800314B51
:1059300098471123FB181A781123FB1801321A70AB
:10594000294A7B69D3181B781122BA1812789A4217
:1059500000D2F3E60023FB6012E01E4B1B78190017
:105960000823FA18FB68D3181A78234B5A54194B9A
:105970001B780133DAB2174B1A70FB680133FB60F6
:10598000194A7B69D3181B781A00FB689A42E4DC39
:105990007B6901337B61194B1B781A007B699A4242
:1059A00000DDC6E6084B00221A7004E0064B002218
:1059B0001A7000E0C0463220114B9847A3E6C0465B
:1059C000D45C030055DB010029440020144400206E
:1059D000ED5101004C040020855101004C000020D5
:1059E000395301000154010078430020955A010009
:1059F0004D5D0100BD5B010018440020754300208F
:105A000001BF010090B585B000AF78600A00FB1CB3
:105A10001A70174B19000120164B9847164B1B782C
:105A20001A007968154B1800154B9847124BFA1C51
:105A300012781A700023FB600EE0FB68D8B20023D6
:105A4000002200210F4CA0470F4AFB68D318022206
:105A50001A70FB680133FB60FB680F2BEDDD0B4B0D
:105A600098470B4B01221A70C046BD4605B090BD49
:105A7000E85C030041DC010075430020784300200E
:105A800055430300395301004C000020015401002C
:105A90002944002090B585B000AF0200FB1D1A70AC
:105AA000FB1D1B78032B1AD90F23FB18FA1D127844
:105AB000043A1A700F23FB181B783D4AD35C012B64
:105AC0000DD00F23FB181B78394A0021D1540F2326
:105AD000FB181878022332223221364CA047FB1DD6
:105AE0001B780B2B1AD80F23FB18FA1D12780432DF
:105AF0001A700F23FB181B782D4AD35C012B0DD095
:105B00000F23FB181B782A4A0021D1540F23FB18BE
:105B10001878022332223221264CA047FB1D1B7825
:105B200003221340DBB2032B1AD00F23FB18FA1DFC
:105B3000127801321A700F23FB181B781C4AD35CB1
:105B4000012B0DD00F23FB181B78194A0021D154CB
:105B50000F23FB181878022332223221154CA0475C
:105B6000FB1D1B7803221340DBB2002B1AD00F233E
:105B7000FB18FA1D1278013A1A700F23FB181B78D4
:105B80000B4AD35C012B0DD00F23FB181B78084A5E
:105B90000021D1540F23FB1818780223322232211E
:105BA000044CA047044B9847C046BD4605B090BD85
:105BB0004C000020395301000154010090B585B01C
:105BC00000AF0200FB1D1A70BB1D0A1C1A70FA1DE3
:105BD000BB1D12781B789A420AD20F23FB18FA1DBC
:105BE00012781A700E23FB18BA1D12781A7009E089
:105BF0000F23FB18BA1D12781A700E23FB18FA1D1A
:105C000012781A700F23FA180E23FB1812781B78DB
:105C10005340DBB203221340DBB2002B3CD10F23F5
:105C2000FB181B78042B18D90F23FB181B78043B97
:105C3000434AD35C022B10D10F23FB181B78043B83
:105C40003F4A0021D1540F23FB181B78043BD8B2E4
:105C50000223322232213B4CA0470E23FB181B7833
:105C60000B2B67D80E23FB181B780433344AD35C04
:105C7000022B5FD10E23FB181B780433304A00211E
:105C8000D1540E23FB181B780433D8B202233222DE
:105C900032212C4CA0474DE00F23FB181B789B08AA
:105CA000DAB20E23FB181B789B08DBB29A4241D173
:105CB0000F23FB181B7803221340DBB2002B18D0F4
:105CC0000F23FB181B78013B1D4AD35C022B10D11C
:105CD0000F23FB181B78013B194A0021D1540F23D5
:105CE000FB181B78013BD8B2022332223221154C1B
:105CF000A0470E23FB181B7803221340DBB2032BB3
:105D000018D00E23FB181B7801330D4AD35C022BED
:105D100010D10E23FB181B780133094A0021D154FE
:105D20000E23FB181B780133D8B202233222322112
:105D3000044CA047044B9847C046BD4605B090BDF3
:105D40004C000020395301000154010090B585B08A
:105D500000AF0200FB1D1A700F23FB18FA1D12780A
:105D600004321A700F23FB181B78344AD35C002BC3
:105D70000DD10F23FB181B78304A0221D1540F2379
:105D8000FB1818780023002200212D4CA0470F2378
:105D9000FB18FA1D1278043A1A700F23FB181B78AF
:105DA000264AD35C002B0DD10F23FB181B78234A06
:105DB0000221D1540F23FB18187800230022002160
:105DC0001F4CA0470F23FB18FA1D127801321A70DE
:105DD0000F23FB181B78194AD35C002B0DD10F231E
:105DE000FB181B78154A0221D1540F23FB18187891
:105DF000002300220021124CA0470F23FB18FA1D9C
:105E00001278013A1A700F23FB181B780B4AD35CE7
:105E1000002B0DD10F23FB181B78084A0221D15407
:105E20000F23FB181878002300220021044CA04700
:105E3000044B9847C046BD4605B090BD4C000020BD
:105E4000395301000154010080B500AFBFF34F8FFB
:105E5000024B034ADA60BFF34F8FFEE700ED00E02C
:105E60000400FA0580B584B000AF0200FB1D1A7073
:105E70000F23FB18FA1D1278D2091A700E23FB1893
:105E8000FA1D127852091A700D4BBB600F23FB18D4
:105E90001B78002B0FD10F23FB181B789B001022BF
:105EA0009446BC446344083B1A680E23FB181B78D5
:105EB000DB01D31800E000231800BD4604B080BD0C
:105EC0000044004180B500AF024B9847C046BD4634
:105ED00080BDC046495E010080B582B000AF0200BF
:105EE000FB1D1A70FB1D1B781800034B984703001D
:105EF0001800BD4602B080BD655E010080B584B06B
:105F000000AF0200FB1D1A70BB1D0A1C1A70FB1D9E
:105F10001B7818000D4B98470300FB60FB1D1B7896
:105F20001F22134001229A401300BB60BB1D1B7847
:105F3000002B03D0FB68BA689A6102E0FB68BA687C
:105F40005A61C046BD4604B080BDC046D95E01005E
:105F500080B500AF024B00221A70C046BD4680BD1E
:105F60005504002080B582B000AF0200FB1D1A70FE
:105F7000FB1D1B785BB2DB435BB2064A127852B260
:105F800013405BB2DAB2034B1A70C046BD4602B092
:105F900080BDC0465504002080B582B000AF02002D
:105FA000FB1D1A70054B1A78FB1D1B781343DAB2E0
:105FB000024B1A70C046BD4602B080BD5504002099
:105FC00080B582B000AF0200FB1D1A70064B1B7833
:105FD000FA1D12781340DBB25A1E9341DBB218004F
:105FE000BD4602B080BDC0465504002090B585B0C6
:105FF00000AF786039607B68002B02D03B68002BD3
:1060000001D1002313E00F23FC1839680A4B00224A
:1060100018000A4B984703002370074B1800084BE1
:1060200098470F23FB181B785A425341DBB21800E4
:10603000BD4605B090BDC04658040020D9D202002C
:10604000D9DC020080B59EB000AFF860B960FB1DDE
:106050001A707623FB1801221A807423FB18002281
:106060001A806E23FB1800221A807223FB1800226C
:106070001A802423FB18180041231A000021924B98
:1060800098471823FB18180009231A0000218E4B8B
:1060900098471423FB1800221A600023BB66712363
:1060A000FB1800221A70BB68002B01D1002306E107
:1060B000BA68FB6811001800844B984703001A0067
:1060C00001235340DBB2002B01D00123F7E0BB6872
:1060D00018007F4B98470300402B01D90023EEE0C6
:1060E000BB682E2118007B4B98470300BB66BB6E34
:1060F000002B52D0BB6E1800754B984702006E23E0
:10610000FB181A806E23FB181B88072B37D87123C6
:10611000FB1801221A70BA6E1823FB181100180020
:106120006D4B9847BB681800694B984702006E2377
:10613000FB181B88D31A3C2B11D97423FB186E2231
:10614000BA1812883C218A1A1A807423FB181A88FC
:10615000B9682423FB181800604B98472AE0BA6EF0
:10616000BB68D21A7423FB181A807423FB181A8890
:10617000B9682423FB181800584B98471AE0742379
:10618000FB183C221A807423FB181A88B968242350
:10619000FB181800514B98470CE07423FB183C2265
:1061A0001A807423FB181A88B9682423FB18180076
:1061B0004A4B98477423FB181B887422BA18591C41
:1061C00011801A002423FB182D2199547623FB18E3
:1061D00000221A807223FB1801221A8010E0722319
:1061E000FA187223FB181B88191C8900CB18DB18BE
:1061F00013807623FB181A887623FB1801321A8045
:106200007623FB181B88022BE9D97623FB18012281
:106210001A804BE07623FB181A8831491423FB18A7
:106220001800304B98477423FB181B882422BA1897
:10623000D3181422B91803221800284B9847712349
:10624000FB181B78002B0CD07423FB181B8803331E
:106250002422BA18D3181822BA18110018001E4B9D
:1062600098472423FA18FB6811001800174B984729
:1062700003001A0001235340DBB2002B0FD0FB1D9B
:106280001A78BB68002118000F4B98472423FA188E
:10629000BB6811001800104B984701230FE07623CC
:1062A000FB181A887623FB1801321A807623FA1815
:1062B0007223FB1812881B889A42ABD30023180064
:1062C000BD461EB080BDC0468B430300ED5F01009C
:1062D0002747030081470300DD46030057470300BB
:1062E000145D03004946030090B583B002AF01205E
:1062F000224B984703001A0001235340DBB2002BC6
:1063000005D01F4B190001201E4B984732E0022098
:106310001A4B984703001A0001235340DBB2002BAD
:1063200005D0194B19000120164B984722E0042094
:10633000124B9847031E05D0144B19000120114B36
:10634000984717E008200D4B9847031E05D0104BC7
:10635000190001200B4B98470CE00E4B190001204F
:10636000084B98470C490D48002300930023012255
:106370000B4CA047BD4601B090BDC046C15F0100B7
:106380001C5D030041DC0100485D0300745D0300F7
:10639000A05D0300CC5D0300F85D03008444002091
:1063A0002D090300B0B586B000AF786039607B6816
:1063B000002B02D03B68002B05D1584B190001205F
:1063C000574B9847A6E00820564B984703001A0001
:1063D00001235340DBB2002B55D000237B61524B8D
:1063E00030221A70504B3A225A70504B7B6102E0B7
:1063F0007B69013B7B617B691B782F2BF8D17B6923
:1064000018004B4B98470300012B24D97B690133BB
:106410007B617A69474B11001800474B9847424906
:10642000464B40221800464B98473F4A454B1900BF
:1064300001203B4B98471323FC183B493F4B0A2252
:106440001800414B9847030023701323FB181B7857
:10645000002B12D008E03D4B19000120304B98472B
:1064600020203B4B984755E01323FB181A78394BF3
:10647000190001202A4B98474CE0374B00221A6044
:106480000820334B98477B68002B43D00023FB60E8
:106490001323FC180C23FB183A68796827482F4D02
:1064A000A847030023701323FB181B78002B0CD084
:1064B000224B18002A4B98472020254B9847294B00
:1064C00019000120164B984724E0234B1A68FB68FB
:1064D000D218214B1A60204B1A68234B1B682349A2
:1064E00001200F4CA0471C4B1A681F4B1B689A4297
:1064F00010D3124B18001A4B98471D4B190001205E
:10650000074B9847002117201A4B98471020104B33
:106510009847C046BD4606B0B0BDC046245E0300E5
:1065200041DC0100C15F01005C000020225E03002D
:10653000274703005E000020DD46030058040020CA
:1065400045600100885E0300D9D20200485E030066
:10655000995F0100B05E03008004002009D80200AA
:10656000D9DC0200E45E03007C040020205F03000D
:10657000545F0300FD5E010090B585B000AFF86088
:10658000B9607A60BB68042B00D977E0BB689A00D9
:106590003C4BD3181B689F463B4B190001203B4BDB
:1065A00098476BE03A4B19000120384B984704207C
:1065B000384B984762E07B681B881A007B685B68F1
:1065C00035490120314CA0477B681B88C82B0DD171
:1065D0007B685A68314B1A60314B00221A607B6825
:1065E0005A6880239B009A4243D803E02020294B1D
:1065F000984743E07B689A687B685B6819001000E5
:10660000284B98471020234B984732E07B685A6804
:106610007B681B6819001000224B98477B681B7A27
:10662000002B28D010201B4B984724E07B681A6869
:106630001D4B19000120154B98477B681B680B33D5
:106640001BD10820194B9847031E06D0184B180081
:10665000184B98470820184B98470420134B98472D
:10666000031E02D00420144B9847144B9847C04691
:1066700003E0C04602E0C04600E0C046BD4605B0AB
:1066800090BDC0466C650300885F030041DC0100DB
:10669000C05F0300995F0100EC5F03007C040020F1
:1066A00080040020A563010028600300C15F010091
:1066B00058040020D9DC0200655F0100E962010096
:1066C00080B582B000AF3A60FB1D021C1A70BB1D82
:1066D0000A1C1A703A68BB1D1978FB1D1B785BB247
:1066E0001800034B9847C046BD4602B080BDC04667
:1066F0003D060300B0B586B004AF786039603B68F2
:10670000FF2213401C003B681B0A1A00FF231340A2
:106710003A68120C1100FF220A403968090E0D0078
:106720007868094902950192009323000200012034
:10673000064CA0473A687B6811001800044B984744
:10674000C046BD4602B0B0BD5860030041DC010048
:10675000A107030090B587B002AF02003960FB1DAE
:106760001A70FB1D1B782C2B02D0322B3DD06FE012
:106770003B68FB60FB681B78012B07D1364B190087
:106780000120364B9847364B98475EE0FB681B78F4
:10679000002B5AD1334B19000120304B984702206F
:1067A000314B98470820314B9847031E06D0304B99
:1067B0001800304B984708202B4B984704202B4B50
:1067C0009847031E02D00420274B98472A4B0121EB
:1067D00018002A4B98472A4A2A48FF23009313009F
:1067E00002220B21284CA0472FE03B68BB60BB680E
:1067F0001B781800BB6801331B781C00BB68023390
:106800001B781A00BB6803331B7820490193009260
:10681000230002000120114CA04702201C4B984786
:106820001C4B1B78012B02D11B4B98470FE01B4AD6
:10683000114B110018001A4B9847031E07D0194B33
:1068400019000120054B984701E0C04600E0C04612
:10685000C046BD4605B090BD8860030041DC010024
:10686000651E0200A8600300655F0100C15F0100B2
:1068700058040020D9DC020084040020E9F2020060
:10688000CC600300D860030091190200E4600300AB
:10689000995F010054040020E9620100005D0300DB
:1068A000B5F102000C61030080B582B000AF3B1D62
:1068B0001800084B98473A1D074B11001800074B6A
:1068C0009847054B1800064B9847C046BD4602B096
:1068D00080BDC046D11D03002C440020F51D0300DF
:1068E000E11E030080B588B000AF3B001800164BD6
:1068F00098473B00802292001A613B00134A5A607D
:106900003B00BC22FF321A803B0001229A703A0001
:106910000F4B110018000F4B98470300FB61FB69F8
:10692000002B06DAFA690C4B190001200B4B984733
:10693000FEE70B4A064B110018000A4B9847C04669
:10694000BD4608B080BDC046650403002C4400204D
:1069500084440020B10403003C62030041DC0100D8
:10696000796501009D05030080B582B000AF3A60F3
:10697000FB1D021C1A70BB1D0A1C1A703A68BB1D55
:106980001978FB1D1B785BB21800034B9847C04673
:10699000BD4602B080BDC0465DF1020080B582B048
:1069A00000AF786039603A687B6811001800034BCB
:1069B0009847C046BD4602B080BDC04691F1020076
:1069C00090B587B000AF78607B681B689B681A78C9
:1069D000364B1B789A4265D1354B19000120354B57
:1069E00098477B685B685A687B685B689B6832493C
:1069F0000120304CA0477B681B68DA687B681B6805
:106A00009B682E4901202B4CA0477B681B689B6824
:106A10001A78264B1B789A4243D17B681B68DB6847
:106A2000013B5A081323FB181A701323FB181B7819
:106A3000052B05D9224B190000201E4B984731E049
:106A40007B681B689B680133BB6000237B6115E09A
:106A50007C69631C7B61BB680822B9180A22180094
:106A6000184B98470300DAB20C23FB181A55BB6881
:106A70001B782C2B0AD1BB680133BB607B69042BCC
:106A800005DCBB681B78002BE2D100E0C046132375
:106A9000FB181A780C23FB18110018000A4B9847B2
:106AA00000E0C046BD4607B090BDC046846203000A
:106AB0008862030041DC0100A8620300B0620300A9
:106AC000B8620300E14803004538010090B58BB07F
:106AD00006AFF860B9607A60BB68012B3BD0052B2C
:106AE00052D0002B00D055E07B681B68002B25DBC3
:106AF0002A4B190001202A4B98472A492A4AF8684C
:106B0000002305930023049300230393002302939F
:106B100000230193244B00930B000121234CA04739
:106B2000031E05D0224B190001201D4B984731E070
:106B3000204B190001201A4B98472BE01E4A1F4B8F
:106B400019000120164B98471B4AFB6811001800DA
:106B50001B4B98471EE07B681B78002B0BD1194B11
:106B60001949F8680222194CA047194B1900012055
:106B70000B4B98470EE07B681B781A00154B1900E9
:106B80000120074B984705E0134B19000120044BE7
:106B90009847C046C046BD4605B090BDD0620300D0
:106BA00041DC0100EC620300FC620300FDF1020025
:106BB0000863030030630300005D03004C630300BF
:106BC000B5F10200C1690100846303009DF3020076
:106BD00098630300AC630300E063030080B588B0F2
:106BE00000AF3B1D18001F4B98473B1D1E4A9A6083
:106BF0003B1D80229200DA603B1D1C4A1A613B1D3E
:106C0000802292005A613B1D194A1A803B1D194A85
:106C10009A803A1D184B11001800184B9847030032
:106C2000FB61FB69002B06DAFA69154B190001209C
:106C3000144B9847FEE7144A0F4B11001800134BF2
:106C400098470300FB61FB69002B06DAFA69104BD9
:106C5000190001200B4B9847FEE7C046BD4608B01F
:106C600080BDC046F5F00200BC040020BC06002038
:106C70005B070000701700008404002045F002004C
:106C8000F463030041DC0100CD6A010035F102002C
:106C90002864030080B584B000AF3B1D18000B4B87
:106CA00098473B1D37221A603B1D00225A603B1D4E
:106CB00001221A723B1D0222DA723B1D19000720C5
:106CC000034B9847C046BD4604B080BD85620200B4
:106CD000B962020080B500AF064B00220721180000
:106CE000054B984700210720044B9847C046BD46F6
:106CF00080BDC046016D0100855E0200E95E0200B4
:106D000080B500AF024B01221A70C046BD4680BD5F
:106D1000BC08002080B500AF154A164B11001800C2
:106D2000154B9847031E08D0144B19000120144B33
:106D3000984702E00020134B98470E4B34229B5C8F
:106D4000002BF7D1104B9847104B01221A70104AB4
:106D5000104B11001800104B9847104B9847104BE0
:106D60009847104B03221A70C046BD4680BDC046EE
:106D7000005D030084040020E9F202000C610300BE
:106D800041DC010075190200314F0200540400205B
:106D9000F5660100C1660100794F0200E14E020074
:106DA000E96201004D04002080B500AF09E0002039
:106DB000164B9847164B1800164B98470520164B54
:106DC00098471020154B984703001A0001235340A1
:106DD000DBB2002B09D02020104B984703001A008B
:106DE00001235340DBB2002BE1D10D4B9847FA232E
:106DF0009B001800084B98470A4B00221A700A4B58
:106E000000221A70C046BD4680BDC04675190200FA
:106E10002C4400201120030001BF0100C15F0100CC
:106E2000314F0200540400204D04002080B500AF13
:106E3000184B9847184B9847184A194B11001800DF
:106E4000184B9847184B9847184B34229B5C0122EB
:106E50005340DBB2002B0CD0154A144B1100180024
:106E6000144B9847031E04D0134B19000120134BF9
:106E700098470E4B34229B5C002B04D0104B19001A
:106E800001200E4B98470F4B01221A70C046BD4699
:106E900080BDC046314F0200DD6B01009D690100DD
:106EA00069690100794F0200E14E0200840400206C
:106EB000005D0300B5F102000C61030041DC01003C
:106EC0005C6403004D04002080B500AF0020094B36
:106ED0009847094B1800094B9847094B34229B5C93
:106EE000002B04D0064B64211800064B9847C0467F
:106EF000BD4680BD751902002C44002011200300FE
:106F000084040020E5F3020090B58DB002AF7860F4
:106F10006420684B9847684B98470022042105205D
:106F2000664B98470200664B1A60654B1B68002B46
:106F300003D1644B1800644B9847644B1800624BB4
:106F40009847634B9847634B9847634B9847634B0D
:106F50009847634B98470C23FB1818220021180010
:106F6000604B9847604B98470C23FB185F4A1A60A8
:106F70002723FC180C23FB1818005D4B98470300CF
:106F800023702723FB181B785BB2002B09D0272323
:106F9000FB1800229A56574B19000120564B984770
:106FA000FEE7564A564B19000120534B9847554B64
:106FB0009847554A554B11001800554B9847554A6C
:106FC0004E48FF230093130002220B21524CA0478E
:106FD00006E00020514B9847514B1800514B984701
:106FE0000220514B984703001A0001235340DBB2A3
:106FF000002BEED1FA239B0018002E4B98474B4BE9
:1070000001221A70494B1B785BB2012B0BD002DCBA
:10701000002B05D019E0022B08D0032B09D014E077
:10702000434B984715E0434B984712E0424B984733
:107030000FE0424B9847424B9847FA23DB00180079
:107040001C4B98473F4B984703E0384B00221A707F
:10705000C0460B23FB1800221A70194B1B680B2229
:10706000B91800221800384B98470300012B05D1AE
:107070000B23FB181B785AB22C4B1A70334B1B781E
:10708000DBB2002B11D0324A32493348002301933E
:10709000012300930123314CA047314B19000120FB
:1070A000154B9847294B00221A706420014B9847D2
:1070B000A8E7C04601BF0100515F0100F5A1010032
:1070C000500400207864030055DB0100A064030035
:1070D000A9680100E5680100DD6B0100956C010005
:1070E000D56C01008B430300A9FC0100556701002A
:1070F00081170200BC64030041DC0100D86003007A
:10710000E8640300E14E02009D6901006969010025
:10711000794F0200CC60030091190200751902003A
:107120002C44002011200300C15F01004D04002009
:107130002D6E0100C96E0100156D0100A96D0100E1
:1071400065710100C55E010055AD0100BC0800205D
:107150000C650300106503008404002031F3020075
:107160002065030090B58FB000AF3B00164A13CAEC
:1071700013C312781A703B0030221A703723FC18A0
:1071800039001023FB180A221800104B98470300FF
:1071900023701023FB1818000D4B98473723FB185A
:1071A0001B78002B08D03723FB181A78094B1900DD
:1071B0000020094B984703E0084B1800084B9847FC
:1071C000C046BD460FB090BD5C650300D9D2020039
:1071D000D9DC02003865030041DC0100486503008A
:1071E00055DB010090B583B000AF0200FB1D1A70A3
:1071F000FB1D1B78032B06D8054B1868F91D0023CF
:107200000A22044CA047C046BD4603B090BDC0460C
:10721000500400209DA4010080B582B000AF7860CA
:107220007B6800221A70C046BD4602B080BD0000D7
:1072300080B582B000AF02003960FB1D1A70FB1DE3
:107240001B78012B0AD0022B0FD0002B14D10E4B30
:107250000D4A91693A680A439A610FE00A4B0A4A5B
:10726000D1693A680A43DA6108E0074B064A116AB5
:107270003A680A431A6201E0172300E0002318006D
:10728000BD4602B080BDC0460004004080B582B05B
:1072900000AF78607B6880221A707B6800225A7089
:1072A0007B6801229A707B680022DA70C046BD4676
:1072B00002B080BD80B500AF054B9B78DBB21A00F1
:1072C000022313405A1E9341DBB21800BD4680BD15
:1072D0000020004180B500AF024B9847C046BD4634
:1072E00080BDC046D95B020080B500AF024B984715
:1072F000C046BD4680BDC0462D5C020080B582B050
:1073000000AF0200FB1D1A70074AFB1D1B78190015
:107310001F230B40012199400B0019008023D150FD
:10732000C046BD4602B080BD00E100E080B584B03B
:1073300000AF78607B681B68FB60FB68DB69072235
:1073400013405A1E9341DBB21800BD4604B080BD05
:1073500080B582B000AF7860C0467B681800044BEF
:107360009847031EF9D1C046BD4602B080BDC04655
:107370002D73010080B584B000AF78607B681B6816
:10738000FB607B681B6818000D4B984703001800D2
:107390000C4B98477B6818000B4B9847FB6883227F
:1073A0001A75FB6883221A76FB681B6802229343D6
:1073B0001A00FB681A60C046BD4604B080BDC046D6
:1073C000AD700200FD72010051730100F0B597B07D
:1073D00000AF786139610023FB6300233B65002324
:1073E000FB643B2310229446BC44634400221A7081
:1073F0007B691B68BB637B691B687B63232310224B
:10740000BA18D4187B6B1800C04B98470300237040
:107410000C2310229446BC4463441800BC4B98478C
:107420003B69DB697B643B691B6A3B647B6C002BBB
:1074300006D17B6B00211800B64B984703007B6494
:107440007B6CDAB20C2310218C46BC4463441A7066
:107450000C2310229446BC44634402225A707B6C75
:107460001B0CDBB20C2210218C46BC446244110080
:107470001800A94B98473B6C002B06D17B6B012170
:107480001800A44B984703003B643B6CDAB20C2312
:1074900010218C46BC4463441A700C23102294467D
:1074A000BC44634402225A703B6C1B0CDBB20C22BE
:1074B00010218C46BC44624411001800964B98473A
:1074C0003B699A8A7B69DA803B69DA8A7B691A812F
:1074D0003B691B7E002B03D1904B9847031E02D0C3
:1074E00080237B6501E000237B653B691B69002BE2
:1074F00004D03B691B697A6D13437B653B699B68CC
:107500007A6D13437B653B6924229B5C002B04D07E
:107510007B6D8022D20513437B653B699B6A002B00
:1075200004D03B699B6A7A6D13437B653B692C22CF
:107530009B5C002B05D13B699A6880239B049A428F
:1075400004D17B6D8022120513437B653B692D229C
:107550009B5C002B04D07B6D8022120413437B655F
:107560003B692E229B5C002B04D07B6D8022D203D2
:1075700013437B65BB6B1A687B6D1A43BB6B1A6048
:10758000BB6B802252005A60232310229446BC44D5
:1075900063441B781433DBB21800614B9847030037
:1075A000FB623B691B68FA2292005343BB623B6952
:1075B0005B68FA22920053437B623B691B8E3B62FD
:1075C000584BF86A984705000E00564BB86A984722
:1075D000B860F960534BF86A9847534C534A544B80
:1075E000A04703000C003B607C604E4B386A984714
:1075F00002000B004C4C38687968A04703000C006F
:10760000180021004B4C00224B4BA04703000C00FC
:107610001A002300444CB868F968A04703000C0026
:107620001A002300454C28003100A04703000C003D
:107630001D002600BB6A5A003A4B10009847020012
:107640000B003C4C28003100A04703000C00180040
:1076500021003A4C00223A4BA04703000C001D00C9
:107660002600BB6A5A002F4B1000984702000B00FF
:10767000344C28003100A04703000C001900220000
:10768000314B0800110098470300FB633B699A687F
:1076900080239B049A426AD1224BF86A9847254C72
:1076A00002000B00A04703000C001D0026001D4B2C
:1076B000786A98471C4C0022244BA04703000C001A
:1076C0001A0023001F4C28003100A04703000C00C3
:1076D00018002100194C0022194BA04703000C0090
:1076E00019002200184B0800110098470300FB64A2
:1076F000FB6C002B2ED0164B796AF86A9847030072
:107700009A1EFB6CD31A3B6531E0C046DD6F020068
:107710008D720100216E0200CD9B0200B572010046
:10772000919902002D4203009936030095D626E870
:107730000B2E113E112A030000002440993B030048
:107740000000F03F31300300C54103000000084055
:10775000B12303007B6A5A00FB6AD3185A1E7B6A66
:1077600059001D4B100098470300013B3B65FB6B24
:10777000FF2B08DCFB6B002B05DB3B6DFF2B02DCDA
:107780003B6D002B06DA3B2310229446BC44634435
:1077900040221A703B2310229446BC4463441B7859
:1077A000402B0ED0FB6BFF221A403B6D1B041900CF
:1077B000FF231B040B401343FA6C12061A43BB6BE6
:1077C000DA603B2310229446BC4463441B781800C3
:1077D000BD4617B0F0BDC046B123030090B58BB0D5
:1077E00000AFF860B9607A60FB68BA681A60FB683D
:1077F0001B687B62FB681B6818003B4B98470300C3
:107800003B623B6A0233FB613B6A1433BB6101227A
:10781000FB699A40130019000220344B9847142347
:10782000FB181800324B98477B681A7B1423FB180F
:107830001A70BB69DBB21422BA18110018002D4B64
:107840009847BB69DBB218002B4B98477B681B7BC2
:1078500000211800294B98477B6A1B6802221340BD
:1078600001D01C233BE07B6A1B680122134001D03E
:10787000052334E0FB681B681722BC1818001A4B5C
:107880009847030023701E4A1723FB181B7811002A
:1078900018001C4B98471723FB181A781A4B9200B4
:1078A000F968D150FB6800221A76FB6800225A76EC
:1078B000FB6800225A83FB6800229A83FB6825221A
:1078C00000219954FB6800221A627B6A14221A6014
:1078D0007A68FB68110018000C4B984703001800E9
:1078E000BD460BB090BDC046DD6F02003172010095
:1078F000197201006D980200B1980200956D0200A6
:10790000CD2B01004170020084570020CD7301008F
:1079100080B584B000AF78607B681B68FB607B68D3
:1079200018000F4B98477B6818000E4B98470E4B7A
:1079300098477B681B6818000C4B98470300180099
:107940000B4B98470B4B98477B681800044B9847A4
:10795000FB6801221A60C046BD4604B080BDC04627
:107960005173010075730100D5720100AD70020002
:10797000E9990200E972010080B584B000AF786037
:107980007B681B68FB60FB681B7EDBB21A0002236E
:1079900013400BD0FB6802221A76FB685B8B9BB20C
:1079A0001A000223134011D0412310E0FB685B8BC7
:1079B0009BB21A000423134008D0FB685B68C02206
:1079C00092021A43FB685A60182300E00023180053
:1079D000BD4604B080BD80B584B000AF78607B68E0
:1079E0001B68BB600E23FB1800221A800FE00E23D9
:1079F000FB180E22BA18128801321A807B681B8984
:107A00000E22BA1812889A4201D312230EE0BB68E4
:107A10001B7EDBB21A000123134006D1BB681B7E1C
:107A2000DBB21A0002231340E1D000231800BD4648
:107A300004B080BD90B585B000AF78600A00FB1C33
:107A40001A707B681B68FB60FB685B688022D2024F
:107A50001A43FB685A60FB1C1A78FB685A620B23B6
:107A6000FC187B681800074B984703002370FB68DD
:107A700001221A760B23FB181B781800BD4605B0AF
:107A800090BDC046D779010080B500AF0020024B01
:107A90009847C046BD4680BDC57A010080B500AF9D
:107AA0000120024B9847C046BD4680BDC57A010003
:107AB00080B500AF0220024B9847C046BD4680BD4E
:107AC000C57A010080B584B000AF0200FB1D1A70BA
:107AD000FB1D1A78284B9200D358FB60FB681B688B
