:020000021000EC
:10200000207800202DAB020025AC020025AC020098
:1020100000000000000000000000000000000000C0
:1020200000000000000000000000000081A001008E
:102030000000000000000000A1A10100E9A10100D2
:1020400025AC020025AC020025AC02007D6C02002C
:10205000A961020025AC02006124010025AC020048
:10206000A52501002173020039730200517302009B
:1020700069730200817302009973020075AA02005D
:1020800089AA02009DAA0200BD7C0100D17C01004A
:10209000E57C01000000000000000000E9220100D2
:1020A00025AC02002524010025AC020025AC02006D
:1020B0000000000010B5064C2378002B07D1054B1B
:1020C000002B02D0044800E000BF0123237010BDA4
:1020D000B002002000000000DC9D0300084B10B59A
:1020E000002B03D00749084800E000BF07480368F9
:1020F000002B00D110BD064B002BFBD09847F9E711
:1021000000000000B4020020DC9D0300DC9D030001
:102110000000000080B584B000AF78607B681B6869
:10212000FB60FB685B7EDBB25BB2002B01DA012354
:1021300000E000231800BD4604B080BD80B584B027
:1021400000AF78607B681B68FB60C0467B68180046
:102150000B4B9847031EF9D1FB681B7BDBB20222B5
:102160001343DAB2FB681A73C0467B681800044B4D
:102170009847031EF9D1C046BD4604B080BDC04695
:102180001521010080B584B000AF78600A00FB1C07
:102190001A707B681B68FB60FB68FA1C12789A75E2
:1021A000C046BD4604B080BD80B584B000AF02001B
:1021B000FB1D1A70FB1D1A78474B9200D358FB6029
:1021C000FB681B681B7EDAB2FB681B68DB7DDBB239
:1021D0001340DBB2BB60BB680122134045D0FB68F3
:1021E0001B6801221A76C046FB6818003B4B9847D3
:1021F000031EF9D1FB685B69991CFA685161FA68A2
:102200001268528B92B21A80FB681B8B9BB2013B07
:102210009BB2FA68191C1183002B08D0FB685B7F06
:10222000002B22D0FB6818002D4B98471DE0FB685F
:10223000012118002B4B9847FB681B7FDBB2052B55
:1022400013D1FB6800221A77FB68DB7E1A0001239A
:1022500013400AD0FB689B7E1A000123134004D070
:10226000FB689B68FA6810009847BB68042213401B
:1022700014D0FB681B6804221A76FB68DB7E1A0008
:10228000022313400AD0FB689B7E1A0002231340EE
:1022900004D0FB68DB68FA6810009847BB6802222C
:1022A000134014D0FB681B6802221A76FB68DB7EA1
:1022B0001A00042313400AD0FB689B7E1A000423F3
:1022C000134004D0FB681B69FA6810009847C046A9
:1022D000BD4604B080BDC0461C430020152101004E
:1022E0003D2101008521010080B500AF0020024B97
:1022F0009847C046BD4680BDA921010080B582B087
:1023000000AF0200FB1D1A70074AFB1D1B78190065
:102310001F230B40012199400B0019008023D1504D
:10232000C046BD4602B080BD00E100E080B584B08B
:1023300000AF0200FB1D1A70FB1D1A78374B92008C
:10234000D358FB60FB681B68BB60BB689B79DBB242
:102350001A00012313400ED0BB6801229A71FB685A
:102360001433002B07D0FB685B7C002B03D0FB6889
:102370009B6900209847BB689B79DBB21A00022357
:10238000134047D0BB6802229A71FB689B899BB2BD
:10239000002B33D0FB689A68FB68DB899BB2591C21
:1023A00088B2F968C8815B00D3181B889AB2BB68F1
:1023B0009A81FB689B899BB2013B9AB2FB689A8128
:1023C000FB689B899BB2002B18D1FB68202200215F
:1023D0009954BB6802221A71BB6802229A711920B3
:1023E0000F4B9847FB681433002B07D0FB689B7C8E
:1023F000002B03D0FB68DB6900209847FB6814338F
:10240000002B07D0FB681B7C002B03D0FB685B69AB
:1024100000209847C046BD4604B080BD2043002040
:10242000FD22010080B500AF0020024B9847C04656
:10243000BD4680BD2D23010080B500AF024B9847FB
:10244000C046BD4680BDC046095E020080B500AFF3
:10245000024B9847C046BD4680BDC0465D5E020047
:1024600080B586B000AF494B9847494B1B8C9BB257
:10247000DAB21723FB180F210A401A701723FB1832
:102480001A78444B9200D3583B61414A3B691B7810
:102490000F210B40D9B23F23D1543D490F23FB18E4
:1024A0004E228A5C1A703B691B783B4A1B01D31889
:1024B00002331B889BB2BB603B691B78374A1B0108
:1024C000D31802331B889BB27B60BA687B68D21A30
:1024D0003B695A610F23FB181B780122134016D069
:1024E0002B4A4E230121D1543B6910225A743B6977
:1024F0001B7C1A000123134042D03B695B68002B10
:102500003ED03B695B683A691000984738E00F237A
:10251000FB181B780222134016D01D4A4E230221BD
:10252000D1543B6900225A743B691B7C1A00022378
:10253000134025D03B699B68002B21D03B699B68E9
:102540003A69100098471BE00F23FB181B78042200
:10255000134015D00E4A4E230421D1543B69062264
:102560005A743B691B7C1A000423134008D03B6952
:10257000DB68002B04D03B69DB683A6910009847A0
:10258000074B9847C046BD4606B080BD39240100C0
:10259000004800412003002030430020D0020020EA
:1025A0004D24010080B582B000AF154B1B697B60E4
:1025B000144B9B693B60124B9A683B681A43104B63
:1025C0009A60104B104A9A6108E07B685A687B68F1
:1025D0001B68180090477B689B687B607B68002BBA
:1025E000F3D1074BDB683B60054B9B683A68D243ED
:1025F0001A40034B9A60C046BD4602B080BDC0463B
:102600000000002000040042FFFF0F0F80B582B0E1
:1026100000AF02003960FB1D1A70FB1D1B78012BF7
:102620000AD0022B0FD0002B14D10E4B0D4A91690A
:102630003A680A439A610FE00A4B0A4AD1693A683C
:102640000A43DA6108E0074B064A116A3A680A430E
:102650001A6201E0172300E000231800BD4602B013
:1026600080BDC0460004004080B500AF02210220BA
:10267000074B9847074B01221A70C046054B1B7841
:10268000DBB21A0001231340F8D1C046BD4680BD1D
:102690000D2601000004004280B584B000AF7860D0
:1026A0007B681B68FB60FB68DB69072213405A1ECE
:1026B0009341DBB21800BD4604B080BD80B582B046
:1026C00000AF7860C0467B681800044B9847031E33
:1026D000F9D1C046BD4602B080BDC0469926010072
:1026E00080B584B000AF78607B681B68FB60FB68D6
:1026F0001B681B01DB0FDBB21A000B23FB18511EFA
:102700008A411A700823FB187A68528B1A807B68FA
:102710009B8B9AB20823FB180821791809888A1A1A
:102720001A807B689B8B9BB2013B9AB27B689A8331
:102730000B23FB181B78002B10D07B68DB7A002B57
:102740001CD07B689B8B9BB2012B17D1FB685B680D
:102750008022D2021A43FB685A600FE07B68DB7A62
:10276000002B0BD07B689B8B9BB2002B06D1FB68A8
:102770005B688022D2021A43FB685A607B689B8B9D
:102780009BB2002B0ED17B689B7A002B0AD07B6812
:1027900018000E4B9847FB685B68C02292021A43F0
:1027A000FB685A607B681800084B98477B681A6A78
:1027B0000823FB181B88D318FA682821525CD2B270
:1027C0001A70C046BD4604B080BDC046BD2601009B
:1027D00080B584B000AF78607B681B68FB60FB68E5
:1027E0005B8B9BB21A000423134004D07B68252224
:1027F0001E21995424E00A23FB187A68528B1A8010
:102800007B689B8B9AB20A23FB180A2179180988E6
:102810008A1A1A807B689B8B9BB2013B9AB27B68B9
:102820009A837B681800084B98477B681A6A0A23CA
:10283000FB181B88D3181B78D9B2FB68282299543F
:10284000BD4604B080BDC046BD26010080B584B041
:1028500000AF78607B681B68FB60FB681B7EDBB2A7
:102860001A00012313402BD0FB6801221A76FB6863
:102870005B8B9BB21A000223134004D07B68252295
:10288000412199541CE0FB685B8B9BB21A00042326
:10289000134015D07B682522182199547B680022AB
:1028A0009A837B689B7A002B0AD07B681800134BB5
:1028B0009847FB685B68C02292021A43FB685A6023
:1028C0007B689B8B9AB27B685A837B6825229B5CD2
:1028D000DBB2052B0ED17B6824229B5CDBB2002B84
:1028E00004D17B681800064B984703E07B6818000A
:1028F000044B9847C046BD4604B080BDBD260100CC
:10290000D1270100E126010080B584B000AFF86056
:10291000B960FB1D1A70FB1D1B78FA6802339B001F
:10292000D3180433BA681A60FB681B7EDBB25AB254
:10293000FB1D1B78012199400B005BB213435BB276
:10294000DAB2FB681A76C046BD4604B080BD00000E
:1029500090B587B000AF786039607B681B683B61D9
:102960003B685A687B681A623B685A887B689A831E
:102970007B682422012199547B68252205219954E2
:102980003B691B681B01DB0FDBB21A000F23FB182E
:10299000511E8A411A703B685B7A002B06D03B6857
:1029A0009A7A7B68110018003B4B98470F23FB185D
:1029B0001B78002B0BD03B685B88012B07D13B6950
:1029C0005B688022D2021A433B695A6005E03B698A
:1029D0005B68324A1A403B695A603B681B7A002B9D
:1029E00045D03B681B885A003B685B7A9B031343C6
:1029F0001A0080231B021A433B695A621723FC18F2
:102A00007B681800264B9847030023703B695B687E
:102A1000224A1A403B695A601723FB181B78002B87
:102A200007D11723FC187B6818001E4B984703003A
:102A300023701723FB181B78002B14D13B6903224A
:102A40009A753B681B881B0A9BB2782213439BB282
:102A50005A003B685B7A9B031343012213431A001D
:102A60003B695A6212E01723FB181B780FE03B69A1
:102A700003229A753B681B885B0001221A433B685E
:102A80005B7A9B0313431A003B695A6200231800C8
:102A9000BD4607B090BDC046697C0100FFFFFBFF4B
:102AA0000B7C0100AD7B010080B582B000AF786087
:102AB00039607B689B8B9BB2002B01D005230CE017
:102AC0007B6801229A727B680122DA723A687B681D
:102AD00011001800034B984703001800BD4602B0D0
:102AE00080BDC0465129010080B584B000AF786038
:102AF00039607B681B68FB603B685B7A002B06D003
:102B00003B689A7A7B68110018001E4B9847FB6857
:102B10005B681D4A1A40FB685A603B685A687B68CC
:102B20001A623B685A887B689A837B68242200215A
:102B300099547B68252205219954FB6803229A75D4
:102B40003B681B7A002B0DD03B681B885A003B6802
:102B50005B7A9B0313431A0080231B021A43FB6812
:102B60005A6209E03B681B885A003B685B7A9B030A
:102B700013431A00FB685A6200231800BD4604B0D4
:102B800080BDC046697C0100FFFFFBFF80B582B0BD
:102B900000AF786039607B689B8B9BB2002B01D0C3
:102BA00005230CE07B6801229A727B680122DA72AD
:102BB0003A687B6811001800034B9847030018001F
:102BC000BD4602B080BDC046E92A010080B586B08E
:102BD00000AF0200FB1D1A70FB1D1A78934B920088
:102BE000D3587B617B691B683B613B691B681B0198
:102BF000DB0FDBB21A000F23FB18511E8A411A703B
:102C00000E23FB187A69527E1A707B691B7EDAB23A
:102C10000E23FB180E21791809780A401A707B6977
:102C20005B8B9BB2002B09D17B699B8B9BB2002BEA
:102C300004D07B6918007E4B984770E07B695B8B02
:102C40009BB2002B39D07B699B8B9BB2002B34D17C
:102C50007B6925229B5CDBB2052B2ED17B6924226C
:102C60009B5CDBB2002B28D13B6903221A757B6980
:102C700000225A837B692522002199547B699B7A23
:102C8000002B0BD07B6918006A4B98473B695B6847
:102C9000C02292021A433B695A6002E03B6901225A
:102CA0001A760E23FB181B780122134037D07B695C
:102CB000DB687A691000984731E07B695B8B9BB2D7
:102CC000002B2CD07B699B8B9BB2002B27D03B69C0
:102CD0005B8B9BB21A002023134011D10F23FB18EA
:102CE0001B7801225340DBB2002B04D17B699B8B04
:102CF0009BB2012B04D07B692522412199540EE01F
:102D00007B6924229B5CDBB2002B04D17B69180019
:102D1000494B984703E07B691800484B98477B690B
:102D20005B8B9BB2002B47D07B699B8B9BB2002BAC
:102D300042D17B6925229B5CDBB2052B3CD17B69B0
:102D400024229B5CDBB2012B36D13B691B7EDBB2BC
:102D50001A000223134002D03B6902221A763B6913
:102D600003221A757B6900225A837B692522002180
:102D700099540E23FB181B78022213400BD07B6959
:102D800024229B5CDBB2012B05D17B691B697A692C
:102D90001000984710E00E23FB181B780122134007
:102DA0000AD07B6924229B5CDBB2002B04D17B69B7
:102DB000DB687A69100098477B6925229B5CDBB24F
:102DC000052B2ED07B6925229B5CDBB2002B28D003
:102DD0003B6903221A757B6900225A837B690022B2
:102DE0009A837B6925229B5CDBB2412B0ED07B69E9
:102DF0009B7A002B0AD07B6918000E4B98473B69E1
:102E00005B68E022D2021A433B695A600E23FB182A
:102E10001B780422134004D07B695B697A69100037
:102E20009847C046BD4606B080BDC04694570020B6
:102E30004D280100BD260100D1270100E126010037
:102E400080B500AFBFF34F8F024B034ADA60BFF388
:102E50004F8FFEE700ED00E00400FA0580B500AFFB
:102E6000024B9847C046BD4680BDC046412E01007A
:102E700080B586B000AF78609A4B18009A4B98479F
:102E80009A4B1800984B9847994B1800964B9847C7
:102E9000984B1800944B9847974B1800924B9847C3
:102EA000964B1800904B9847954B18008E4B9847BF
:102EB0001723FB1800221A70924B1800924B984768
:102EC000032200210120914B98470200904B1A6089
:102ED0008F4B1B68002B07D18E4B190003208E4BA4
:102EE000984700208D4B98470C23FB1818008C4BFB
:102EF00098470C23FB181B780A2B04D00C23FB18D3
:102F00001B780D2B37D1874B18007F4B9847864B8A
:102F100000221A70854B00221A708549854B312298
:102F20001800854B9847834B3122002199548349DF
:102F30007F4B64221800824B984703003B617F4B14
:102F40006322002199547D4B18006F4B98473B69D1
:102F5000002BECD11723FB1800221A70744B32227D
:102F600000211800774B9847744B64220021180009
:102F7000744B9847B5E06C4B1B78002B59D06B4BCA
:102F80001B78032B0CD8694B1B785A1CD1B2674AAB
:102F900011701A000C23FB1819786B4B995405E03B
:102FA000614B00221A70614B00221A705F4B1B7834
:102FB000012B99D9654A644B11001800644B98475E
:102FC000031E2FD063495A4B1B221800624B9847AF
:102FD000574B18004C4B98471723FB1800221A70C8
:102FE000534B322200211800564B98475149504B01
:102FF00031221800504B98474D4B1800574B9847BB
:103000000300302B06D84B4B1800544B9847030055
:10301000DAB200E031221723FB181A70444B180073
:10302000394B9847404B00221A70404B00221A70CF
:103030005AE70C23FB181B780D2B00D154E70C2307
:10304000FB181B78082B04D00C23FB181B787F2B54
:103050001CD10823FB18424A12681A600823FB1887
:103060001800294B98471723FB181B78002B37D0E3
:103070001723FB181A781723FB18013A1A70172325
:10308000FB181B782A4A0021D15429E00C23FB1895
:103090001B781B2B06D1244B01221A70234B0022D4
:1030A0001A7021E71723FB181B78312B0ED8172332
:1030B000FB181B780C22BA1811781D4AD15417231B
:1030C000FB181A781723FB1801321A700C23FB180F
:1030D00000225A700C23FB1818000B4B984703E78B
:1030E000C04601E7D45C0300B17D0100C45C03006D
:1030F000045D0300245D0300E45C0300F45C030052
:10310000145D0300A059030085DD010025A4010022
:1031100080430020245B030071DE010011C2010026
:1031200065310100445B0300440300204503002097
:103130007C03002048030020AB490300B0030020BB
:10314000217E0100DF45030014040020485B0300DA
:10315000E14803004C5B03009D4803007B490300EA
:10316000545B030080B584B000AF78607B681800C2
:103170000C4B98470300FB600DE00B4B1A680123D2
:103180005B4219001000094B98477B681800054BFB
:1031900098470300FB60FB680133EED0C046BD4694
:1031A00004B080BD21DE010080430020DDB30100BA
:1031B00080B500AF0A4B00221A600A4B1B68084A10
:1031C00011001800084B9847054B1B68002B03D0D3
:1031D000064B802252051A60C046BD4680BDC046DF
:1031E000180400208043002055AD010004ED00E0EC
:1031F000B0B58AB002AFF860B9607A60444B9847C6
:103200000300FB611B23FA18FB6911001800414BF6
:1032100098471B23FB181B78002B5FD03E4B0622E0
:10322000002118003D4B98473B4AFB6911001800EC
:103230003B4B9847384B00229B5E1800394B984710
:10324000021C394B1A60344B02229B5E1800354B2E
:103250009847021C344B5A602F4B04229B5E180087
:10326000304B9847021C304B9A602F4B1A682F4BFB
:10327000101C984705002C4B5A682C4B101C984783
:103280000400294B9A68294B101C98470300284AD0
:10329000B968F868019300942B00264CA047224B94
:1032A0001A68224B101C984703001AB21423FB180B
:1032B0001A801D4B5A681D4B101C984703001AB208
:1032C0001423FB185A80184B9A68184B101C984707
:1032D00003001AB21423FB189A8014E0164AB96846
:1032E000FB681800134B98471423FB180122524225
:1032F0001A801423FB18022252425A801423FB180E
:10330000032252429A8000231800BD4608B0B0BD87
:10331000C94E0100C54801001C040020DF45030020
:10332000014901005541010024040020852B0300C0
:10333000585B0300394803007C5B030090B587B0FD
:1033400002AFF860B9607A60124B1800124B9847D0
:1033500003001A0001235340DBB2002B07D00F4AB1
:10336000B968FB6818000E4B984700230EE0094B24
:1033700000229B5E1C00074B02229B5E094AB96833
:10338000F86800932300064CA04700231800BD46B0
:1033900005B090BD30040020C5550100A45B0300BA
:1033A00039480300B45B030090B587B000AFF86004
:1033B000B9607A601723FB181B221A701723FB18B9
:1033C0001B78084A08480F21084CA047064AB968EC
:1033D000FB681800054B984700231800BD4607B04E
:1033E00090BDC046D45B030034030020394803007D
:1033F00080B584B000AFF860B9607A600220034BFA
:10340000984700231800BD4604B080BD1974010020
:1034100080B584B000AFF860B9607A60034B98471C
:1034200000231800BD4604B080BDC0465D2E0100DB
:1034300090B597B002AFF860B9607A602423FA18AB
:103440007B68012118006A4B98470300BB64202366
:10345000FA187B6802211800654B984703007B64CB
:103460001C23FA187B6803211800614B984703005E
:103470003B641823FA187B68042118005C4B9847BA
:103480000300FB631423FA187B6805211800584BCE
:1034900098470300BB637B6A1A00BB6C9B18002231
:1034A0001A703B6A1A007B6C9B1800221A70FB6929
:1034B0001A003B6C9B1800221A70BB691A00FB6B48
:1034C0009B1800221A707B691A00BB6B9B180022A4
:1034D0001A70BB6C1800474B98470300FB647B6C69
:1034E0001800444B984703007B633B6C1800414B2A
:1034F000984703003B63FB6B18003E4B9847030063
:10350000FB62BB6B18003B4B98470300BB62FB6C34
:10351000012B02D12E23FB6407E0FB6C022B02D1AE
:103520002F23FB6401E000235DE07B6B002B02DBBB
:103530007B6B0F2B07DD304AB968FB6818002F4BF7
:10354000984700234FE03B6B002B02DB3B6BFF2BCC
:1035500007DD2B4AB968FB681800284B9847002301
:1035600041E0FB6A002B02DBFB6AFF2B07DD254AEB
:10357000B968FB681800214B9847002333E0BB6A09
:10358000002B02DBBB6AFF2B07DD1F4AB968FB6813
:1035900018001A4B9847002325E0FB6CD8B27B6BD0
:1035A000D9B23B6BDAB2FB6ADCB2BB6ADBB2009326
:1035B0002300164CA047031E07D0154AB968FB68C4
:1035C00018000E4B984700230DE0FB6CDBB218008F
:1035D000104B9847031E05D00D4AB968FB681800C8
:1035E000064B984700231800BD4615B090BDC04655
:1035F000497F01002D450300DC5B030039480300CF
:10360000005C0300205C0300445C0300B552010031
:10361000685C03008553010090B58FB000AFF8607F
:10362000B9607A601823FB1800221A701823FB185F
:1036300000225A701823FB1800221A701823FB1856
:1036400000225A701C23FB1800221A701C23FB183E
:103650001422BA189A601C23FB180122DA811C2359
:10366000FB181822BA185A601C23FB1801229A81F1
:103670002A4B18002A4B984700237B6342E07B6B60
:10368000284A29480F21294CA047274B1800244BD2
:10369000984700233B632BE07B6BDAB23B6BDBB2DA
:1036A000D318DAB21C23FB181A701C23FB186422EF
:1036B000642118001E4B98470300FB62FB6A002B35
:1036C0000CD11C23FB181B781A4A17480F21174CE2
:1036D000A047154B1800124B984706E0124B164AAC
:1036E0001A60114B18000E4B98473B6B01333B633C
:1036F0003B6B0F2BD0DD114B1800094B98477B6BB0
:1037000010337B637B6B7F2BB9DD0C4B1800044BB4
:10371000984700231800BD460FB090BD805C0300A1
:1037200085DD0100B45C0300340300203948030048
:10373000FD3F0100BC5C030058202000445B0300F7
:1037400080B582B000AF78600B4B18000B4B9847E8
:103750000B4B00221A700A4B1B78002B05D0012B53
:1037600005D0074B00221A7002E0C04600E0C046B8
:103770002820044B9847EEE7345D030085DD010007
:103780008443002031C1010090B585B002AF78605C
:103790000A00FB1C1A70FB1C1A787968134B18007E
:1037A000134B9847134BFA1C12781A70124B0022D5
:1037B0001A70124B01221A700C4B1B781A000B4B1B
:1037C0005B781800094B9B780D490093030001209A
:1037D0000C4CA047074B1A78044B110018000A4BF9
:1037E0009847C046BD4603B090BDC0468843002000
:1037F000A9450300854300203404002084430020B1
:10380000545D030071DE0100455B010080B582B0AC
:1038100000AF0200FB1D1A70064BFA1D1278110052
:103820001F220A40012191400A001A60C046BD468D
:1038300002B080BD00E100E080B584B000AF7860E8
:103840007B681B68FB60FB68DB69072213405A1E1C
:103850009341DBB21800BD4604B080BD80B582B094
:1038600000AF7860C0467B681800044B9847031E81
:10387000F9D1C046BD4602B080BDC046393801000E
:1038800080B582B000AF78607B6864221A607B6884
:103890001B4A5A607B6800229A607B6800221A7378
:1038A0007B6800221A767B68802292031A617B680B
:1038B00001225242DA827B68012252429A827B685C
:1038C0000022DA617B6800221A627B6824220021D0
:1038D00099547B6800229A627B682C2200219954BB
:1038E0007B682D22002199547B682E220021995457
:1038F0007B68D7221A86C046BD4602B080BDC0464E
:10390000480D000080B584B000AF78607B681B680C
:10391000BB600023FB607B681800144B9847BB68B2
:103920001B6802221A43BB681A607B681B68180078
:103930000F4B9847030018000E4B98470CE0FB68AC
:103940000133FB607B68DB881A00FB689A4203D86E
:10395000BB6810225A8306E0BB685B8B9BB21A00DF
:1039600010231340EBD0BD4604B080BD5D3801008C
:10397000DD7202000D38010080B582B000AF7860C2
:103980000A00FB1C1A707B685B7EDBB25AB2FB1C20
:103990001B78012199400B005BB213435BB2DAB292
:1039A0007B685A76C046BD4602B080BD90B591B0E6
:1039B00000AF0023FB633A23FB1800221A703B1D63
:1039C0001800214B98473B1D204ADA613B1D204AD5
:1039D0001A623B1DFA229200DA823B23FB18032273
:1039E0001A701EE03A23FC183A1D1A491A4B1800A7
:1039F0001A4B9847030023703A23FB181B78002BBF
:103A000004D13A23FB181B78FB630FE0124B18001C
:103A1000134B98473B23FB181A783B23FB18013ABA
:103A20001A703B23FB181B78002BDBD1FB6B002BA0
:103A300004D1094B18000B4B984700E0C046FB6BC4
:103A40001800BD4611B090BD813801000200080089
:103A5000020009000008004294430020117A01008E
:103A6000457B01000539010080B584B000AF786066
:103A70000E4B00221A700D4B01229A600023FB604E
:103A80000B4B1B680C22BA1811001800094B984701
:103A9000094B00221A70FB68002B03D0074B8022D1
:103AA00052051A60C046BD4604B080BD38040020EF
:103AB000BC43002055AD01003504002004ED00E0BA
:103AC00080B584B000AF78600E4B00221A700D4BA9
:103AD00001229A600023FB600B4B1B680C22BA1872
:103AE00011001800094B9847094B00221A70FB6817
:103AF000002B03D0074B802252051A60C046BD46FA
:103B000004B080BD38040020BC43002055AD010046
:103B10003504002004ED00E080B584B000AF78608B
:103B20000E4B00221A700D4B01225A600023FB60DD
:103B30000B4B1B680C22BA1811001800094B984750
:103B4000094B01221A70FB68002B03D0074B80221F
:103B500052051A60C046BD4604B080BD380400203E
:103B6000BC43002055AD01003504002004ED00E009
:103B700080B500AF1149124B00221800114B984735
:103B80000F4B00211800104B984710490C4B012295
:103B900018000C4B98470A4B012118000A4B984714
:103BA0000B49074B02221800064B9847044B022191
:103BB0001800054B9847C046BD4680BD693A0100D4
:103BC000944300200929010079390100C13A01001C
:103BD000193B010080B582B000AF00237B60144B1D
:103BE000984703007B607B68002B1AD1114B9847E4
:103BF0000120114B98470200104B1A60032200214C
:103C000001200F4B984702000E4B1A600B4B1B68AC
:103C1000002B03D00B4B1B68002B03D106237B60CA
:103C200000E0C0467B681800BD4602B080BDC046BB
:103C3000AD390100713B01008DA6010090430020C9
:103C400025A40100BC43002090B585B000AF78608A
:103C50000023FB607B68002B03D07B685B68002B34
:103C600003D108235B42FB601FE07B681B789AB29C
:103C7000104B1A807B685A680E4B5A607B68DA8951
:103C80000C4B5A800B23FC180A4A0B4B11001800EE
:103C90000A4B9847030023700B23FB181B78002B5B
:103CA00003D006235B42FB60C046FB681800BD469C
:103CB00005B090BDC0430020944300208D2B01002F
:103CC00090B585B000AF78600023FB607B68002B67
:103CD00003D07B689B68002B03D108235B42FB6009
:103CE0001FE07B681B789AB2104B1A807B689A6839
:103CF0000E4B5A607B689A890C4B5A800B23FC1838
:103D00000A4A0B4B110018000A4B98470300237016
:103D10000B23FB181B78002B03D006235B42FB60B0
:103D2000C046FB681800BD4605B090BDC0430020EA
:103D300094430020A92A010090B583B000AF00236E
:103D40007B60094B1868002300220021074CA04724
:103D50000300012B02D014235B427B607B681800B8
:103D6000BD4603B090BDC04690430020CDA60100E3
:103D700080B584B000AF78600023FB60084B1B68FF
:103D80007A6811001800074B98470300012B02D0F6
:103D90001D235B42FB60FB681800BD4604B080BD7C
:103DA00090430020DDB3010080B584B000AF78609F
:103DB0000023FB60044B1A687B681A60FB681800DC
:103DC000BD4604B080BDC046BC43002080B500AFF6
:103DD000024B1B781800BD4680BDC046350400204C
:103DE00080B582B000AF0200FB1D1A70034BFA1DB4
:103DF00012781A70C046BD4602B080BD350400205E
:103E000080B584B000AF786039600023FB60002388
:103E1000BB6096235B001800284B98470300FB60AB
:103E2000FB68002B38D10823FB181800244B984757
:103E30000300FB60FB68002B30D17B681800214B2E
:103E400098470300FB60FB68002B2AD1BB683A68E7
:103E5000110018001C4B98470300012B11D11B4B7C
:103E60009847031E11D00020194B9847FB68002B80
:103E700003D021235B42FB6014E003235B42FB6021
:103E800010E003235B42FB600CE0124B98470200FA
:103E9000FB681343FB6002E0C04600E0C046FB68DD
:103EA00007E0C0460B4B98470200FB681343FB60DA
:103EB000FB681800BD4604B080BDC046713D0100DE
:103EC000A93D0100493C0100DDB30100CD3D0100E9
:103ED000E13D0100393D010080B586B000AFF860DA
:103EE000B9607A6000237B6100233B6196235B000D
:103EF0001800394B984703007B617B69002B5CD12C
:103F00001023FB181800354B984703007B617B6931
:103F1000002B54D1FB685B68002B24D0FB68DB8945
:103F2000002B20D0FB6818002D4B984703007B61C5
:103F30007B69002B46D13B697A6811001800294B38
:103F400098470300012B0AD1274B9847031E0AD03C
:103F50000020264B984703235B427B6135E0032317
:103F60005B427B6131E0BB681800214B9847FB68DE
:103F70001800204B984703007B617B69002B23D1FD
:103F80003B697A6811001800164B98470300012B13
:103F90000AD1154B9847031E0AD00020134B9847AF
:103FA00003235B427B6110E003235B427B610CE0F7
:103FB000114B984703007B6102E0C04600E0C04619
:103FC0007B6905E0C04600E0C0460B4B98477B6923
:103FD0001800BD4606B080BD713D0100A93D01003D
:103FE000493C0100DDB30100CD3D0100E13D010090
:103FF00031C10100C13C0100393D010080B586B0EE
:1040000000AFF860B9607A6000237B6100233B61F8
:1040100096235B001800244B984703007B617B6963
:10402000002B33D11023FB181800204B98470300B6
:104030007B617B69002B2BD1FB6818001C4B9847D8
:1040400003007B617B69002B25D13B697A681100F5
:104050001800184B98470300012B13D1164B9847B3
:10406000031E06D00020154B984703235B427B615B
:1040700012E0BB681800124B9847124B9847030098
:104080007B6106E003235B427B6105E0C04600E004
:10409000C0467B6903E0C0460A4B98477B6918001D
:1040A000BD4606B080BDC046713D0100A93D01007E
:1040B000493C0100DDB30100CD3D0100E13D0100BF
:1040C00031C10100393D0100B0B586B000AFF860E4
:1040D00008007A6019000B23FB18021C1A700823D1
:1040E000FB180A1C1A80FB685C68FB689868082348
:1040F000FB181D887A680B23FB1819782B00A04742
:1041000003007B617B691800BD4606B0B0BDB0B549
:1041100086B000AFF86008007A6019000B23FB1826
:10412000021C1A700823FB180A1C1A80FB681C6802
:10413000FB6898680823FB181D887A680B23FB1816
:1041400019782B00A04703007B617B691800BD46EE
:1041500006B0B0BD80B582B000AF0200BB1D1A80B2
:10416000BB1D00229A5E064B10009847021C054BAF
:104170000549101C9847031C181CBD4602B080BDA1
:10418000C52B03004529030023DB793D90B585B09D
:1041900000AF78600A00FB1C1A700823FA187868D0
:1041A00001231021124CA0470300FB60FB68002B89
:1041B00019D1FB1C1B7803221340DAB20823FB1829
:1041C00003210A4090001A780C218A43111C021C1A
:1041D0000A431A700823FA18786801231021054C45
:1041E000A0470300FB60FB681800BD4605B090BD0A
:1041F000C94001000F41010090B587B000AF786061
:104200000A00FB1C1A701723FB18FA1C12781A708C
:104210000C23FA187B6811001800A44B9847030080
:104220003B613B69002B00D013E10C23FB181B788A
:10423000DB07DB0FDAB20C23FB181B789B07DB0FC5
:10424000DBB21343DAB20C23FB181B785B07DB0FDE
:10425000DBB21343DAB20C23FB181B781B07DB0F0E
:10426000DBB21343DAB20C23FB181B78DB06DB0F3F
:10427000DBB21343DAB20C23FB181B789B06DB0F6F
:10428000DBB21343DAB20C23FB181B785B06DB0F9F
:10429000DBB21343DAB20C23FB181B781B06DB0FCF
:1042A000DBB21343DAB20C23FB185B78DB07DB0FBE
:1042B000DBB21343DAB20C23FB185B789B07DB0FEE
:1042C000DBB21343DAB20C23FB185B785B07DB0F1E
:1042D000DBB21343DAB20C23FB185B781B07DB0F4E
:1042E000DBB21343DAB20C23FB185B78DB06DB0F7F
:1042F000DBB21343DAB20C23FB185B789B06DB0FAF
:10430000DBB21343DAB20C23FB185B785B06DB0FDE
:10431000DBB21343DAB20C23FB185B781B06DB0F0E
:10432000DBB21343DBB2012B00D092E00B23FA186F
:104330007B68110018005E4B984703003B613B69A6
:10434000002B00D085E00B23FB181B78012B17D026
:1043500002DC002B05D076E0022B29D0032B48D0BD
:1043600071E0FB1C1B78002B04D11723FB180122E2
:104370001A706EE01723FB18FA1C12781A7068E0A6
:10438000FB1C1B78002B04D11723FB1802221A7088
:104390005FE0FB1C1B78012B04D11723FB180222C2
:1043A0001A7056E01723FB18FA1C12781A7050E0A6
:1043B000FB1C1B78002B04D11723FB1803221A7057
:1043C00047E0FB1C1B78012B04D11723FB180322A9
:1043D0001A703EE0FB1C1B78022B04D11723FB183C
:1043E00003221A7035E01723FB18FA1C12781A7092
:1043F0002FE0FB1C1B78002B04D11723FB18042291
:104400001A7026E0FB1C1B78012B04D11723FB1824
:1044100004221A701DE0FB1C1B78022B04D1172309
:10442000FB1804221A7014E0FB1C1B78032B04D128
:104430001723FB1804221A700BE01723FB18FA1C31
:1044400012781A7005E01723FB18FA1C12781A70FC
:10445000C0463B69002B08D10823FA18786801236D
:104460001021144CA04703003B613B69002B18D17D
:104470001723FB181B780F221340DAB20823FB180E
:1044800010011A780F210A40111C021C0A431A70ED
:104490000823FA18786801231021074CA04703006D
:1044A0003B613B691800BD4607B090BDD54C01008B
:1044B000294D0100C94001000F41010090B585B0B0
:1044C00000AF78600A00FB1C1A700823FA1878689D
:1044D00001231121124CA0470300FB60FB68002B55
:1044E00019D1FB1C1B7807221340DAB20823FB18F2
:1044F00007210A4090181A780E218A43111C021CC9
:104500000A431A700823FA18786801231121054C10
:10451000A0470300FB60FB681800BD4605B090BDD6
:10452000C94001000F41010090B587B000AF78602D
:104530000A00FB1C1A701723FB18FA1C12781A7059
:104540000C23FA187B6811001800A44B984703004D
:104550003B613B69002B00D013E10C23FB181B7857
:10456000DB07DB0FDAB20C23FB181B789B07DB0F92
:10457000DBB21343DAB20C23FB181B785B07DB0FAB
:10458000DBB21343DAB20C23FB181B781B07DB0FDB
:10459000DBB21343DAB20C23FB181B78DB06DB0F0C
:1045A000DBB21343DAB20C23FB181B789B06DB0F3C
:1045B000DBB21343DAB20C23FB181B785B06DB0F6C
:1045C000DBB21343DAB20C23FB181B781B06DB0F9C
:1045D000DBB21343DAB20C23FB185B78DB07DB0F8B
:1045E000DBB21343DAB20C23FB185B789B07DB0FBB
:1045F000DBB21343DAB20C23FB185B785B07DB0FEB
:10460000DBB21343DAB20C23FB185B781B07DB0F1A
:10461000DBB21343DAB20C23FB185B78DB06DB0F4B
:10462000DBB21343DAB20C23FB185B789B06DB0F7B
:10463000DBB21343DAB20C23FB185B785B06DB0FAB
:10464000DBB21343DAB20C23FB185B781B06DB0FDB
:10465000DBB21343DBB2012B00D092E00B23FA183C
:104660007B68110018005E4B984703003B613B6973
:10467000002B00D085E00B23FB181B78012B17D0F3
:1046800002DC002B05D076E0022B29D0032B48D08A
:1046900071E0FB1C1B78002B04D11723FB180122AF
:1046A0001A706EE01723FB18FA1C12781A7068E073
:1046B000FB1C1B78002B04D11723FB1802221A7055
:1046C0005FE0FB1C1B78012B04D11723FB1802228F
:1046D0001A7056E01723FB18FA1C12781A7050E073
:1046E000FB1C1B78002B04D11723FB1803221A7024
:1046F00047E0FB1C1B78012B04D11723FB18032276
:104700001A703EE0FB1C1B78022B04D11723FB1808
:1047100003221A7035E01723FB18FA1C12781A705E
:104720002FE0FB1C1B78002B04D11723FB1804225D
:104730001A7026E0FB1C1B78012B04D11723FB18F1
:1047400004221A701DE0FB1C1B78022B04D11723D6
:10475000FB1804221A7014E0FB1C1B78032B04D1F5
:104760001723FB1804221A700BE01723FB18FA1CFE
:1047700012781A7005E01723FB18FA1C12781A70C9
:10478000C0463B69002B08D10823FA18786801233A
:104790001121144CA04703003B613B69002B18D149
:1047A0001723FB181B780F221340DAB20823FB18DB
:1047B00010011A780F210A40111C021C0A431A70BA
:1047C0000823FA18786801231121074CA047030039
:1047D0003B613B691800BD4607B090BDD54C010058
:1047E000294D0100C94001000F41010090B585B07D
:1047F00000AF78600A00FB1C1A700823FA1878686A
:1048000001231221124CA0470300FB60FB68002B20
:1048100019D1FB1C1B7801221340DAB20823FB18C4
:1048200001210A4090011A7840218A43111C021C80
:104830000A431A700823FA18786801231221054CDC
:10484000A0470300FB60FB681800BD4605B090BDA3
:10485000C94001000F41010090B585B000AF7860FC
:104860000A00FB1C1A700823FA1878680123152126
:10487000124CA0470300FB60FB68002B19D1FB1C06
:104880001B7801221340DAB20823FB1801210A40E9
:10489000D0001A7808218A43111C021C0A431A709E
:1048A0000823FA18786801231521054CA047030056
:1048B000FB60FB681800BD4605B090BDC940010013
:1048C0000F41010090B585B000AF786039600823D2
:1048D000FA18786801231E21084CA0470300FB60EA
:1048E0000823FB181B78DB07DB0FDBB21A003B68E1
:1048F0001A70FB681800BD4605B090BDC9400100A4
:1049000090B587B000AF786039600C23FA187868EA
:1049100006232821264CA04703007B610C23FB18AB
:104920005B781AB23B681A803B6800229B5E9BB2A0
:104930001B029AB20C23FB181B789BB2D3189BB2B4
:104940001AB23B681A803B6802330C22BA18D2783C
:1049500012B21A803B6802333A6802320021525E7A
:1049600092B2120291B20C22BA18927892B28A18BC
:1049700092B212B21A803B6804330C22BA185279F0
:1049800012B21A803B6804333A6804320021525E46
:1049900092B2120291B20C22BA18127992B28A180B
:1049A00092B212B21A807B691800BD4607B090BD62
:1049B000C940010090B585B000AF78600A00FB1CCB
:1049C0001A700823FA18786801230121114CA047B6
:1049D0000300FB60FB68002B17D1FB1C1B78032234
:1049E0001340DAB20823FB1890011A783F210A40DD
:1049F000111C021C0A431A700823FA187868012354
:104A00000121054CA0470300FB60FB681800BD4670
:104A100005B090BDC94001000F41010090B585B0BF
:104A200000AF786039603A68786801230F21044C40
:104A3000A0470300FB60FB681800BD4605B090BDB1
:104A4000C940010090B585B000AF78600A00FB1C3A
:104A50001A700823FA18786801231221124CA04713
:104A60000300FB60FB68002B19D1FB1C1B780122A3
:104A70001340DAB20823FB1801210A4010001A780B
:104A800001218A43111C021C0A431A700823FA18D8
:104A9000786801231221054CA0470300FB60FB68E6
:104AA0001800BD4605B090BDC94001000F4101008E
:104AB00090B585B000AF786039600823FA1878683F
:104AC00001231221084CA0470300FB600823FB18B8
:104AD0001B78DB07DB0FDBB21A003B681A70FB6840
:104AE0001800BD4605B090BDC940010090B585B025
:104AF00000AF78600A00FB1C1A700823FA18786867
:104B000001231021124CA0470300FB60FB68002B1F
:104B100019D1FB1C1B7801221340DAB20823FB18C1
:104B200001210A4090181A7802218A43111C021CA4
:104B30000A431A700823FA18786801231021054CDB
:104B4000A0470300FB60FB681800BD4605B090BDA0
:104B5000C94001000F41010090B585B000AF7860F9
:104B60000A00FB1C1A700823FA1878680123172121
:104B7000254CA0470300FB60FB68002B3FD1FB1CCA
:104B80001B781B09DBB21A1C01231340DAB208237D
:104B9000FB1801210A4090001A7804218A43111C55
:104BA000021C0A431A70FB1C1B785B09DBB21A1C3F
:104BB00001231340DAB20823FB1801210A40100137
:104BC0001A7810218A43111C021C0A431A70FB1C1C
:104BD0001B7807221340DAB20823FB1850011A7819
:104BE0001F210A40111C021C0A431A700823FA18DC
:104BF000786801231721054CA0470300FB60FB6880
:104C00001800BD4605B090BDC94001000F4101002C
:104C100090B587B000AF78600A00FB1C1A700C23B7
:104C2000FA18786801231821284CA04703007B61FB
:104C30007B69002B1CD1FB1C1B78DB09DBB21A1C27
:104C400001231340DAB20C23FB1801210A4090180B
:104C50001A7802218A43111C021C0A431A700C2381
:104C6000FA18786801231821194CA04703007B61CA
:104C70007B69002B08D11023FA1878680123622180
:104C8000124CA04703007B617B69002B19D1FB1CF0
:104C90001B7803221340DAB21023FB1803210A40C9
:104CA000D0001A7818218A43111C021C0A431A707A
:104CB0001023FA18786801236221054CA0470300ED
:104CC0007B617B691800BD4607B090BDC9400100FB
:104CD0000F41010090B585B000AF786039607B6806
:104CE000022118000E4B98470300FB60FB68002B65
:104CF00007D13A687868022346210A4CA04703008E
:104D0000FB60FB68002B06D17B6800211800044B78
:104D100098470300FB60FB681800BD4605B090BDD6
:104D2000B5490100C940010090B585B000AF786079
:104D300039607B6802211800214B98470300FB6013
:104D4000FB68002B08D10823FA18786801235F213B
:104D50001C4CA0470300FB60FB68002B2BD10823F1
:104D6000FB181B78DB069B0FDBB2012B0CD002DC9F
:104D7000002B05D014E0022B0AD0032B0CD00FE03F
:104D80003B6800221A700FE03B6801221A700BE0AA
:104D90003B6802221A7007E03B6803221A7003E0A6
:104DA0003B6800221A70C0467B6800211800044B43
:104DB00098470300FB60FB681800BD4605B090BD36
:104DC000B5490100C940010080B586B000AFF86068
:104DD00008007A6019000B23FB18021C1A700823C4
:104DE000FB180A1C1A800823FB181B883F2B02D9CA
:104DF00001235B4230E01A4B0B22BA1812781A706A
:104E000001237B610CE07B69013B7A68D318197838
:104E1000134A7B69D3180A1C1A707B6901337B61C2
:104E20000823FB181A887B699A42ECDA0823FB18DE
:104E30001B8801339AB20B4BDA810A4B084A5A603D
:104E4000084B00229A60074B00229A81054BC8212B
:104E50001800054B984703001800BD4606B080BDFA
:104E6000CC43002020000020013E010080B584B02A
:104E700000AFF86008007A6019000B23FB18021CD1
:104E80001A700823FB180A1C1A800D4B0822BA1846
:104E900012889A810A4B7A689A60094B0122DA815A
:104EA000074B0B22BA185A60054BC822052118007F
:104EB000044B984703001800BD4604B080BDC046AF
:104EC00020000020D93E010080B500AF014B180042
:104ED000BD4680BD1400002080B582B000AF002325
:104EE0007B60234B01211800224B984703007B6015
:104EF000FA1C1F4B110018001F4B984702007B68DB
:104F000013437B60FB1C1B78002BF1D1184B8021D5
:104F100018001A4B9847164B01211800184B984758
:104F2000134B00211800174B9847114B0121180013
:104F3000154B98470E4B01211800144B98470C4B0A
:104F400000211800124B9847094B06211800114BFD
:104F50009847074B042118000F4B9847044B012139
:104F600018000E4B98477B681800BD4602B080BD04
:104F700014000020454A0100B14A0100114C010013
:104F8000ED47010059480100F941010029450100A0
:104F90008D410100BD440100594B0100ED4A010063
:104FA00080B584B000AF0200FB1D1A703C4BFA1DA7
:104FB00012781A703A4B3B4A5A60394B0222DA8116
:104FC000374B0822BA189A60354B01229A81344B2C
:104FD000642200211800344B98470300FB60FB68F3
:104FE000002B04D0314B1800314B98470DE00823BB
:104FF000FB181B78552B04D02E4B18002C4B9847D0
:1050000003E02D4B18002A4B9847254B2B4A5A603A
:10501000234B0322DA81224B64211800284B984746
:105020000300FB60FB68002B03D0264B1800204BCD
:1050300098471B4B244A5A60194B0322DA81184BBC
:10504000642118001E4B98470300FB60FB68002B8F
:1050500003D01E4B1800164B9847114B1C4A5A6040
:105060000F4B0422DA810E4B64211800144B984731
:105070000300FB60FB68002B03D0164B18000C4BA1
:105080009847FB1D1B781800134B9847FB1D1B7896
:105090001800124B9847FB681800BD4604B080BD4D
:1050A0000C4400206C5D0300D93E0100845D0300C8
:1050B00085DD0100A45D0300B05D0300705D0300A9
:1050C000013E0100C45D0300745D0300E45D030064
:1050D000785D0300105E0300D1540100D553010038
:1050E00080B584B000AF0200FB1D1A700B23FB18C3
:1050F00000221A70144BFA1D12781A70124B134AC0
:105100005A60114B0222DA810F4B0B22BA189A60B7
:105110000D4B01229A810C4B6422002118000C4B8C
:1051200098470300FB60FB68002B05D0094B180073
:10513000094B9847632302E00B23FB181B781800E8
:10514000BD4604B080BDC0460C440020805D030015
:10515000D93E0100445E030085DD010080B584B0C6
:1051600000AF39601100FB1D021C1A70BB1D0A1C28
:105170001A70BB1D1B78002B01D1002327E00823E8
:10518000FB18154A12881A80144BFA1D12781A70EF
:10519000124B0822BA185A60104B0222DA810F4BC8
:1051A0003A689A60BB1D1B789AB20C4B9A810B4BE4
:1051B0006422002118000A4B98470300FB60FB683B
:1051C000002B03D0074B1800074B9847FB681800CB
:1051D000BD4604B080BDC046685E03000C4400209C
:1051E000D93E0100445E030085DD0100B0B586B004
:1051F00000AF05000C0010001900FB1D2A1C1A70DE
:10520000BB1D221C1A707B1D021C1A703B1D0A1C40
:105210001A701023FB183A1D127801211000084063
:105220001A7801218A43111C021C0A431A707B1D43
:105230001B7801229A401300DBB21A1C0F23134083
:10524000DAB21023FB180F210A4090181A781E2199
:105250008A43111C021C0A431A700C23FB181022EB
:105260001A700C23FB1801225A700C23FB18BA1D6C
:1052700012789A701023FB181A780C23FB18DA7036
:105280000A4B0C22BA185A60084B0422DA81074BE9
:1052900000229A81054B64211800054B98470300B2
:1052A0007B617B691800BD4606B0B0BD0C44002090
:1052B000013E0100B0B586B000AF05000C00100043
:1052C0001900FB1D2A1C1A70BB1D221C1A707B1DA5
:1052D000021C1A703B1D0A1C1A700823FB180E22B0
:1052E0001A700823FB1804225A700823FB180022A6
:1052F0009A700823FB180022DA700823FB183A1D65
:1053000012781A710823FB187A1D12785A71082333
:10531000FB182822BA1812789A71BB1D1B789BB211
:105320001622BA18191C0B1CDB185B1813801623E5
:10533000FB181B881B0A9BB2DAB20823FB189A7071
:105340001623FB181B88DAB20823FB18DA700B4B04
:10535000FA1D12781A70094B0822BA185A60074BC6
:105360000722DA81054B64211800054B984703009A
:105370003B613B691800BD4606B0B0BD0C4400203F
:10538000013E010080B584B000AF0200FB1D1A7021
:105390000823FB180C4A12881A800C4BFA1D12784D
:1053A0001A700A4B0822BA185A60084B0222DA8196
:1053B000064B64211800064B98470300FB60FB680E
:1053C0001800BD4604B080BD6C5E03000C44002094
:1053D000013E010090B585B000AF0200FB1D1A70C0
:1053E000344BFA1D12781A70324B334A5A60314BE3
:1053F0000322DA812F4B00229A812E4B6421180060
:105400002E4B98470300BB60BB68002B03D02C4B8E
:1054100018002C4B98470023FB6043E0FB68002BEF
:1054200000DA03339B10DBB2DB00DAB2FB682649FB
:105430000B4004D5013B042149420B430133DBB24D
:10544000D318D9B2FB1D1878012303221F4CA047A3
:105450000300BB60FB68002B00DA03339B10DBB258
:10546000DB00DAB2FB6818490B4004D5013B04218C
:1054700049420B430133DBB2D318D9B2FB1D187874
:1054800001230222114CA0470200BB681343BB60FA
:10549000BB68002B03D00A4B18000A4B9847FB68E7
:1054A0000133FB60FB680F2BB8DDC046BD4605B07D
:1054B00090BDC0460C4400207C5D0300013E01000D
:1054C000705E030085DD010003000080ED510100E6
:1054D00090B585B002AF0200FB1D1A70FB1D187855
:1054E000FF230093FF23FF220F210F4CA047FB1D3A
:1054F0001B7818000D4B9847C8235B0018000C4B15
:105500009847FB1D187800230093002300220F21E9
:10551000054CA047FB1D1B781800044B9847C0465C
:10552000BD4603B090BDC046B55201008553010091
:1055300031C1010080B582B000AF78600A00BB1CA9
:105540001A800B4BBA1C1288DA81094B7A685A60B0
:10555000074B00229A60064B00229A81044B0A21D5
:105560001800044B984703001800BD4602B080BDE8
:105570003C000020013E010080B582B000AF7860A1
:105580000A00BB1C1A800C4BBA1C1288DA810A4B29
:105590007A685A60084B094A9A60074B06229A813A
:1055A000054B0A22D2211800054B9847030018002A
:1055B000BD4602B080BDC0463C0000201C44002017
:1055C000D93E010080B584B000AF78600023FB6055
:1055D000314B02211800314B98470300FB60FB68F8
:1055E000002B49D12E4B022118002E4B9847030067
:1055F000FB60FB68002B41D12B4B02211800274B8D
:1056000098472A4B1B781B021AB2284B5B781BB2B7
:1056100013431BB29AB27B681A807B680233234A19
:10562000D278120211B2214A127912B20A4312B28E
:1056300092B21A807B681B881A0064235343002BA4
:1056400002DA1B4A944663441B149AB27B681A80A0
:105650007B689A1C7B6802331B881900AF234B437D
:10566000002B02DA12498C4663441B149BB22D3B7B
:105670009BB2138001230AE0C04600E0C0467B686D
:1056800000221A807B68023300221A80002318004F
:10569000BD4604B080BDC046300000203555010035
:1056A0003400002079550100380000201C440020FF
:1056B000FFFF000090B58BB002AF7860D24B1800AE
:1056C000D24B9847D24B00221A70D14B1B78012B3A
:1056D0000BD003DC002B00D11CE217E2022B00D11F
:1056E0006EE1032B00D162E110E2CA4B00221A7076
:1056F0000023FB614BE11923FB1800221A701BE108
:105700001223FC182E20C44B984703002370122349
:10571000FB181B78632B02D1BD4B00221A70122399
:10572000FB181B78002B15D13220BC4B98471B234C
:10573000FB181B22BA1812781A701A23FB181A22A7
:10574000BA1812781A701923FB181922BA1812788D
:105750001A70F1E0B24B012219002E20B14B98478C
:1057600001001B23FB181B22BA1812781A701A2387
:10577000FB181A22BA1812781A701923FB1819226A
:10578000BA1812781A70002900D0D5E0A44B1B7803
:105790009B08DBB2002B00DA0733DB10DBB29B0087
:1057A000DAB29F4B1B789B08DBB207210B40DBB2C0
:1057B000D318DAB29A4B1A701923FB181B78002BF6
:1057C0004DD1974B1B781A00974B9B5C012B12D144
:1057D0001B23FB181B22BA1812781A701A23FB1805
:1057E0001A22BA1812781A701923FB181922BA183B
:1057F00012781A70A0E01923FB181B78884A1178D8
:105800000C22BA18D154864B1B781A00864B012102
:105810009954834B197832230093002300222E20C1
:10582000824CA0472E20824B98471B23FB187C4AB2
:1058300012781A701A23FB18794A12781A701923F1
:10584000FB181A787B49FB69CB181B78013B9A42FD
:105850006BD0734B1B781800774B984765E0704B03
:105860001B781A00704B9B5C002B12D01B23FB187B
:105870001B22BA1812781A701A23FB181A22BA18A7
:1058800012781A701923FB181922BA1812781A7094
:1058900052E01923FB181B78614A11780C22BA18C0
:1058A000D1545F4B1B781A005F4B012199545C4B1C
:1058B000197832230093002300222E205B4CA0474E
:1058C0002E205B4B98471B23FB181B7818005B4B63
:1058D00098471A23FB181B781800584B9847504BD1
:1058E0001B781B22BA1812789A4205D91B23FB1881
:1058F0004B4A12781A7004E01A23FB18484A1278AF
:105900001A701923FB181A784A49FB69CB181B78BF
:10591000013B9A4209D01A23FB181A781B23FB1863
:105920001B7811001800464B98471923FB181A786A
:105930001923FB1801321A703E4AFB69D3181B78F1
:105940001922BA1812789A4200D2D9E600237B6154
:1059500012E0304B1B7819000C23FA187B69D3181E
:105960001A78384B5A542B4B1B780133DAB2294B37
:105970001A707B6901337B612E4AFB69D3181B784F
:105980001A007B699A42E4DCFB690133FB612E4B10
:105990001B781A00FB699A4200DDACE61C4B03221F
:1059A0001A702A4B19000120294B9847B3E0184B75
:1059B00002221A70274B19000120254B9847AAE0B4
:1059C0001323FB1800221A7096E01123FC182F20D5
:1059D000114B9847030023701123FB181B78632B8E
:1059E00002D10B4B00221A701123FB181B78002BDD
:1059F00032D13220094B98471323FB181322BA18CF
:105A000012781A7078E0C046945E030085DD0100CC
:105A10003A4400204C040020E150010031C1010053
:105A2000244400205D5101004C000020B5520100CB
:105A30008553010088430020DD5B0100BD5E01004D
:105A4000195D01002844002085430020A85E030062
:105A500071DE0100C05E0300314B012219002F20CE
:105A6000304B984701001323FB181322BA18127801
:105A70001A70002940D12A4B1B789B08DBB2002BFF
:105A800000DA0733DB10DBB29B00DAB2244B1B7861
:105A90009B08DBB207210B40DBB2D318DAB2204BF4
:105AA0001A701F4B1B781A001F4B9B5C012B06D1F1
:105AB0001323FB181322BA1812781A701CE0184B23
:105AC000197819230093192300222F20174CA0477F
:105AD000174B19000120174B98472F20164B98475A
:105AE0001023FB180E4A12781A701323FB181A7829
:105AF0001323FB1801321A701323FB181B78002B99
:105B000000D162E70D4B00221A7004E00B4B00221B
:105B10001A7000E0C0463220094B9847D5E5C046D0
:105B2000394400205D5101004C000020B5520100B5
:105B3000D45E030071DE0100855301003A44002069
:105B400031C1010090B587B002AF78600A00FB1C3C
:105B50001A70194B19000120184B9847184B1B78E5
:105B60001A007968174B1800174B9847144BFA1C0A
:105B700012781A700023FB6010E0FB68D9B2002392
:105B80000093002300222E20104CA047104AFB68EF
:105B9000D31802221A70FB680133FB60FB680F2BDD
:105BA000EBDD2E200B4B98470B4B01221A70C046A1
:105BB000BD4605B090BDC046E45E030071DE010045
:105BC0008543002088430020A9450300B552010009
:105BD0004C000020855301003A44002090B587B066
:105BE00002AF0200FB1D1A70FB1D1B78032B1CD992
:105BF0000F23FB18FA1D1278043A1A700F23FB18B2
:105C00001B78424AD35C012B0FD00F23FB181B7863
:105C10003E4A0021D1540F23FB1819780223009328
:105C2000322332222E203A4CA047FB1D1B780B2B2F
:105C30001CD80F23FB18FA1D127804321A700F2398
:105C4000FB181B78314AD35C012B0FD00F23FB18B4
:105C50001B782E4A0021D1540F23FB1819780223F8
:105C60000093322332222E20294CA047FB1D1B78A3
:105C700003221340DBB2032B1CD00F23FB18FA1DA9
:105C8000127801321A700F23FB181B781F4AD35C5D
:105C9000012B0FD00F23FB181B781C4A0021D15475
:105CA0000F23FB18197802230093322332222E206F
:105CB000174CA047FB1D1B7803221340DBB2002BBF
:105CC0001CD00F23FB18FA1D1278013A1A700F230B
:105CD000FB181B780D4AD35C012B0FD00F23FB1848
:105CE0001B780A4A0021D1540F23FB18197802238C
:105CF0000093322332222E20054CA0472E20054B44
:105D00009847C046BD4605B090BDC0464C00002037
:105D1000B55201008553010090B587B002AF020073
:105D2000FB1D1A70BB1D0A1C1A70FA1DBB1D1278D0
:105D30001B789A420AD20F23FB18FA1D12781A70A8
:105D40000E23FB18BA1D12781A7009E00F23FB18F6
:105D5000BA1D12781A700E23FB18FA1D12781A70E9
:105D60000F23FA180E23FB1812781B785340DBB26E
:105D700003221340DBB2002B40D10F23FB181B780A
:105D8000042B1AD90F23FB181B78043B484AD35C19
:105D9000022B12D10F23FB181B78043B444A00212D
:105DA000D1540F23FB181B78043BD9B20223009374
:105DB000322332222E203F4CA0470E23FB181B78A3
:105DC0000B2B6DD80E23FB181B780433384AD35C99
:105DD000022B65D10E23FB181B780433344A0021B3
:105DE000D1540E23FB181B780433D9B2022300933D
:105DF000322332222E202F4CA04751E00F23FB18D4
:105E00001B789B08DAB20E23FB181B789B08DBB2C9
:105E10009A4245D10F23FB181B7803221340DBB2B3
:105E2000002B1AD00F23FB181B78013B204AD35CB0
:105E3000022B12D10F23FB181B78013B1C4A0021B7
:105E4000D1540F23FB181B78013BD9B202230093D6
:105E5000322332222E20174CA0470E23FB181B782A
:105E600003221340DBB2032B1AD00E23FB181B783E
:105E700001330F4AD35C022B12D10E23FB181B787F
:105E800001330B4A0021D1540E23FB181B78013338
:105E9000D9B202230093322332222E20054CA04790
:105EA0002E20054B9847C046BD4605B090BDC04664
:105EB0004C000020B55201008553010090B587B019
:105EC00002AF0200FB1D1A700F23FB18FA1D127897
:105ED00004321A700F23FB181B78394AD35C002B4D
:105EE0000FD10F23FB181B78354A0221D1540F2301
:105EF000FB18197800230093002300222E20314C38
:105F0000A0470F23FB18FA1D1278043A1A700F23CA
:105F1000FB181B782A4AD35C002B0FD10F23FB18E8
:105F20001B78274A0221D1540F23FB18197800232C
:105F30000093002300222E20224CA0470F23FB18A1
:105F4000FA1D127801321A700F23FB181B781C4AB5
:105F5000D35C002B0FD10F23FB181B78184A0221AA
:105F6000D1540F23FB18197800230093002300223B
:105F70002E20144CA0470F23FB18FA1D1278013A6B
:105F80001A700F23FB181B780D4AD35C002B0FD11E
:105F90000F23FB181B780A4A0221D1540F23FB1848
:105FA000197800230093002300222E20054CA047DF
:105FB0002E20054B9847C046BD4605B090BDC04653
:105FC0004C000020B55201008553010080B500AFA0
:105FD000BFF34F8F024B034ADA60BFF34F8FFEE7E8
:105FE00000ED00E00400FA0580B584B000AF0200C7
:105FF000FB1D1A700F23FB18FA1D1278D2091A70B4
:106000000E23FB18FA1D127852091A700D4BBB6053
:106010000F23FB181B78002B0FD10F23FB181B78C5
:106020009B0010229446BC446344083B1A680E232C
:10603000FB181B78DB01D31800E000231800BD46D5
:1060400004B080BD0044004180B500AF024B9847CA
:10605000C046BD4680BDC046CD5F010080B582B060
:1060600000AF0200FB1D1A70FB1D1B781800034BCC
:10607000984703001800BD4602B080BDE95F0100EB
:1060800080B584B000AF0200FB1D1A70BB1D0A1C56
:106090001A70FB1D1B7818000D4B98470300FB601E
:1060A000FB1D1B781F22134001229A401300BB6086
:1060B000BB1D1B78002B03D0FB68BA689A6102E015
:1060C000FB68BA685A61C046BD4604B080BDC04690
:1060D0005D60010080B500AF024B00221A70C0461F
:1060E000BD4680BD5904002080B582B000AF0200DB
:1060F000FB1D1A70FB1D1B785BB2DB435BB2064ACB
:10610000127852B213405BB2DAB2034B1A70C04637
:10611000BD4602B080BDC0465904002080B582B0A3
:1061200000AF0200FB1D1A70054B1A78FB1D1B788F
:106130001343DAB2024B1A70C046BD4602B080BDAE
:106140005904002080B582B000AF0200FB1D1A7018
:10615000064B1B78FA1D12781340DBB25A1E93418E
:10616000DBB21800BD4602B080BDC0465904002015
:1061700090B585B000AF786039607B68002B02D0A5
:106180003B68002B01D1002313E00F23FC18396872
:106190000A4B002218000A4B984703002370074B54
:1061A0001800084B98470F23FB181B785A4253419D
:1061B000DBB21800BD4605B090BDC0465C040020AF
:1061C00009D5020009DF020080B59EB000AFF8607B
:1061D000B960FB1D1A707623FB1801221A80742304
:1061E000FB1800221A806E23FB1800221A807223EB
:1061F000FB1800221A802423FB18180041231A00E0
:106200000021924B98471823FB18180009231A0005
:1062100000218E4B98471423FB1800221A6000239C
:10622000BB667123FB1800221A70BB68002B01D1DA
:10623000002306E1BA68FB6811001800844B9847F8
:1062400003001A0001235340DBB2002B01D00123CD
:10625000F7E0BB6818007F4B98470300402B01D93B
:106260000023EEE0BB682E2118007B4B984703000B
:10627000BB66BB6E002B52D0BB6E1800754B9847A7
:1062800002006E23FB181A806E23FB181B88072B55
:1062900037D87123FB1801221A70BA6E1823FB1825
:1062A000110018006D4B9847BB681800694B984760
:1062B00002006E23FB181B88D31A3C2B11D97423C0
:1062C000FB186E22BA1812883C218A1A1A8074238D
:1062D000FB181A88B9682423FB181800604B9847EC
:1062E0002AE0BA6EBB68D21A7423FB181A80742392
:1062F000FB181A88B9682423FB181800584B9847D4
:106300001AE07423FB183C221A807423FB181A88A5
:10631000B9682423FB181800514B98470CE07423EC
:10632000FB183C221A807423FB181A88B9682423AE
:10633000FB1818004A4B98477423FB181B887422DB
:10634000BA18591C11801A002423FB182D219954C6
:106350007623FB1800221A807223FB1801221A8070
:1063600010E07223FA187223FB181B88191C89008D
:10637000CB18DB1813807623FB181A887623FB18BA
:1063800001321A807623FB181B88022BE9D9762369
:10639000FB1801221A804BE07623FB181A8831493A
:1063A0001423FB181800304B98477423FB181B88E4
:1063B0002422BA18D3181422B91803221800284B23
:1063C00098477123FB181B78002B0CD07423FB1803
:1063D0001B8803332422BA18D3181822BA181100C4
:1063E00018001E4B98472423FA18FB681100180068
:1063F000174B984703001A0001235340DBB2002BD0
:106400000FD0FB1D1A78BB68002118000F4B98476E
:106410002423FA18BB6811001800104B9847012379
:106420000FE07623FB181A887623FB1801321A80B6
:106430007623FA187223FB1812881B889A42ABD372
:1064400000231800BD461EB080BDC046DF450300D6
:10645000716101007B490300D54903003149030004
:10646000AB490300105F03009D48030090B583B063
:1064700002AF0120224B984703001A00012353402A
:10648000DBB2002B05D01F4B190001201E4B984793
:1064900032E002201A4B984703001A0001235340B0
:1064A000DBB2002B05D0194B19000120164B984781
:1064B00022E00420124B9847031E05D0144B19000C
:1064C0000120114B984717E008200D4B9847031EF9
:1064D00005D0104B190001200B4B98470CE00E4BD8
:1064E00019000120084B98470C490D4800230093E0
:1064F000002301220B4CA047BD4601B090BDC04611
:1065000045610100185F030071DE0100445F030074
:10651000705F03009C5F0300C85F0300F45F03002B
:10652000944400205D0B0300B0B586B000AF7860E6
:1065300039607B68002B02D03B68002B05D1584B9B
:1065400019000120574B9847A6E00820564B984762
:1065500003001A0001235340DBB2002B55D0002367
:106560007B61524B30221A70504B3A225A70504B7A
:106570007B6102E07B69013B7B617B691B782F2B90
:10658000F8D17B6918004B4B98470300012B24D9A5
:106590007B6901337B617A69474B11001800474BD7
:1065A00098474249464B40221800464B98473F4A7D
:1065B000454B190001203B4B98471323FC183B49DE
:1065C0003F4B0A221800414B9847030023701323C6
:1065D000FB181B78002B12D008E03D4B190001205E
:1065E000304B984720203B4B984755E01323FB182E
:1065F0001A78394B190001202A4B98474CE0374B49
:1066000000221A600820334B98477B68002B43D048
:106610000023FB601323FC180C23FB183A687968ED
:1066200027482F4DA847030023701323FB181B781E
:10663000002B0CD0224B18002A4B98472020254BCA
:106640009847294B19000120164B984724E0234B0B
:106650001A68FB68D218214B1A60204B1A68234B2A
:106660001B68234901200F4CA0471C4B1A681F4B85
:106670001B689A4210D3124B18001A4B98471D4BB7
:1066800019000120074B9847002117201A4B984703
:106690001020104B9847C046BD4606B0B0BDC0465E
:1066A0002060030071DE0100456101005C000020F4
:1066B0001E6003007B4903005E0000203149030097
:1066C0005C040020C96101008460030009D5020058
:1066D000446003001D610100AC60030084040020DD
:1066E00039DA020009DF0200E060030080040020C4
:1066F0001C610300506103008160010090B585B00A
:1067000000AFF860B9607A60BB68042B00D977E00D
:10671000BB689A003C4BD3181B689F463B4B190043
:1067200001203B4B98476BE03A4B19000120384B56
:1067300098470420384B984762E07B681B881A0012
:106740007B685B6835490120314CA0477B681B881A
:10675000C82B0DD17B685A68314B1A60314B00222F
:106760001A607B685A6880239B009A4243D803E0F2
:106770002020294B984743E07B689A687B685B68D8
:1067800019001000284B98471020234B984732E0FF
:106790007B685A687B681B6819001000224B984779
:1067A0007B681B7A002B28D010201B4B984724E0D5
:1067B0007B681A681D4B19000120154B98477B68B0
:1067C0001B680B331BD10820194B9847031E06D0BA
:1067D000184B1800184B98470820184B984704206E
:1067E000134B9847031E02D00420144B9847144BB8
:1067F0009847C04603E0C04602E0C04600E0C046FD
:10680000BD4605B090BDC04690670300846103009B
:1068100071DE0100BC6103001D610100E86103003D
:106820008004002084040020296501002462030004
:10683000456101005C04002009DF0200E9600100FD
:106840006D64010080B582B000AF3A60FB1D021C90
:106850001A70BB1D0A1C1A703A68BB1D1978FB1D03
:106860001B785BB21800034B9847C046BD4602B088
:1068700080BDC0466D080300B0B586B004AF786037
:1068800039603B68FF2213401C003B681B0A1A005A
:10689000FF2313403A68120C1100FF220A403968A6
:1068A000090E0D00786809490295019200932300B2
:1068B00002000120064CA0473A687B6811001800CE
:1068C000044B9847C046BD4602B0B0BD54620300B9
:1068D00071DE0100D109030090B587B002AF02005C
:1068E0003960FB1D1A70FB1D1B782C2B02D0322B3C
:1068F0003DD06FE03B68FB60FB681B78012B07D144
:10690000364B19000120364B9847364B98475EE0CE
:10691000FB681B78002B5AD1334B19000120304BF8
:1069200098470220314B98470820314B9847031E67
:1069300006D0304B1800304B984708202B4B984717
:1069400004202B4B9847031E02D00420274B984766
:106950002A4B012118002A4B98472A4A2A48FF232C
:106960000093130002220821284CA0472FE03B6827
:10697000BB60BB681B781800BB6801331B781C0028
:10698000BB6802331B781A00BB6803331B782049AD
:1069900001930092230002000120114CA047022025
:1069A0001C4B98471C4B1B78012B02D11B4B984763
:1069B0000FE01B4A114B110018001A4B9847031E99
:1069C00007D0194B19000120054B984701E0C0463C
:1069D00000E0C046C046BD4605B090BD84620300DD
:1069E00071DE010095200200A4620300E96001004D
:1069F000456101005C04002009DF020088040020DA
:106A000019F50200C8620300D4620300C11B020032
:106A1000DC6203001D610100580400206D64010068
:106A2000FC5E0300E5F302000463030080B582B05E
:106A300000AF3B1D1800084B98473A1D074B11004B
:106A40001800074B9847054B1800064B9847C0465F
:106A5000BD4602B080BDC046012003003C4400207A
:106A6000252003001121030080B588B000AF3B0052
:106A70001800164B98473B00802292001A613B0099
:106A8000134A5A603B00BC22FF321A803B000122AD
:106A90009A703A000F4B110018000F4B98470300F3
:106AA000FB61FB69002B06DAFA690C4B1900012027
:106AB0000B4B9847FEE70B4A064B110018000A4B98
:106AC0009847C046BD4608B080BDC0469506030045
:106AD0003C44002094440020E10603003464030099
:106AE00071DE0100FD660100CD07030080B582B0B4
:106AF00000AF3A60FB1D021C1A70BB1D0A1C1A7005
:106B00003A68BB1D1978FB1D1B785BB21800034B5C
:106B10009847C046BD4602B080BDC0468DF3020016
:106B200080B582B000AF786039603A687B68110048
:106B30001800034B9847C046BD4602B080BDC04612
:106B4000C1F3020090B587B000AF78607B681B6826
:106B50009B681A78364B1B789A4265D1354B1900E1
:106B60000120354B98477B685B685A687B685B6897
:106B70009B6832490120304CA0477B681B68DA686B
:106B80007B681B689B682E4901202B4CA0477B68C3
:106B90001B689B681A78264B1B789A4243D17B6806
:106BA0001B68DB68013B5A081323FB181A70132378
:106BB000FB181B78052B05D9224B190000201E4B12
:106BC000984731E07B681B689B680133BB600023FA
:106BD0007B6115E07C69631C7B61BB680822B91886
:106BE0000A221800184B98470300DAB20C23FB184E
:106BF0001A55BB681B782C2B0AD1BB680133BB60CC
:106C00007B69042B05DCBB681B78002BE2D100E01C
:106C1000C0461323FB181A780C23FB181100180028
:106C20000A4B984700E0C046BD4607B090BDC0463D
:106C30007C6403008064030071DE0100A064030033
:106C4000A8640300B0640300354B030089370100DA
:106C500090B585B000AF78607B681B689B681A7838
:106C6000184B1B789A422AD1174B19000120174B59
:106C700098477B685B685A687B685B689B681449C7
:106C80000120124CA0477B681B68DA687B681B6890
:106C90009B68104901200D4CA0477B681B689B68CE
:106CA0001A78084B1B789A4208D17B681B68DB680E
:106CB000013B5A080F23FB181A7000E0C046BD467E
:106CC00005B090BD7C640300C864030071DE010060
:106CD000A0640300A864030090B58BB006AFF86011
:106CE000B9607A60BB68012B3BD0052B58D0002BD4
:106CF00000D05BE07B681B68002B25DB2D4B190067
:106D000001202D4B98472D492D4AF8680023059303
:106D10000023049300230393002302930023019391
:106D2000274B00930B000121264CA047031E05D0E2
:106D3000254B19000120204B984737E0234B1900C1
:106D400001201D4B984731E0214A224B19000120B8
:106D5000194B98471E4AFB68110018001E4B9847B4
:106D600024E07B681B78002B11D11C4B1C49F86870
:106D700002221C4CA0471C4B1C49F8680222194CEB
:106D8000A0471B4B190001200B4B98470EE07B6876
:106D90001B781A00174B19000120074B984705E094
:106DA000154B19000120044B9847C046C046BD460C
:106DB00005B090BDE464030071DE010000650300CE
:106DC000106503002DF402001C65030044650300F8
:106DD000FC5E030060650300E5F30200456B010003
:106DE00098650300CDF50200516C0100AC6503000D
:106DF000BC650300D06503000466030080B588B05D
:106E000000AF3B1D18001F4B98473B1D1E4A9A6060
:106E10003B1D80229200DA603B1D1C4A1A613B1D1B
:106E2000802292005A613B1D194A1A803B1D194A63
:106E30009A803A1D184B11001800184B9847030010
:106E4000FB61FB69002B06DAFA69154B190001207A
:106E5000144B9847FEE7144A0F4B11001800134BD0
:106E600098470300FB61FB69002B06DAFA69104BB7
:106E7000190001200B4B9847FEE7C046BD4608B0FD
:106E800080BDC04625F30200C0040020C0060020DB
:106E90005B070000701700008804002075F20200F4
:106EA0001866030071DE0100D96C010065F3020071
:106EB0004C66030080B584B000AF3B1D18000B4B3F
:106EC00098473B1D37221A603B1D00225A603B1D2C
:106ED00001221A723B1D0222DA723B1D19000720A3
:106EE000034B9847C046BD4604B080BDB564020060
:106EF000E964020080B500AF064B002207211800AC
:106F0000054B984700210720044B9847C046BD46D3
:106F100080BDC046216F0100B5600200196102000A
:106F200080B500AF024B01221A70C046BD4680BD3D
:106F3000C008002080B500AF154A164B110018009C
:106F4000154B9847031E08D0144B19000120144B11
:106F5000984702E00020134B98470E4B34229B5C6D
:106F6000002BF7D1104B9847104B01221A70104A92
:106F7000104B11001800104B9847104B9847104BBE
:106F80009847104B03221A70C046BD4680BDC046CC
:106F9000FC5E03008804002019F50200046303006E
:106FA00071DE0100A51B020061510200580400209F
:106FB0007968010045680100A951020011510200E1
:106FC0006D6401004D04002080B500AF09E0002091
:106FD000164B9847164B1800164B98470520164B32
:106FE00098471020154B984703001A00012353407F
:106FF000DBB2002B09D02020104B984703001A0069
:1070000001235340DBB2002BE1D10D4B9847FA230B
:107010009B001800084B98470A4B00221A700A4B35
:1070200000221A70C046BD4680BDC046A51B0200A6
:107030003C4400204122030031C1010045610100B0
:1070400061510200580400204D04002080B500AFBB
:10705000184B9847184B9847184A194B11001800BD
:10706000184B9847184B9847184B34229B5C0122C9
:107070005340DBB2002B0CD0154A144B1100180002
:10708000144B9847031E04D0134B19000120134BD7
:1070900098470E4B34229B5C002B04D0104B1900F8
:1070A00001200E4B98470F4B01221A70C046BD4677
:1070B00080BDC04661510200FD6D0100216B0100E1
:1070C000ED6A0100A951020011510200880400205C
:1070D000FC5E0300E5F302000463030071DE0100BF
:1070E000806603004D04002080B500AF0020094BEE
:1070F0009847094B1800094B9847094B34229B5C71
:10710000002B04D0064B64211800064B9847C0465C
:10711000BD4680BDA51B02003C4400204122030067
:107120008804002015F6020090B58DB002AF78609B
:1071300064206C4B98476C4B984700220421052033
:107140006A4B984702006A4B1A6000221421022001
:10715000664B98470200674B1A60654B1B68002B13
:1071600003D1654B1800654B9847654B1800634B7E
:107170009847644B9847644B9847644B9847644BD7
:107180009847644B98470C23FB18182200211800DD
:10719000614B9847614B98470C23FB18604A1A6073
:1071A0002723FC180C23FB1818005E4B984703009C
:1071B00023702723FB181B785BB2002B09D02723F1
:1071C000FB1800229A56584B19000120574B98473C
:1071D000FEE7574A574B19000120544B9847564B2E
:1071E0009847564A564B11001800564B9847564A36
:1071F0004F48FF230093130002220821534CA0475D
:1072000006E00020524B9847524B1800524B9847CB
:107210000220524B984703001A0001235340DBB26F
:10722000002BEED1FA239B0018002E4B98474C4BB5
:1072300001221A704A4B1B785BB2012B0BD002DC87
:10724000002B05D019E0022B08D0032B09D014E045
:10725000444B984715E0444B984712E0434B9847FE
:107260000FE0434B9847434B9847FA23DB00180045
:107270001C4B9847404B984703E0394B00221A704B
:10728000C0460B23FB1800221A70194B1B680B22F7
:10729000B91800221800394B98470300012B05D17B
:1072A0000B23FB181B785AB22D4B1A70344B1B78EA
:1072B000DBB2002B11D0334A334934480023019309
:1072C000012300930123324CA047324B19000120C7
:1072D000164B98472A4B00221A706420014B98479E
:1072E000A8E7C04631C10100D560010025A4010016
:1072F00050040020540400209C66030085DD01003A
:10730000C46603002D6A0100696A0100FD6D010079
:10731000B56E0100F56E0100DF450300D9FE0100E6
:10732000D9680100B1190200E066030071DE0100B6
:10733000D46203000C67030011510200216B0100AD
:10734000ED6A0100A9510200C8620300C11B0200DE
:10735000A51B02003C4400204122030045610100BE
:107360004D0400204D700100E9700100356F0100EF
:10737000C96F0100997301004960010085AF0100E8
:10738000C008002030670300346703008804002031
:1073900061F502004467030090B58FB000AF3B0079
:1073A000164A13CA13C312781A703B0030221A709F
:1073B0003723FC1839001023FB180A221800104B41
:1073C0009847030023701023FB1818000D4B9847B3
:1073D0003723FB181B78002B08D03723FB181A78AB
:1073E000094B19000020094B984703E0084B18008F
:1073F000084B9847C046BD460FB090BD806703005C
:1074000009D5020009DF02005C67030071DE01009C
:107410006C67030085DD010090B583B000AF02000A
:10742000FB1D1A70FB1D1B78032B06D8054B186833
:10743000F91D00230A22044CA047C046BD4603B0F4
:1074400090BDC04650040020CDA6010080B582B09A
:1074500000AF78607B6800221A70C046BD4602B05B
:1074600080BD000080B582B000AF02003960FB1D16
:107470001A70FB1D1B78012B0AD0022B0FD0002B9A
:1074800014D10E4B0D4A91693A680A439A610FE094
:107490000A4B0A4AD1693A680A43DA6108E0074BA5
:1074A000064A116A3A680A431A6201E0172300E0AB
:1074B00000231800BD4602B080BDC0460004004055
:1074C00080B582B000AF78607B6880221A707B68DC
:1074D00000225A707B6801229A707B680022DA7061
:1074E000C046BD4602B080BD80B500AF054B9B785D
:1074F000DBB21A00022313405A1E9341DBB218007C
:10750000BD4680BD0020004180B500AF024B9847CA
:10751000C046BD4680BDC046095E020080B500AFD2
:10752000024B9847C046BD4680BDC0465D5E020026
:1075300080B582B000AF0200FB1D1A70074AFB1D28
:107540001B7819001F230B40012199400B001900E3
:107550008023D150C046BD4602B080BD00E100E0AE
:1075600080B584B000AF78607B681B68FB60FB6807
:10757000DB69072213405A1E9341DBB21800BD4657
:1075800004B080BD80B582B000AF7860C0467B6833
:107590001800044B9847031EF9D1C046BD4602B0FF
:1075A00080BDC0466175010080B584B000AF7860D1
:1075B0007B681B68FB607B681B6818000D4B984755
:1075C000030018000C4B98477B6818000B4B98473A
:1075D000FB6883221A75FB6883221A76FB681B6896
:1075E000022293431A00FB681A60C046BD4604B0ED
:1075F00080BDC046DD720200317501008575010055
:10760000F0B597B000AF786139610023FB630023C8
:107610003B650023FB643B2310229446BC44634437
:1076200000221A707B691B68BB637B691B687B63E4
:1076300023231022BA18D4187B6B1800C04B98472C
:10764000030023700C2310229446BC4463441800AA
:10765000BC4B98473B69DB697B643B691B6A3B64B5
:107660007B6C002B06D17B6B00211800B64B984732
:1076700003007B647B6CDAB20C2310218C46BC4483
:1076800063441A700C2310229446BC4463440222C3
:107690005A707B6C1B0CDBB20C2210218C46BC4454
:1076A000624411001800A94B98473B6C002B06D18F
:1076B0007B6B01211800A44B984703003B643B6C93
:1076C000DAB20C2310218C46BC4463441A700C239C
:1076D00010229446BC44634402225A703B6C1B0C3B
:1076E000DBB20C2210218C46BC446244110018000D
:1076F000964B98473B699A8A7B69DA803B69DA8ABC
:107700007B691A813B691B7E002B03D1904B984704
:10771000031E02D080237B6501E000237B653B696B
:107720001B69002B04D03B691B697A6D13437B6591
:107730003B699B687A6D13437B653B6924229B5CA4
:10774000002B04D07B6D8022D20513437B653B69FF
:107750009B6A002B04D03B699B6A7A6D13437B655F
:107760003B692C229B5C002B05D13B699A688023E6
:107770009B049A4204D17B6D8022120513437B65E2
:107780003B692D229B5C002B04D07B6D8022120470
:1077900013437B653B692E229B5C002B04D07B6DE1
:1077A0008022D20313437B65BB6B1A687B6D1A433F
:1077B000BB6B1A60BB6B802252005A6023231022DD
:1077C0009446BC4463441B781433DBB21800614B0D
:1077D00098470300FB623B691B68FA2292005343FF
:1077E000BB623B695B68FA22920053437B623B6950
:1077F0001B8E3B62584BF86A984705000E00564BAB
:10780000B86A9847B860F960534BF86A9847534C88
:10781000534A544BA04703000C003B607C604E4B26
:10782000386A984702000B004C4C38687968A047CA
:1078300003000C00180021004B4C00224B4BA047CA
:1078400003000C001A002300444CB868F968A047F4
:1078500003000C001A002300454C28003100A0470B
:1078600003000C001D002600BB6A5A003A4B1000B2
:10787000984702000B003C4C28003100A047030051
:107880000C00180021003A4C00223A4BA04703009C
:107890000C001D002600BB6A5A002F4B10009847B1
:1078A00002000B00344C28003100A04703000C00FC
:1078B00019002200314B0800110098470300FB63B8
:1078C0003B699A6880239B049A426AD1224BF86AEA
:1078D0009847254C02000B00A04703000C001D0038
:1078E00026001D4B786A98471C4C0022244BA04769
:1078F00003000C001A0023001F4C28003100A04791
:1079000003000C0018002100194C0022194BA0475D
:1079100003000C0019002200184B080011009847C2
:107920000300FB64FB6C002B2ED0164B796AF86ABF
:10793000984703009A1EFB6CD31A3B6531E0C046A2
:107940000D720200C174010051700200FD9D020021
:10795000E9740100C19B020081440300ED3803007B
:1079600095D626E80B2E113E652C0300000024401E
:10797000ED3D03000000F03F853203001944030091
:1079800000000840052603007B6A5A00FB6AD318F2
:107990005A1E7B6A59001D4B100098470300013B9B
:1079A0003B65FB6BFF2B08DCFB6B002B05DB3B6DAA
:1079B000FF2B02DC3B6D002B06DA3B2310229446A2
:1079C000BC44634440221A703B2310229446BC44BA
:1079D00063441B78402B0ED0FB6BFF221A403B6D9B
:1079E0001B041900FF231B040B401343FA6C1206FF
:1079F0001A43BB6BDA603B2310229446BC446344B9
:107A00001B781800BD4617B0F0BDC0460526030020
:107A100090B58BB000AFF860B9607A60FB68BA6867
:107A20001A60FB681B687B62FB681B6818003B4B95
:107A3000984703003B623B6A0233FB613B6A1433A5
:107A4000BB610122FB699A40130019000220344BEC
:107A500098471423FB181800324B98477B681A7B11
:107A60001423FB181A70BB69DBB21422BA18110078
:107A700018002D4B9847BB69DBB218002B4B984779
:107A80007B681B7B00211800294B98477B6A1B6889
:107A90000222134001D01C233BE07B6A1B680122B9
:107AA000134001D0052334E0FB681B681722BC1883
:107AB00018001A4B9847030023701E4A1723FB181F
:107AC0001B78110018001C4B98471723FB181A78D5
:107AD0001A4B9200F968D150FB6800221A76FB68B5
