:020000021000EC
:10200000207800206DB1020065B2020065B20200C6
:1020100000000000000000000000000000000000C0
:10202000000000000000000000000000C5A6010044
:102030000000000000000000E1A7010029A8010045
:1020400065B2020065B2020065B20200BD72020014
:10205000E967020065B202006124010065B2020076
:10206000A5250100617902007979020091790200C9
:10207000A9790200C1790200D9790200B5B0020045
:10208000C9B00200DDB00200018301001583010028
:10209000298301000000000000000000E922010087
:1020A00065B202002524010065B2020065B202009B
:1020B0000000000010B5064C2378002B07D1054B1B
:1020C000002B02D0044800E000BF0123237010BDA4
:1020D000B002002000000000ACA40300084B10B5C3
:1020E000002B03D00749084800E000BF07480368F9
:1020F000002B00D110BD064B002BFBD09847F9E711
:1021000000000000B4020020ACA40300ACA4030053
:102110000000000080B584B000AF78607B681B6869
:10212000FB60FB685B7EDBB25BB2002B01DA012354
:1021300000E000231800BD4604B080BD80B584B027
:1021400000AF78607B681B68FB60C0467B68180046
:102150000B4B9847031EF9D1FB681B7BDBB20222B5
:102160001343DAB2FB681A73C0467B681800044B4D
:102170009847031EF9D1C046BD4604B080BDC04695
:102180001521010080B584B000AF78600A00FB1C07
:102190001A707B681B68FB60FB68FA1C12789A75E2
:1021A000C046BD4604B080BD80B584B000AF02001B
:1021B000FB1D1A70FB1D1A78474B9200D358FB6029
:1021C000FB681B681B7EDAB2FB681B68DB7DDBB239
:1021D0001340DBB2BB60BB680122134045D0FB68F3
:1021E0001B6801221A76C046FB6818003B4B9847D3
:1021F000031EF9D1FB685B69991CFA685161FA68A2
:102200001268528B92B21A80FB681B8B9BB2013B07
:102210009BB2FA68191C1183002B08D0FB685B7F06
:10222000002B22D0FB6818002D4B98471DE0FB685F
:10223000012118002B4B9847FB681B7FDBB2052B55
:1022400013D1FB6800221A77FB68DB7E1A0001239A
:1022500013400AD0FB689B7E1A000123134004D070
:10226000FB689B68FA6810009847BB68042213401B
:1022700014D0FB681B6804221A76FB68DB7E1A0008
:10228000022313400AD0FB689B7E1A0002231340EE
:1022900004D0FB68DB68FA6810009847BB6802222C
:1022A000134014D0FB681B6802221A76FB68DB7EA1
:1022B0001A00042313400AD0FB689B7E1A000423F3
:1022C000134004D0FB681B69FA6810009847C046A9
:1022D000BD4604B080BDC04620430020152101004A
:1022E0003D2101008521010080B500AF0020024B97
:1022F0009847C046BD4680BDA921010080B582B087
:1023000000AF0200FB1D1A70074AFB1D1B78190065
:102310001F230B40012199400B0019008023D1504D
:10232000C046BD4602B080BD00E100E080B584B08B
:1023300000AF0200FB1D1A70FB1D1A78374B92008C
:10234000D358FB60FB681B68BB60BB689B79DBB242
:102350001A00012313400ED0BB6801229A71FB685A
:102360001433002B07D0FB685B7C002B03D0FB6889
:102370009B6900209847BB689B79DBB21A00022357
:10238000134047D0BB6802229A71FB689B899BB2BD
:10239000002B33D0FB689A68FB68DB899BB2591C21
:1023A00088B2F968C8815B00D3181B889AB2BB68F1
:1023B0009A81FB689B899BB2013B9AB2FB689A8128
:1023C000FB689B899BB2002B18D1FB68202200215F
:1023D0009954BB6802221A71BB6802229A711920B3
:1023E0000F4B9847FB681433002B07D0FB689B7C8E
:1023F000002B03D0FB68DB6900209847FB6814338F
:10240000002B07D0FB681B7C002B03D0FB685B69AB
:1024100000209847C046BD4604B080BD244300203C
:10242000FD22010080B500AF0020024B9847C04656
:10243000BD4680BD2D23010080B500AF024B9847FB
:10244000C046BD4680BDC0464964020080B500AFAD
:10245000024B9847C046BD4680BDC0469D64020001
:1024600080B586B000AF494B9847494B1B8C9BB257
:10247000DAB21723FB180F210A401A701723FB1832
:102480001A78444B9200D3583B61414A3B691B7810
:102490000F210B40D9B23F23D1543D490F23FB18E4
:1024A0004E228A5C1A703B691B783B4A1B01D31889
:1024B00002331B889BB2BB603B691B78374A1B0108
:1024C000D31802331B889BB27B60BA687B68D21A30
:1024D0003B695A610F23FB181B780122134016D069
:1024E0002B4A4E230121D1543B6910225A743B6977
:1024F0001B7C1A000123134042D03B695B68002B10
:102500003ED03B695B683A691000984738E00F237A
:10251000FB181B780222134016D01D4A4E230221BD
:10252000D1543B6900225A743B691B7C1A00022378
:10253000134025D03B699B68002B21D03B699B68E9
:102540003A69100098471BE00F23FB181B78042200
:10255000134015D00E4A4E230421D1543B69062264
:102560005A743B691B7C1A000423134008D03B6952
:10257000DB68002B04D03B69DB683A6910009847A0
:10258000074B9847C046BD4606B080BD39240100C0
:10259000004800412003002030430020D0020020EA
:1025A0004D24010080B582B000AF154B1B697B60E4
:1025B000144B9B693B60124B9A683B681A43104B63
:1025C0009A60104B104A9A6108E07B685A687B68F1
:1025D0001B68180090477B689B687B607B68002BBA
:1025E000F3D1074BDB683B60054B9B683A68D243ED
:1025F0001A40034B9A60C046BD4602B080BDC0463B
:102600000000002000040042FFFF0F0F80B582B0E1
:1026100000AF02003960FB1D1A70FB1D1B78012BF7
:102620000AD0022B0FD0002B14D10E4B0D4A91690A
:102630003A680A439A610FE00A4B0A4AD1693A683C
:102640000A43DA6108E0074B064A116A3A680A430E
:102650001A6201E0172300E000231800BD4602B013
:1026600080BDC0460004004080B500AF02210220BA
:10267000074B9847074B01221A70C046054B1B7841
:10268000DBB21A0001231340F8D1C046BD4680BD1D
:102690000D2601000004004280B584B000AF7860D0
:1026A0007B681B68FB60FB68DB69072213405A1ECE
:1026B0009341DBB21800BD4604B080BD80B582B046
:1026C00000AF7860C0467B681800044B9847031E33
:1026D000F9D1C046BD4602B080BDC0469926010072
:1026E00080B584B000AF78607B681B68FB60FB68D6
:1026F0001B681B01DB0FDBB21A000B23FB18511EFA
:102700008A411A700823FB187A68528B1A807B68FA
:102710009B8B9AB20823FB180821791809888A1A1A
:102720001A807B689B8B9BB2013B9AB27B689A8331
:102730000B23FB181B78002B10D07B68DB7A002B57
:102740001CD07B689B8B9BB2012B17D1FB685B680D
:102750008022D2021A43FB685A600FE07B68DB7A62
:10276000002B0BD07B689B8B9BB2002B06D1FB68A8
:102770005B688022D2021A43FB685A607B689B8B9D
:102780009BB2002B0ED17B689B7A002B0AD07B6812
:1027900018000E4B9847FB685B68C02292021A43F0
:1027A000FB685A607B681800084B98477B681A6A78
:1027B0000823FB181B88D318FA682821525CD2B270
:1027C0001A70C046BD4604B080BDC046BD2601009B
:1027D00080B584B000AF78607B681B68FB60FB68E5
:1027E0005B8B9BB21A000423134004D07B68252224
:1027F0001E21995424E00A23FB187A68528B1A8010
:102800007B689B8B9AB20A23FB180A2179180988E6
:102810008A1A1A807B689B8B9BB2013B9AB27B68B9
:102820009A837B681800084B98477B681A6A0A23CA
:10283000FB181B88D3181B78D9B2FB68282299543F
:10284000BD4604B080BDC046BD26010080B584B041
:1028500000AF78607B681B68FB60FB681B7EDBB2A7
:102860001A00012313402BD0FB6801221A76FB6863
:102870005B8B9BB21A000223134004D07B68252295
:10288000412199541CE0FB685B8B9BB21A00042326
:10289000134015D07B682522182199547B680022AB
:1028A0009A837B689B7A002B0AD07B681800134BB5
:1028B0009847FB685B68C02292021A43FB685A6023
:1028C0007B689B8B9AB27B685A837B6825229B5CD2
:1028D000DBB2052B0ED17B6824229B5CDBB2002B84
:1028E00004D17B681800064B984703E07B6818000A
:1028F000044B9847C046BD4604B080BDBD260100CC
:10290000D1270100E126010080B584B000AFF86056
:10291000B960FB1D1A70FB1D1B78FA6802339B001F
:10292000D3180433BA681A60FB681B7EDBB25AB254
:10293000FB1D1B78012199400B005BB213435BB276
:10294000DAB2FB681A76C046BD4604B080BD00000E
:1029500090B587B000AF786039607B681B683B61D9
:102960003B685A687B681A623B685A887B689A831E
:102970007B682422012199547B68252205219954E2
:102980003B691B681B01DB0FDBB21A000F23FB182E
:10299000511E8A411A703B685B7A002B06D03B6857
:1029A0009A7A7B68110018003B4B98470F23FB185D
:1029B0001B78002B0BD03B685B88012B07D13B6950
:1029C0005B688022D2021A433B695A6005E03B698A
:1029D0005B68324A1A403B695A603B681B7A002B9D
:1029E00045D03B681B885A003B685B7A9B031343C6
:1029F0001A0080231B021A433B695A621723FC18F2
:102A00007B681800264B9847030023703B695B687E
:102A1000224A1A403B695A601723FB181B78002B87
:102A200007D11723FC187B6818001E4B984703003A
:102A300023701723FB181B78002B14D13B6903224A
:102A40009A753B681B881B0A9BB2782213439BB282
:102A50005A003B685B7A9B031343012213431A001D
:102A60003B695A6212E01723FB181B780FE03B69A1
:102A700003229A753B681B885B0001221A433B685E
:102A80005B7A9B0313431A003B695A6200231800C8
:102A9000BD4607B090BDC046AD820100FFFFFBFF01
:102AA0004F820100F181010080B582B000AF7860F3
:102AB00039607B689B8B9BB2002B01D005230CE017
:102AC0007B6801229A727B680122DA723A687B681D
:102AD00011001800034B984703001800BD4602B0D0
:102AE00080BDC0465129010080B584B000AF786038
:102AF00039607B681B68FB603B685B7A002B06D003
:102B00003B689A7A7B68110018001E4B9847FB6857
:102B10005B681D4A1A40FB685A603B685A687B68CC
:102B20001A623B685A887B689A837B68242200215A
:102B300099547B68252205219954FB6803229A75D4
:102B40003B681B7A002B0DD03B681B885A003B6802
:102B50005B7A9B0313431A0080231B021A43FB6812
:102B60005A6209E03B681B885A003B685B7A9B030A
:102B700013431A00FB685A6200231800BD4604B0D4
:102B800080BDC046AD820100FFFFFBFF80B582B073
:102B900000AF786039607B689B8B9BB2002B01D0C3
:102BA00005230CE07B6801229A727B680122DA72AD
:102BB0003A687B6811001800034B9847030018001F
:102BC000BD4602B080BDC046E92A010080B586B08E
:102BD00000AF0200FB1D1A70FB1D1A78934B920088
:102BE000D3587B617B691B683B613B691B681B0198
:102BF000DB0FDBB21A000F23FB18511E8A411A703B
:102C00000E23FB187A69527E1A707B691B7EDAB23A
:102C10000E23FB180E21791809780A401A707B6977
:102C20005B8B9BB2002B09D17B699B8B9BB2002BEA
:102C300004D07B6918007E4B984770E07B695B8B02
:102C40009BB2002B39D07B699B8B9BB2002B34D17C
:102C50007B6925229B5CDBB2052B2ED17B6924226C
:102C60009B5CDBB2002B28D13B6903221A757B6980
:102C700000225A837B692522002199547B699B7A23
:102C8000002B0BD07B6918006A4B98473B695B6847
:102C9000C02292021A433B695A6002E03B6901225A
:102CA0001A760E23FB181B780122134037D07B695C
:102CB000DB687A691000984731E07B695B8B9BB2D7
:102CC000002B2CD07B699B8B9BB2002B27D03B69C0
:102CD0005B8B9BB21A002023134011D10F23FB18EA
:102CE0001B7801225340DBB2002B04D17B699B8B04
:102CF0009BB2012B04D07B692522412199540EE01F
:102D00007B6924229B5CDBB2002B04D17B69180019
:102D1000494B984703E07B691800484B98477B690B
:102D20005B8B9BB2002B47D07B699B8B9BB2002BAC
:102D300042D17B6925229B5CDBB2052B3CD17B69B0
:102D400024229B5CDBB2012B36D13B691B7EDBB2BC
:102D50001A000223134002D03B6902221A763B6913
:102D600003221A757B6900225A837B692522002180
:102D700099540E23FB181B78022213400BD07B6959
:102D800024229B5CDBB2012B05D17B691B697A692C
:102D90001000984710E00E23FB181B780122134007
:102DA0000AD07B6924229B5CDBB2002B04D17B69B7
:102DB000DB687A69100098477B6925229B5CDBB24F
:102DC000052B2ED07B6925229B5CDBB2002B28D003
:102DD0003B6903221A757B6900225A837B690022B2
:102DE0009A837B6925229B5CDBB2412B0ED07B69E9
:102DF0009B7A002B0AD07B6918000E4B98473B69E1
:102E00005B68E022D2021A433B695A600E23FB182A
:102E10001B780422134004D07B695B697A69100037
:102E20009847C046BD4606B080BDC04694570020B6
:102E30004D280100BD260100D1270100E126010037
:102E400080B500AFBFF34F8F024B034ADA60BFF388
:102E50004F8FFEE700ED00E00400FA0580B500AFFB
:102E6000024B9847C046BD4680BDC046412E01007A
:102E700080B586B000AF78609A4B18009A4B98479F
:102E80009A4B1800984B9847994B1800964B9847C7
:102E9000984B1800944B9847974B1800924B9847C3
:102EA000964B1800904B9847954B18008E4B9847BF
:102EB0001723FB1800221A70924B1800924B984768
:102EC000032200210120914B98470200904B1A6089
:102ED0008F4B1B68002B07D18E4B190003208E4BA4
:102EE000984700208D4B98470C23FB1818008C4BFB
:102EF00098470C23FB181B780A2B04D00C23FB18D3
:102F00001B780D2B37D1874B18007F4B9847864B8A
:102F100000221A70854B00221A708549854B312298
:102F20001800854B9847834B3122002199548349DF
:102F30007F4B64221800824B984703003B617F4B14
:102F40006322002199547D4B18006F4B98473B69D1
:102F5000002BECD11723FB1800221A70744B32227D
:102F600000211800774B9847744B64220021180009
:102F7000744B9847B5E06C4B1B78002B59D06B4BCA
:102F80001B78032B0CD8694B1B785A1CD1B2674AAB
:102F900011701A000C23FB1819786B4B995405E03B
:102FA000614B00221A70614B00221A705F4B1B7834
:102FB000012B99D9654A644B11001800644B98475E
:102FC000031E2FD063495A4B1B221800624B9847AF
:102FD000574B18004C4B98471723FB1800221A70C8
:102FE000534B322200211800564B98475149504B01
:102FF00031221800504B98474D4B1800574B9847BB
:103000000300302B06D84B4B1800544B9847030055
:10301000DAB200E031221723FB181A70444B180073
:10302000394B9847404B00221A70404B00221A70CF
:103030005AE70C23FB181B780D2B00D154E70C2307
:10304000FB181B78082B04D00C23FB181B787F2B54
:103050001CD10823FB18424A12681A600823FB1887
:103060001800294B98471723FB181B78002B37D0E3
:103070001723FB181A781723FB18013A1A70172325
:10308000FB181B782A4A0021D15429E00C23FB1895
:103090001B781B2B06D1244B01221A70234B0022D4
:1030A0001A7021E71723FB181B78312B0ED8172332
:1030B000FB181B780C22BA1811781D4AD15417231B
:1030C000FB181A781723FB1801321A700C23FB180F
:1030D00000225A700C23FB1818000B4B984703E78B
:1030E000C04601E730630300F5830100206303005D
:1030F00060630300806303004063030050630300C8
:1031000070630300FC5F0300C5E3010065AA0100D2
:103110008043002080610300B1E4010051C8010038
:1031200065310100A0610300440300204503002035
:103130007C0300204803002007500300B003002058
:10314000658401001F4C030014040020A4610300E7
:10315000214F0300A8610300DD4E0300D74F030099
:10316000B061030080B584B000AF78607B68180060
:103170000C4B98470300FB600DE00B4B1A680123D2
:103180005B4219001000094B98477B681800054BFB
:1031900098470300FB60FB680133EED0C046BD4694
:1031A00004B080BD61E40100804300201DBA01002D
:1031B00080B500AF0A4B00221A600A4B1B68084A10
:1031C00011001800084B9847054B1B68002B03D0D3
:1031D000064B802252051A60C046BD4680BDC046DF
:1031E000180400208043002095B3010004ED00E0A6
:1031F000B0B58AB002AFF860B9607A60444B9847C6
:103200000300FB611B23FA18FB6911001800414BF6
:1032100098471B23FB181B78002B5FD03E4B0622E0
:10322000002118003D4B98473B4AFB6911001800EC
:103230003B4B9847384B00229B5E1800394B984710
:10324000021C394B1A60344B02229B5E1800354B2E
:103250009847021C344B5A602F4B04229B5E180087
:10326000304B9847021C304B9A602F4B1A682F4BFB
:10327000101C984705002C4B5A682C4B101C984783
:103280000400294B9A68294B101C98470300284AD0
:10329000B968F868019300942B00264CA047224B94
:1032A0001A68224B101C984703001AB21423FB180B
:1032B0001A801D4B5A681D4B101C984703001AB208
:1032C0001423FB185A80184B9A68184B101C984707
:1032D00003001AB21423FB189A8014E0164AB96846
:1032E000FB681800134B98471423FB180122524225
:1032F0001A801423FB18022252425A801423FB180E
:10330000032252429A8000231800BD4608B0B0BD87
:10331000E14F0100DD4901001C0400201F4C0300A7
:10332000194A01006D42010024040020C531030048
:10333000B4610300794E0300D861030090B587B0F3
:1033400002AFF860B9607A60124B1800124B9847D0
:1033500003001A0001235340DBB2002B07D00F4AB1
:10336000B968FB6818000E4B984700230EE0094B24
:1033700000229B5E1C00074B02229B5E094AB96833
:10338000F86800932300064CA04700231800BD46B0
:1033900005B090BD30040020DD560100006203003E
:1033A000794E03001062030090B587B000AFF8605B
:1033B000B9607A601723FB181B221A701723FB18B9
:1033C0001B78084A08480F21084CA047064AB968EC
:1033D000FB681800054B984700231800BD4607B04E
:1033E00090BDC0463062030034030020794E0300D4
:1033F00080B584B000AFF860B9607A600220034BFA
:10340000984700231800BD4604B080BD91770100A5
:1034100080B584B000AFF860B9607A60034B98471C
:1034200000231800BD4604B080BDC0465D2E0100DB
:1034300090B597B002AFF860B9607A602423FA18AB
:103440007B68012118006A4B98470300BB64202366
:10345000FA187B6802211800654B984703007B64CB
:103460001C23FA187B6803211800614B984703005E
:103470003B641823FA187B68042118005C4B9847BA
:103480000300FB631423FA187B6805211800584BCE
:1034900098470300BB637B6A1A00BB6C9B18002231
:1034A0001A703B6A1A007B6C9B1800221A70FB6929
:1034B0001A003B6C9B1800221A70BB691A00FB6B48
:1034C0009B1800221A707B691A00BB6B9B180022A4
:1034D0001A70BB6C1800474B98470300FB647B6C69
:1034E0001800444B984703007B633B6C1800414B2A
:1034F000984703003B63FB6B18003E4B9847030063
:10350000FB62BB6B18003B4B98470300BB62FB6C34
:10351000012B02D12E23FB6407E0FB6C022B02D1AE
:103520002F23FB6401E000235DE07B6B002B02DBBB
:103530007B6B0F2B07DD304AB968FB6818002F4BF7
:10354000984700234FE03B6B002B02DB3B6BFF2BCC
:1035500007DD2B4AB968FB681800284B9847002301
:1035600041E0FB6A002B02DBFB6AFF2B07DD254AEB
:10357000B968FB681800214B9847002333E0BB6A09
:10358000002B02DBBB6AFF2B07DD1F4AB968FB6813
:1035900018001A4B9847002325E0FB6CD8B27B6BD0
:1035A000D9B23B6BDAB2FB6ADCB2BB6ADBB2009326
:1035B0002300164CA047031E07D0154AB968FB68C4
:1035C00018000E4B984700230DE0FB6CDBB218008F
:1035D000104B9847031E05D00D4AB968FB681800C8
:1035E000064B984700231800BD4615B090BDC04655
:1035F0008D8501006D4B030038620300794E030096
:103600005C6203007C620300A0620300CD530100F2
:10361000C46203009D54010090B58FB000AFF86004
:10362000B9607A601823FB1800221A701823FB185F
:1036300000225A701823FB1800221A701823FB1856
:1036400000225A701C23FB1800221A701C23FB183E
:103650001422BA189A601C23FB180122DA811C2359
:10366000FB181822BA185A601C23FB1801229A81F1
:103670002A4B18002A4B984700237B6342E07B6B60
:10368000284A29480F21294CA047274B1800244BD2
:10369000984700233B632BE07B6BDAB23B6BDBB2DA
:1036A000D318DAB21C23FB181A701C23FB186422EF
:1036B000642118001E4B98470300FB62FB6A002B35
:1036C0000CD11C23FB181B781A4A17480F21174CE2
:1036D000A047154B1800124B984706E0124B164AAC
:1036E0001A60114B18000E4B98473B6B01333B633C
:1036F0003B6B0F2BD0DD114B1800094B98477B6BB0
:1037000010337B637B6B7F2BB9DD0C4B1800044BB4
:10371000984700231800BD460FB090BDDC6203003F
:10372000C5E301001063030034030020794E030059
:10373000154101001863030058202000A061030018
:1037400080B582B000AF78601A4B18001A4B9847CA
:103750001A4B00221A70194B1B78012B08D002DC7F
:10376000002B1CD017E0022B1BD0032B08D012E03B
:10377000134B1B78002B16D0104B02221A7012E04C
:10378000104B1B78002B10D00C4B02221A700D4BE3
:1037900000221A7009E0094B00221A7006E0C046A8
:1037A00004E0C04602E0C04600E0C0462820064BC8
:1037B0009847D0E790630300C5E3010084430020ED
:1037C000340400203504002071C7010090B585B095
:1037D00002AF78600A00FB1C1A70FB1C1A7879682B
:1037E000144B1800144B9847144BFA1C12781A709B
:1037F000134B00221A70134B00221A70124B012235
:103800001A700C4B1B781A000A4B5B781800094B96
:103810009B780E490093030001200D4CA047074BF5
:103820001A78044B110018000A4B9847C046BD4651
:1038300003B090BD88430020E94B0300854300207E
:10384000340400203504002084430020B0630300CA
:10385000B1E40100755C010080B582B000AF0200E8
:10386000FB1D1A70034BFA1D12781A70C046BD4634
:1038700002B080BD3404002080B500AF024B0122AD
:103880001A70C046BD4680BD3504002080B582B0A8
:1038900000AF78607B681B78012B08D11B4B00229E
:1038A0001A701B4B190001201A4B98472BE07B68BC
:1038B0001B78022B08D1154B00221A70164B1900E9
:1038C0000120144B98471EE07B6802331B78012BC4
:1038D0000BD17B68043318787B68053319787B68D3
:1038E00003331B781A000D4B98477B6801331B7814
:1038F000012B08D1054B03221A707B6801331B781A
:103900001800074B9847BD4602B080BD8443002095
:10391000C8630300B1E40100DC630300156101002A
:10392000C161010080B582B000AF0200FB1D1A70BA
:10393000064BFA1D127811001F220A400121914006
:103940000A001A60C046BD4602B080BD00E100E03A
:1039500080B584B000AF78607B681B68FB60FB6853
:10396000DB69072213405A1E9341DBB21800BD46A3
:1039700004B080BD80B582B000AF7860C0467B687F
:103980001800044B9847031EF9D1C046BD4602B04B
:1039900080BDC0465139010080B582B000AF78606B
:1039A0007B6864221A607B681B4A5A607B6800222D
:1039B0009A607B6800221A737B6800221A767B6803
:1039C000802292031A617B6801225242DA827B686C
:1039D000012252429A827B680022DA617B680022CF
:1039E0001A627B682422002199547B6800229A6223
:1039F0007B682C22002199547B682D220021995448
:103A00007B682E22002199547B68D7221A86C046F3
:103A1000BD4602B080BDC046480D000080B584B0F0
:103A200000AF78607B681B68BB600023FB607B682D
:103A30001800144B9847BB681B6802221A43BB68E6
:103A40001A607B681B6818000F4B9847030018002A
:103A50000E4B98470CE0FB680133FB607B68DB880A
:103A60001A00FB689A4203D8BB6810225A8306E00A
:103A7000BB685B8B9BB21A0010231340EBD0BD4692
:103A800004B080BD753901001D790200253901009F
:103A900080B582B000AF78600A00FB1C1A707B68AA
:103AA0005B7EDBB25AB2FB1C1B78012199400B00F4
:103AB0005BB213435BB2DAB27B685A76C046BD464E
:103AC00002B080BD90B591B000AF0023FB633A23F4
:103AD000FB1800221A703B1D1800214B98473B1D14
:103AE000204ADA613B1D204A1A623B1DFA229200ED
:103AF000DA823B23FB1803221A701EE03A23FC18DB
:103B00003A1D1A491A4B18001A4B984703002370A4
:103B10003A23FB181B78002B04D13A23FB181B789F
:103B2000FB630FE0124B1800134B98473B23FB1825
:103B30001A783B23FB18013A1A703B23FB181B78B9
:103B4000002BDBD1FB6B002B04D1094B18000B4B76
:103B5000984700E0C046FB6B1800BD4611B090BD11
:103B60009939010002000800020009000008004223
:103B70009443002055800100898101001D3A010015
:103B800080B584B000AF78600E4B00221A700D4BE8
:103B900001229A600023FB600B4B1B680C22BA18B1
:103BA00011001800094B9847094B00221A70FB6856
:103BB000002B03D0074B802252051A60C046BD4639
:103BC00004B080BD38040020BC43002095B3010040
:103BD0003604002004ED00E080B584B000AF7860CA
:103BE0000E4B00221A700D4B01229A600023FB60DD
:103BF0000B4B1B680C22BA1811001800094B984790
:103C0000094B00221A70FB68002B03D0074B80225F
:103C100052051A60C046BD4604B080BD380400207D
:103C2000BC43002095B301003604002004ED00E001
:103C300080B584B000AF78600E4B00221A700D4B37
:103C400001225A600023FB600B4B1B680C22BA1840
:103C500011001800094B9847094B01221A70FB68A4
:103C6000002B03D0074B802252051A60C046BD4688
:103C700004B080BD38040020BC43002095B301008F
:103C80003604002004ED00E080B500AF1149124B6E
:103C900000221800114B98470F4B00211800104BC1
:103CA000984710490C4B012218000C4B98470A4BBF
:103CB000012118000A4B98470B49074B02221800B4
:103CC000064B9847044B02211800054B9847C04605
:103CD000BD4680BD813B01009443002009290100BD
:103CE000913A0100D93B0100313C010080B582B01E
:103CF00000AF00237B60144B984703007B607B6818
:103D0000002B1AD1114B98470120114B9847020004
:103D1000104B1A600322002101200F4B984702002C
:103D20000E4B1A600B4B1B68002B03D00B4B1B6810
:103D3000002B03D106237B6000E0C0467B6818009F
:103D4000BD4602B080BDC046C53A0100893C0100B5
:103D5000CDAC01009043002065AA0100BC430020C7
:103D600090B585B000AF78600023FB607B68002BC6
:103D700003D07B685B68002B03D108235B42FB60A8
:103D80001FE07B681B789AB2104B1A807B685A68D8
:103D90000E4B5A607B68DA890C4B5A800B23FC1857
:103DA0000A4A0B4B110018000A4B98470300237076
:103DB0000B23FB181B78002B03D006235B42FB6010
:103DC000C046FB681800BD4605B090BDC04300204A
:103DD000944300208D2B010090B585B000AF786032
:103DE0000023FB607B68002B03D07B689B68002B63
:103DF00003D108235B42FB601FE07B681B789AB20B
:103E0000104B1A807B689A680E4B5A607B689A89BF
:103E10000C4B5A800B23FC180A4A0B4B110018005C
:103E20000A4B9847030023700B23FB181B78002BC9
:103E300003D006235B42FB60C046FB681800BD460A
:103E400005B090BDC043002094430020A92A010082
:103E500090B583B000AF00237B60094B1868002346
:103E600000220021074CA0470300012B02D014239D
:103E70005B427B607B681800BD4603B090BDC046C6
:103E8000904300200DAD010080B584B000AF786094
:103E90000023FB60084B1B687A6811001800074B71
:103EA00098470300012B02D01D235B42FB60FB6897
:103EB0001800BD4604B080BD904300201DBA01002B
:103EC00080B584B000AF78600023FB60044B1A68B3
:103ED0007B681A60FB681800BD4604B080BDC04610
:103EE000BC43002080B500AF024B1B781800BD46D4
:103EF00080BDC0463604002080B582B000AF02000D
:103F0000FB1D1A70034BFA1D12781A70C046BD468D
:103F100002B080BD3604002080B584B000AF786068
:103F200039600023FB600023BB6096235B00180010
:103F3000284B98470300FB60FB68002B38D108230F
:103F4000FB181800244B98470300FB60FB68002B0C
:103F500030D17B681800214B98470300FB60FB6859
:103F6000002B2AD1BB683A68110018001C4B9847F7
:103F70000300012B11D11B4B9847031E11D00020C9
:103F8000194B9847FB68002B03D021235B42FB6051
:103F900014E003235B42FB6010E003235B42FB6001
:103FA0000CE0124B98470200FB681343FB6002E0F1
:103FB000C04600E0C046FB6807E0C0460B4B984790
:103FC0000200FB681343FB60FB681800BD4604B0A9
:103FD00080BDC046893E0100C13E0100613D010037
:103FE0001DBA0100E53E0100F93E0100513E01000D
:103FF00080B586B000AFF860B9607A6000237B615D
:1040000000233B6196235B001800394B984703005F
:104010007B617B69002B5CD11023FB181800354BAA
:10402000984703007B617B69002B54D1FB685B6878
:10403000002B24D0FB68DB89002B20D0FB68180004
:104040002D4B984703007B617B69002B46D13B6970
:104050007A6811001800294B98470300012B0AD1F8
:10406000274B9847031E0AD00020264B984703236E
:104070005B427B6135E003235B427B6131E0BB68DF
:104080001800214B9847FB681800204B9847030005
:104090007B617B69002B23D13B697A681100180092
:1040A000164B98470300012B0AD1154B9847031E66
:1040B0000AD00020134B984703235B427B6110E03A
:1040C00003235B427B610CE0114B984703007B614B
:1040D00002E0C04600E0C0467B6905E0C04600E063
:1040E000C0460B4B98477B691800BD4606B080BDA3
:1040F000893E0100C13E0100613D01001DBA010081
:10410000E53E0100F93E010071C70100D93D010003
:10411000513E010080B586B000AFF860B9607A60AA
:1041200000237B6100233B6196235B001800244B36
:10413000984703007B617B69002B33D11023FB1868
:104140001800204B984703007B617B69002B2BD123
:10415000FB6818001C4B984703007B617B69002BB0
:1041600025D13B697A6811001800184B9847030065
:10417000012B13D1164B9847031E06D00020154B78
:10418000984703235B427B6112E0BB681800124B27
:104190009847124B984703007B6106E003235B427C
:1041A0007B6105E0C04600E0C0467B6903E0C04695
:1041B0000A4B98477B691800BD4606B080BDC046D3
:1041C000893E0100C13E0100613D01001DBA0100B0
:1041D000E53E0100F93E010071C70100513E0100BA
:1041E000B0B586B000AFF86008007A6019000B2304
:1041F000FB18021C1A700823FB180A1C1A80FB68A3
:104200005C68FB6898680823FB181D887A680B2394
:10421000FB1819782B00A04703007B617B6918000D
:10422000BD4606B0B0BDB0B586B000AFF8600800BE
:104230007A6019000B23FB18021C1A700823FB1864
:104240000A1C1A80FB681C68FB6898680823FB1826
:104250001D887A680B23FB1819782B00A0470300F0
:104260007B617B691800BD4606B0B0BD80B582B0E9
:1042700000AF0200BB1D1A80BB1D00229A5E064BD8
:1042800010009847021C054B0549101C9847031C59
:10429000181CBD4602B080BD05320300852F030007
:1042A00023DB793D90B585B000AF78600A00FB1C38
:1042B0001A700823FA18786801231021124CA047BD
:1042C0000300FB60FB68002B19D1FB1C1B78032249
:1042D0001340DAB20823FB1803210A4090001A7831
:1042E0000C218A43111C021C0A431A700823FA1875
:1042F000786801231021054CA0470300FB60FB6890
:104300001800BD4605B090BDE14101002742010003
:1043100090B587B000AF78600A00FB1C1A701723B5
:10432000FB18FA1C12781A700C23FA187B6811001B
:104330001800A44B984703003B613B69002B00D059
:1043400013E10C23FB181B78DB07DB0FDAB20C231D
:10435000FB181B789B07DB0FDBB21343DAB20C238D
:10436000FB181B785B07DB0FDBB21343DAB20C23BD
:10437000FB181B781B07DB0FDBB21343DAB20C23ED
:10438000FB181B78DB06DB0FDBB21343DAB20C231E
:10439000FB181B789B06DB0FDBB21343DAB20C234E
:1043A000FB181B785B06DB0FDBB21343DAB20C237E
:1043B000FB181B781B06DB0FDBB21343DAB20C23AE
:1043C000FB185B78DB07DB0FDBB21343DAB20C239D
:1043D000FB185B789B07DB0FDBB21343DAB20C23CD
:1043E000FB185B785B07DB0FDBB21343DAB20C23FD
:1043F000FB185B781B07DB0FDBB21343DAB20C232D
:10440000FB185B78DB06DB0FDBB21343DAB20C235D
:10441000FB185B789B06DB0FDBB21343DAB20C238D
:10442000FB185B785B06DB0FDBB21343DAB20C23BD
:10443000FB185B781B06DB0FDBB21343DBB2012BEF
:1044400000D092E00B23FA187B68110018005E4B35
:10445000984703003B613B69002B00D085E00B23AC
:10446000FB181B78012B17D002DC002B05D076E05F
:10447000022B29D0032B48D071E0FB1C1B78002BAA
:1044800004D11723FB1801221A706EE01723FB18C2
:10449000FA1C12781A7068E0FB1C1B78002B04D100
:1044A0001723FB1802221A705FE0FB1C1B78012BFC
:1044B00004D11723FB1802221A7056E01723FB18A9
:1044C000FA1C12781A7050E0FB1C1B78002B04D1E8
:1044D0001723FB1803221A7047E0FB1C1B78012BE3
:1044E00004D11723FB1803221A703EE0FB1C1B7833
:1044F000022B04D11723FB1803221A7035E017236F
:10450000FB18FA1C12781A702FE0FB1C1B78002B8A
:1045100004D11723FB1804221A7026E0FB1C1B7819
:10452000012B04D11723FB1804221A701DE0FB1C79
:104530001B78022B04D11723FB1804221A7014E0F5
:10454000FB1C1B78032B04D11723FB1804221A70C1
:104550000BE01723FB18FA1C12781A7005E01723DA
:10456000FB18FA1C12781A70C0463B69002B08D160
:104570000823FA18786801231021144CA04703007F
:104580003B613B69002B18D11723FB181B780F22C6
:104590001340DAB20823FB1810011A780F210A40E1
:1045A000111C021C0A431A700823FA1878680123A8
:1045B0001021074CA04703003B613B691800BD4632
:1045C00007B090BDED4D0100414E0100E1410100F9
:1045D0002742010090B585B000AF78600A00FB1C4F
:1045E0001A700823FA18786801231121124CA04789
:1045F0000300FB60FB68002B19D1FB1C1B78072212
:104600001340DAB20823FB1807210A4090181A78E1
:104610000E218A43111C021C0A431A700823FA183F
:10462000786801231121054CA0470300FB60FB685B
:104630001800BD4605B090BDE141010027420100D0
:1046400090B587B000AF78600A00FB1C1A70172382
:10465000FB18FA1C12781A700C23FA187B681100E8
:104660001800A44B984703003B613B69002B00D026
:1046700013E10C23FB181B78DB07DB0FDAB20C23EA
:10468000FB181B789B07DB0FDBB21343DAB20C235A
:10469000FB181B785B07DB0FDBB21343DAB20C238A
:1046A000FB181B781B07DB0FDBB21343DAB20C23BA
:1046B000FB181B78DB06DB0FDBB21343DAB20C23EB
:1046C000FB181B789B06DB0FDBB21343DAB20C231B
:1046D000FB181B785B06DB0FDBB21343DAB20C234B
:1046E000FB181B781B06DB0FDBB21343DAB20C237B
:1046F000FB185B78DB07DB0FDBB21343DAB20C236A
:10470000FB185B789B07DB0FDBB21343DAB20C2399
:10471000FB185B785B07DB0FDBB21343DAB20C23C9
:10472000FB185B781B07DB0FDBB21343DAB20C23F9
:10473000FB185B78DB06DB0FDBB21343DAB20C232A
:10474000FB185B789B06DB0FDBB21343DAB20C235A
:10475000FB185B785B06DB0FDBB21343DAB20C238A
:10476000FB185B781B06DB0FDBB21343DBB2012BBC
:1047700000D092E00B23FA187B68110018005E4B02
:10478000984703003B613B69002B00D085E00B2379
:10479000FB181B78012B17D002DC002B05D076E02C
:1047A000022B29D0032B48D071E0FB1C1B78002B77
:1047B00004D11723FB1801221A706EE01723FB188F
:1047C000FA1C12781A7068E0FB1C1B78002B04D1CD
:1047D0001723FB1802221A705FE0FB1C1B78012BC9
:1047E00004D11723FB1802221A7056E01723FB1876
:1047F000FA1C12781A7050E0FB1C1B78002B04D1B5
:104800001723FB1803221A7047E0FB1C1B78012BAF
:1048100004D11723FB1803221A703EE0FB1C1B78FF
:10482000022B04D11723FB1803221A7035E017233B
:10483000FB18FA1C12781A702FE0FB1C1B78002B57
:1048400004D11723FB1804221A7026E0FB1C1B78E6
:10485000012B04D11723FB1804221A701DE0FB1C46
:104860001B78022B04D11723FB1804221A7014E0C2
:10487000FB1C1B78032B04D11723FB1804221A708E
:104880000BE01723FB18FA1C12781A7005E01723A7
:10489000FB18FA1C12781A70C0463B69002B08D12D
:1048A0000823FA18786801231121144CA04703004B
:1048B0003B613B69002B18D11723FB181B780F2293
:1048C0001340DAB20823FB1810011A780F210A40AE
:1048D000111C021C0A431A700823FA187868012375
:1048E0001121074CA04703003B613B691800BD46FE
:1048F00007B090BDED4D0100414E0100E1410100C6
:104900002742010090B585B000AF78600A00FB1C1B
:104910001A700823FA18786801231221124CA04754
:104920000300FB60FB68002B19D1FB1C1B780122E4
:104930001340DAB20823FB1801210A4090011A78CB
:1049400040218A43111C021C0A431A700823FA18DA
:10495000786801231221054CA0470300FB60FB6827
:104960001800BD4605B090BDE1410100274201009D
:1049700090B585B000AF78600A00FB1C1A70082360
:10498000FA18786801231521124CA0470300FB6038
:10499000FB68002B19D1FB1C1B7801221340DAB2F3
:1049A0000823FB1801210A40D0001A7808218A4305
:1049B000111C021C0A431A700823FA187868012394
:1049C0001521054CA0470300FB60FB681800BD469D
:1049D00005B090BDE14101002742010090B585B0CE
:1049E00000AF786039600823FA18786801231E2127
:1049F000084CA0470300FB600823FB181B78DB076B
:104A0000DB0FDBB21A003B681A70FB681800BD466A
:104A100005B090BDE141010090B587B000AF78606E
:104A200039600C23FA18786806232821264CA04701
:104A300003007B610C23FB185B781AB23B681A8079
:104A40003B6800229B5E9BB21B029AB20C23FB18B0
:104A50001B789BB2D3189BB21AB23B681A803B6892
:104A600002330C22BA18D27812B21A803B68023391
:104A70003A6802320021525E92B2120291B20C22C6
:104A8000BA18927892B28A1892B212B21A803B681F
:104A900004330C22BA18527912B21A803B680433DC
:104AA0003A6804320021525E92B2120291B20C2294
:104AB000BA18127992B28A1892B212B21A807B692D
:104AC0001800BD4607B090BDE141010090B585B02A
:104AD00000AF78600A00FB1C1A700823FA18786887
:104AE00001230121114CA0470300FB60FB68002B50
:104AF00017D1FB1C1B7803221340DAB20823FB18E2
:104B000090011A783F210A40111C021C0A431A70B6
:104B10000823FA18786801230121054CA0470300F7
:104B2000FB60FB681800BD4605B090BDE141010087
:104B30002742010090B585B000AF786039603A68CF
:104B4000786801230F21044CA0470300FB60FB6839
:104B50001800BD4605B090BDE141010090B585B09B
:104B600000AF78600A00FB1C1A700823FA187868F6
:104B700001231221124CA0470300FB60FB68002BAD
:104B800019D1FB1C1B7801221340DAB20823FB1851
:104B900001210A4010001A7801218A43111C021CCD
:104BA0000A431A700823FA18786801231221054C69
:104BB000A0470300FB60FB681800BD4605B090BD30
:104BC000E14101002742010090B585B000AF786057
:104BD00039600823FA18786801231221084CA0478D
:104BE0000300FB600823FB181B78DB07DB0FDBB23D
:104BF0001A003B681A70FB681800BD4605B090BDEE
:104C0000E141010090B585B000AF78600A00FB1C5F
:104C10001A700823FA18786801231021124CA04753
:104C20000300FB60FB68002B19D1FB1C1B780122E1
:104C30001340DAB20823FB1801210A4090181A78B1
:104C400002218A43111C021C0A431A700823FA1815
:104C5000786801231021054CA0470300FB60FB6826
:104C60001800BD4605B090BDE1410100274201009A
:104C700090B585B000AF78600A00FB1C1A7008235D
:104C8000FA18786801231721254CA0470300FB6020
:104C9000FB68002B3FD1FB1C1B781B09DBB21A1CE5
:104CA00001231340DAB20823FB1801210A409000C7
:104CB0001A7804218A43111C021C0A431A70FB1C37
:104CC0001B785B09DBB21A1C01231340DAB20823FC
:104CD000FB1801210A4010011A7810218A43111C87
:104CE000021C0A431A70FB1C1B7807221340DAB21D
:104CF0000823FB1850011A781F210A40111C021CBE
:104D00000A431A700823FA18786801231721054C02
:104D1000A0470300FB60FB681800BD4605B090BDCE
:104D2000E14101002742010090B587B000AF7860F3
:104D30000A00FB1C1A700C23FA187868012318214A
:104D4000284CA04703007B617B69002B1CD1FB1C16
:104D50001B78DB09DBB21A1C01231340DAB20C23E7
:104D6000FB1801210A4090181A7802218A43111C6D
:104D7000021C0A431A700C23FA18786801231821C0
:104D8000194CA04703007B617B69002B08D11023DD
:104D9000FA18786801236221124CA04703007B6156
:104DA0007B69002B19D1FB1C1B7803221340DAB25C
:104DB0001023FB1803210A40D0001A7818218A43D7
:104DC000111C021C0A431A701023FA187868012378
:104DD0006221054CA04703007B617B691800BD463A
:104DE00007B090BDE14101002742010090B585B0B8
:104DF00000AF786039607B68022118000E4B98473D
:104E00000300FB60FB68002B07D13A687868022337
:104E100046210A4CA0470300FB60FB68002B06D12B
:104E20007B6800211800044B98470300FB60FB6877
:104E30001800BD4605B090BDCD4A0100E14101001A
:104E400090B585B000AF786039607B6802211800AA
:104E5000214B98470300FB60FB68002B08D1082317
:104E6000FA18786801235F211C4CA0470300FB60FF
:104E7000FB68002B2BD10823FB181B78DB069B0F4C
:104E8000DBB2012B0CD002DC002B05D014E0022B8E
:104E90000AD0032B0CD00FE03B6800221A700FE001
:104EA0003B6801221A700BE03B6802221A7007E08F
:104EB0003B6803221A7003E03B6800221A70C04668
:104EC0007B6800211800044B98470300FB60FB68D7
:104ED0001800BD4605B090BDCD4A0100E14101007A
:104EE00080B586B000AFF86008007A6019000B2327
:104EF000FB18021C1A700823FB180A1C1A800823CE
:104F0000FB181B883F2B02D901235B4230E01A4B70
:104F10000B22BA1812781A7001237B610CE07B69AE
:104F2000013B7A68D3181978134A7B69D3180A1C95
:104F30001A707B6901337B610823FB181A887B692F
:104F40009A42ECDA0823FB181B8801339AB20B4B08
:104F5000DA810A4B084A5A60084B00229A60074BD4
:104F600000229A81054BC8211800054B9847030081
:104F70001800BD4606B080BDCC43002020000020B4
:104F8000193F010080B584B000AFF86008007A6076
:104F900019000B23FB18021C1A700823FB180A1CAB
:104FA0001A800D4B0822BA1812889A810A4B7A6827
:104FB0009A60094B0122DA81074B0B22BA185A601A
:104FC000054BC82205211800044B98470300180020
:104FD000BD4604B080BDC04620000020F13F010066
:104FE00080B500AF014B1800BD4680BD1400002005
:104FF00080B582B000AF00237B60234B01211800F5
:10500000224B984703007B60FA1C1F4B11001800CD
:105010001F4B984702007B6813437B60FB1C1B7887
:10502000002BF1D1184B802118001A4B9847164BD2
:1050300001211800184B9847134B00211800174BFB
:105040009847114B01211800154B98470E4B012131
:105050001800144B98470C4B00211800124B98472E
:10506000094B06211800114B9847074B04211800E3
:105070000F4B9847044B012118000E4B98477B6853
:105080001800BD4602B080BD140000205D4B010039
:10509000C94B0100294D010005490100714901007A
:1050A0001143010041460100A5420100D545010020
:1050B000714C0100054C010080B584B000AF0200C6
:1050C000FB1D1A703C4BFA1D12781A703A4B3B4A82
:1050D0005A60394B0222DA81374B0822BA189A609B
:1050E000354B01229A81344B642200211800344B45
:1050F00098470300FB60FB68002B04D0314B18007D
:10510000314B98470DE00823FB181B78552B04D032
:105110002E4B18002C4B984703E02D4B18002A4BC0
:105120009847254B2B4A5A60234B0322DA81224BA6
:1051300064211800284B98470300FB60FB68002B94
:1051400003D0264B1800204B98471B4B244A5A602B
:10515000194B0322DA81184B642118001E4B984723
:105160000300FB60FB68002B03D01E4B1800164B9E
:105170009847114B1C4A5A600F4B0422DA810E4BA0
:1051800064211800144B98470300FB60FB68002B58
:1051900003D0164B18000C4B9847FB1D1B781800CA
:1051A000134B9847FB1D1B781800124B9847FB6860
:1051B0001800BD4604B080BD0C440020F06303001D
:1051C000F13F010008640300C5E301002864030007
:1051D00034640300F4630300193F010048640300D2
:1051E000F863030068640300FC6303009464030035
:1051F000E9550100ED54010080B584B000AF020014
:10520000FB1D1A700B23FB1800221A70144BFA1D99
:1052100012781A70124B134A5A60114B0222DA812B
:105220000F4B0B22BA189A600D4B01229A810C4B3E
:105230006422002118000C4B98470300FB60FB68B8
:10524000002B05D0094B1800094B9847632302E057
:105250000B23FB181B781800BD4604B080BDC04668
:105260000C44002004640300F13F0100C864030003
:10527000C5E3010080B584B000AF39601100FB1DAB
:10528000021C1A70BB1D0A1C1A70BB1D1B78002B58
:1052900001D1002327E00823FB18154A12881A8041
:1052A000144BFA1D12781A70124B0822BA185A6061
:1052B000104B0222DA810F4B3A689A60BB1D1B78B3
:1052C0009AB20C4B9A810B4B6422002118000A4BB6
:1052D00098470300FB60FB68002B03D0074B1800C6
:1052E000074B9847FB681800BD4604B080BDC04618
:1052F000EC6403000C440020F13F0100C86403008B
:10530000C5E30100B0B586B000AF05000C00100089
:105310001900FB1D2A1C1A70BB1D221C1A707B1D54
:10532000021C1A703B1D0A1C1A701023FB183A1D30
:1053300012780121100008401A7801218A43111CBB
:10534000021C0A431A707B1D1B7801229A4013002D
:10535000DBB21A1C0F231340DAB21023FB180F2103
:105360000A4090181A781E218A43111C021C0A4315
:105370001A700C23FB1810221A700C23FB18012240
:105380005A700C23FB18BA1D12789A701023FB1860
:105390001A780C23FB18DA700A4B0C22BA185A60E0
:1053A000084B0422DA81074B00229A81054B6421C5
:1053B0001800054B984703007B617B691800BD46C8
:1053C00006B0B0BD0C440020193F0100B0B586B056
:1053D00000AF05000C0010001900FB1D2A1C1A70FC
:1053E000BB1D221C1A707B1D021C1A703B1D0A1C5F
:1053F0001A700823FB180E221A700823FB180422C7
:105400005A700823FB1800229A700823FB18002208
:10541000DA700823FB183A1D12781A710823FB185A
:105420007A1D12785A710823FB182822BA181278AC
:105430009A71BB1D1B789BB21622BA18191C0B1C43
:10544000DB185B1813801623FB181B881B0A9BB202
:10545000DAB20823FB189A701623FB181B88DAB2FD
:105460000823FB18DA700B4BFA1D12781A70094BDF
:105470000822BA185A60074B0722DA81054B6421CB
:105480001800054B984703003B613B691800BD4677
:1054900006B0B0BD0C440020193F010080B584B0B7
:1054A00000AF0200FB1D1A700823FB180C4A12887B
:1054B0001A800C4BFA1D12781A700A4B0822BA187F
:1054C0005A60084B0222DA81064B64211800064B11
:1054D00098470300FB60FB681800BD4604B080BD20
:1054E000F06403000C440020193F010090B585B022
:1054F00000AF0200FB1D1A70344BFA1D12781A70AF
:10550000324B334A5A60314B0322DA812F4B00224F
:105510009A812E4B642118002E4B98470300BB60E4
:10552000BB68002B03D02C4B18002C4B9847002352
:10553000FB6043E0FB68002B00DA03339B10DBB217
:10554000DB00DAB2FB6826490B4004D5013B04219D
:1055500049420B430133DBB2D318D9B2FB1D187893
:10556000012303221F4CA0470300BB60FB68002BF4
:1055700000DA03339B10DBB2DB00DAB2FB681849B8
:105580000B4004D5013B042149420B430133DBB2FC
:10559000D318D9B2FB1D187801230222114CA04761
:1055A0000200BB681343BB60BB68002B03D00A4BEF
:1055B00018000A4B9847FB680133FB60FB680F2B10
:1055C000B8DDC046BD4605B090BDC0460C440020C5
:1055D00000640300193F0100F4640300C5E3010007
:1055E000030000800553010090B585B002AF0200B2
:1055F000FB1D1A70FB1D1878FF230093FF23FF2269
:105600000F210F4CA047FB1D1B7818000D4B98472E
:10561000C8235B0018000C4B9847FB1D187800232B
:105620000093002300220F21054CA047FB1D1B788F
:105630001800044B9847C046BD4603B090BDC04615
:10564000CD5301009D54010071C7010080B582B0A7
:1056500000AF78600A00BB1C1A800B4BBA1C128882
:10566000DA81094B7A685A60074B00229A60064B30
:1056700000229A81044B0A211800044B984703002A
:105680001800BD4602B080BD3C000020193F01005B
:1056900080B582B000AF78600A00BB1C1A800C4B4A
:1056A000BA1C1288DA810A4B7A685A60084B094A98
:1056B0009A60074B06229A81054B0A22D2211800D4
:1056C000054B984703001800BD4602B080BDC04698
:1056D0003C0000201C440020F13F010080B584B054
:1056E00000AF78600023FB60314B02211800314B82
:1056F00098470300FB60FB68002B49D12E4B022129
:1057000018002E4B98470300FB60FB68002B41D12B
:105710002B4B02211800274B98472A4B1B781B0262
:105720001AB2284B5B781BB213431BB29AB27B6848
:105730001A807B680233234AD278120211B2214ABE
:10574000127912B20A4312B292B21A807B681B8895
:105750001A0064235343002B02DA1B4A9446634425
:105760001B149AB27B681A807B689A1C7B68023390
:105770001B881900AF234B43002B02DA12498C46D9
:1057800063441B149BB22D3B9BB2138001230AE0A0
:10579000C04600E0C0467B6800221A807B68023366
:1057A00000221A8000231800BD4604B080BDC04608
:1057B000300000204D5601003400002091560100B9
:1057C000380000201C440020FFFF000090B58BB083
:1057D00002AF7860E34B1800E34B9847E34B00229D
:1057E0001A70E24B1B78012B06D0022B00D16FE11F
:1057F000002B00D12CE227E2DD4B00221A7000239F
:10580000FB614BE11923FB1800221A701BE10F23E7
:10581000FC182E20D74B9847030023700F23FB184A
:105820001B78632B02D1D14B00221A700F23FB1877
:105830001B78002B15D13220CF4B98471B23FB1828
:105840001B22BA1812781A701A23FB181A22BA18D7
:1058500012781A701923FB181922BA1812781A70C4
:10586000F1E0C64B012219002E20C54B98470100DC
:105870001B23FB181B22BA1812781A701A23FB1864
:105880001A22BA1812781A701923FB181922BA189A
:1058900012781A70002900D0D5E0B84B1B789B080D
:1058A000DBB2002B00DA0733DB10DBB29B00DAB28D
:1058B000B24B1B789B08DBB207210B40DBB2D3183D
:1058C000DAB2AE4B1A701923FB181B78002B4DD19E
:1058D000AA4B1B781A00AB4B9B5C012B12D11B23EC
:1058E000FB181B22BA1812781A701A23FB181A22F6
:1058F000BA1812781A701923FB181922BA181278DC
:105900001A70A0E01923FB181B789C4A1178082212
:10591000BA18D154994B1B781A009A4B012199540B
:10592000964B197832230093002300222E20964CA8
:10593000A0472E20954B98471B23FB188F4A1278BF
:105940001A701A23FB188D4A12781A701923FB1843
:105950001A788F49FB69CB181B78013B9A426BD0B0
:10596000864B1B7818008B4B984765E0834B1B7860
:105970001A00844B9B5C002B12D01B23FB181B22AC
:10598000BA1812781A701A23FB181A22BA18127849
:105990001A701923FB181922BA1812781A7052E0DB
:1059A0001923FB181B78754A11780822BA18D154AC
:1059B000724B1B781A00734B012199546F4B197865
:1059C00032230093002300222E206F4CA0472E206C
:1059D0006E4B98471B23FB181B7818006E4B98479B
:1059E0001A23FB181B7818006B4B9847634B1B78E6
:1059F0001B22BA1812789A4205D91B23FB185F4A5A
:105A000012781A7004E01A23FB185C4A12781A7094
:105A10001923FB181A785E49FB69CB181B78013BE8
:105A20009A4209D01A23FB181A781B23FB181B78FB
:105A300011001800594B98471923FB181A7819239D
:105A4000FB1801321A70524AFB69D3181B781922CD
:105A5000BA1812789A4200D2D9E600237B6112E08C
:105A6000434B1B7819000823FA187B69D3181A785E
:105A70004B4B5A543E4B1B780133DAB23C4B1A70F5
:105A80007B6901337B61424AFB69D3181B781A009A
:105A90007B699A42E4DCFB690133FB61414B1B7873
:105AA0001A00FB699A4200DDACE6314B1A783C4B98
:105AB000110018003C4B984701203C4B98472B4B5A
:105AC00000221A703A4B190001203A4B9847C0E067
:105AD0001223FC182F20274B984703002370132311
:105AE000FB1800221A701223FB181B78632B02D1BB
:105AF0001E4B00221A701223FB181B78002B0CD1AE
:105B000032201D4B9847A7E02B4B012219002F2074
:105B10001B4B98473220184B98472F20154B98471E
:105B2000031EF1D181E01123FC182F20114B98475F
:105B3000030023701123FB181B78632B02D10B4B3E
:105B400000221A701123FB181B78002B36D132204B
:105B5000094B98471323FB181322BA1812781A70AE
:105B600063E0C04618650300C5E301003A44002025
:105B70004C040020F951010071C7010024440020A9
:105B8000755201004C000020CD5301009D540100CE
:105B900088430020255D010005600100615E010071
:105BA0002844002085430020C577010059380100B2
:105BB0002C650300B1E4010039440020274B012289
:105BC00019002F20264B984701001323FB1813229E
:105BD000BA1812781A70002927D1204B1B789B081D
:105BE000DBB2002B00DA0733DB10DBB29B00DAB24A
:105BF0001A4B1B789B08DBB207210B40DBB2D31892
:105C0000DAB2164B1A70154B1B7801211800154B90
:105C100098471023FB18114A12781A701323FB18A7
:105C20001A781323FB1801321A701323FB181B7800
:105C3000002B00D177E70C4B98470C4B00221A70D1
:105C400032200B4B984704E0084B00221A7000E00A
:105C5000C0463220064B9847C3E5C0463944002071
:105C600075520100B9780100793801003A440020EA
:105C700071C7010090B587B002AF78600A00FB1CC5
:105C80001A701F4B190001201E4B98471E4B1B78A2
:105C90001A0079681D4B18001D4B98471A4BFA1CC7
:105CA00012781A700023FB6019E0FB68D9B2002358
:105CB0000093002300222E20164CA047FB68D9B287
:105CC00000230093002300222F20124CA047124AE9
:105CD000FB68D31802221A70FB680133FB60FB6873
:105CE0000F2BE2DD2E200D4B98472F200B4B9847B2
:105CF0000B4B01221A70C046BD4605B090BDC04690
:105D000044650300B1E4010085430020884300207E
:105D1000E94B0300CD5301004C0000209D540100CD
:105D20003A44002090B587B002AF0200FB1D1A7004
:105D3000FB1D1B78032B1CD90F23FB18FA1D1278AF
:105D4000043A1A700F23FB181B78424AD35C012BCC
:105D50000FD00F23FB181B783E4A0021D1540F238C
:105D6000FB18197802230093322332222E203A4C5A
:105D7000A047FB1D1B780B2B1CD80F23FB18FA1D0B
:105D8000127804321A700F23FB181B78314AD35C47
:105D9000012B0FD00F23FB181B782E4A0021D15462
:105DA0000F23FB18197802230093322332222E206E
:105DB000294CA047FB1D1B7803221340DBB2032BA9
:105DC0001CD00F23FB18FA1D127801321A700F2312
:105DD000FB181B781F4AD35C012B0FD00F23FB1835
:105DE0001B781C4A0021D1540F23FB181978022379
:105DF0000093322332222E20174CA047FB1D1B7824
:105E000003221340DBB2002B1CD00F23FB18FA1D1A
:105E10001278013A1A700F23FB181B780D4AD35CD5
:105E2000012B0FD00F23FB181B780A4A0021D154F5
:105E30000F23FB18197802230093322332222E20DD
:105E4000054CA0472E20054B9847C046BD4605B0DF
:105E500090BDC0464C000020CD5301009D54010070
:105E600090B587B002AF0200FB1D1A70BB1D0A1C63
:105E70001A70FA1DBB1D12781B789A420AD20F23A2
:105E8000FB18FA1D12781A700E23FB18BA1D12782F
:105E90001A7009E00F23FB18BA1D12781A700E232E
:105EA000FB18FA1D12781A700F23FA180E23FB182C
:105EB00012781B785340DBB203221340DBB2002B75
:105EC00040D10F23FB181B78042B1AD90F23FB1882
:105ED0001B78043B484AD35C022B12D10F23FB18DA
:105EE0001B78043B444A0021D1540F23FB181B7834
:105EF000043BD9B202230093322332222E203F4C9E
:105F0000A0470E23FB181B780B2B6DD80E23FB1814
:105F10001B780433384AD35C022B65D10E23FB185F
:105F20001B780433344A0021D1540E23FB181B780C
:105F30000433D9B202230093322332222E202F4C75
:105F4000A04751E00F23FB181B789B08DAB20E2301
:105F5000FB181B789B08DBB29A4245D10F23FB1834
:105F60001B7803221340DBB2002B1AD00F23FB183F
:105F70001B78013B204AD35C022B12D10F23FB1864
:105F80001B78013B1C4A0021D1540F23FB181B78BE
:105F9000013BD9B202230093322332222E20174C28
:105FA000A0470E23FB181B7803221340DBB2032B00
:105FB0001AD00E23FB181B7801330F4AD35C022B37
:105FC00012D10E23FB181B7801330B4A0021D15448
:105FD0000E23FB181B780133D9B20223009332231E
:105FE00032222E20054CA0472E20054B9847C04654
:105FF000BD4605B090BDC0464C000020CD53010009
:106000009D54010090B587B002AF0200FB1D1A70CD
:106010000F23FB18FA1D127804321A700F23FB1895
:106020001B78394AD35C002B0FD10F23FB181B7848
:10603000354A0221D1540F23FB181978002300930D
:10604000002300222E20314CA0470F23FB18FA1DFD
:106050001278043A1A700F23FB181B782A4AD35C73
:10606000002B0FD10F23FB181B78274A0221D15494
:106070000F23FB18197800230093002300222E2001
:10608000224CA0470F23FB18FA1D127801321A7018
:106090000F23FB181B781C4AD35C002B0FD10F2356
:1060A000FB181B78184A0221D1540F23FB181978CA
:1060B00000230093002300222E20144CA0470F231E
:1060C000FB18FA1D1278013A1A700F23FB181B787F
:1060D0000D4AD35C002B0FD10F23FB181B780A4A03
:1060E0000221D1540F23FB181978002300930023B9
:1060F00000222E20054CA0472E20054B9847C04675
:10610000BD4605B090BDC0464C000020CD530100F7
:106110009D54010090B585B002AF04000800110045
:10612000FB1D221C1A70BB1D021C1A707B1D0A1C51
:106130001A707B1D1B78012B1DD1BB1D1B78002BFA
:106140000CD1FB1D19780A230093322332222E2012
:10615000194CA0472E20194B984729E0FB1D1978B0
:1061600000230093002332222E20134CA0472E2020
:10617000124B98471CE0BB1D1B78002B0CD1FB1D5C
:1061800019780A230093322332222F200A4CA04789
:106190002F200A4B98470BE0FB1D19780023009332
:1061A000002332222F20044CA0472F20034B984776
:1061B000C046BD4603B090BDCD5301009D540100C3
:1061C00080B582B000AF0200FB1D1A70FB1D1B786A
:1061D000012B07D1054B02221A70054B1900012033
:1061E000044B9847C046BD4602B080BD3A440020EB
:1061F0005C650300B1E4010080B500AFBFF34F8FD1
:10620000024B034ADA60BFF34F8FFEE700ED00E078
:106210000400FA0580B584B000AF0200FB1D1A70BF
:106220000F23FB18FA1D1278D2091A700E23FB18DF
:10623000FA1D127852091A700D4BBB600F23FB1820
:106240001B78002B0FD10F23FB181B789B0010220B
:106250009446BC446344083B1A680E23FB181B7821
:10626000DB01D31800E000231800BD4604B080BD58
:106270000044004180B500AF024B9847C046BD4680
:1062800080BDC046F961010080B582B000AF020058
:10629000FB1D1A70FB1D1B781800034B9847030069
:1062A0001800BD4602B080BD1562010080B584B003
:1062B00000AF0200FB1D1A70BB1D0A1C1A70FB1DEB
:1062C0001B7818000D4B98470300FB60FB1D1B78E3
:1062D0001F22134001229A401300BB60BB1D1B7894
:1062E000002B03D0FB68BA689A6102E0FB68BA68C9
:1062F0005A61C046BD4604B080BDC04689620100F7
:1063000080B500AF024B00221A70C046BD4680BD6A
:106310005D04002080B582B000AF0200FB1D1A7042
:10632000FB1D1B785BB2DB435BB2064A127852B2AC
:1063300013405BB2DAB2034B1A70C046BD4602B0DE
:1063400080BDC0465D04002080B582B000AF020071
:10635000FB1D1A70054B1A78FB1D1B781343DAB22C
:10636000024B1A70C046BD4602B080BD5D040020DD
:1063700080B582B000AF0200FB1D1A70064B1B787F
:10638000FA1D12781340DBB25A1E9341DBB218009B
:10639000BD4602B080BDC0465D04002090B585B00A
:1063A00000AF786039607B68002B02D03B68002B1F
:1063B00001D1002313E00F23FC1839680A4B002297
:1063C00018000A4B984703002370074B1800084B2E
:1063D00098470F23FB181B785A425341DBB2180031
:1063E000BD4605B090BDC0466004002049DB0200F8
:1063F00049E5020080B59EB000AFF860B960FB1DB2
:106400001A707623FB1801221A807423FB180022CD
:106410001A806E23FB1800221A807223FB180022B8
:106420001A802423FB18180041231A000021924BE4
:1064300098471823FB18180009231A0000218E4BD7
:1064400098471423FB1800221A600023BB667123AF
:10645000FB1800221A70BB68002B01D1002306E153
:10646000BA68FB6811001800844B984703001A00B3
:1064700001235340DBB2002B01D00123F7E0BB68BE
:1064800018007F4B98470300402B01D90023EEE012
:10649000BB682E2118007B4B98470300BB66BB6E80
:1064A000002B52D0BB6E1800754B984702006E232C
:1064B000FB181A806E23FB181B88072B37D8712313
:1064C000FB1801221A70BA6E1823FB18110018006D
:1064D0006D4B9847BB681800694B984702006E23C4
:1064E000FB181B88D31A3C2B11D97423FB186E227E
:1064F000BA1812883C218A1A1A807423FB181A8849
:10650000B9682423FB181800604B98472AE0BA6E3C
:10651000BB68D21A7423FB181A807423FB181A88DC
:10652000B9682423FB181800584B98471AE07423C5
:10653000FB183C221A807423FB181A88B96824239C
:10654000FB181800514B98470CE07423FB183C22B1
:106550001A807423FB181A88B9682423FB181800C2
:106560004A4B98477423FB181B887422BA18591C8D
:1065700011801A002423FB182D2199547623FB182F
:1065800000221A807223FB1801221A8010E0722365
:10659000FA187223FB181B88191C8900CB18DB180A
:1065A00013807623FB181A887623FB1801321A8091
:1065B0007623FB181B88022BE9D97623FB180122CE
:1065C0001A804BE07623FB181A8831491423FB18F4
:1065D0001800304B98477423FB181B882422BA18E4
:1065E000D3181422B91803221800284B9847712396
:1065F000FB181B78002B0CD07423FB181B8803336B
:106600002422BA18D3181822BA18110018001E4BE9
:1066100098472423FA18FB6811001800174B984775
:1066200003001A0001235340DBB2002B0FD0FB1DE7
:106630001A78BB68002118000F4B98472423FA18DA
:10664000BB6811001800104B984701230FE0762318
:10665000FB181A887623FB1801321A807623FA1861
:106660007223FB1812881B889A42ABD300231800B0
:10667000BD461EB080BDC0461F4C03009D63010097
:10668000D74F0300315003008B4F03000750030026
:1066900084650300DD4E030090B583B002AF012096
:1066A000224B984703001A0001235340DBB2002B12
:1066B00005D01F4B190001201E4B984732E00220E5
:1066C0001A4B984703001A0001235340DBB2002BFA
:1066D00005D0194B19000120164B984722E00420E1
:1066E000124B9847031E05D0144B19000120114B83
:1066F000984717E008200D4B9847031E05D0104B14
:10670000190001200B4B98470CE00E4B190001209B
:10671000084B98470C490D480023009300230122A1
:106720000B4CA047BD4601B090BDC046716301004F
:106730008C650300B1E40100B8650300E465030063
:10674000106603003C660300686603009444002062
:106750009D110300B0B586B000AF786039607B68EA
:10676000002B02D03B68002B05D1584B19000120AB
:10677000574B9847A6E00820564B984703001A004D
:1067800001235340DBB2002B55D000237B61524BD9
:1067900030221A70504B3A225A70504B7B6102E003
:1067A0007B69013B7B617B691B782F2BF8D17B696F
:1067B00018004B4B98470300012B24D97B69013308
:1067C0007B617A69474B11001800474B9847424953
:1067D000464B40221800464B98473F4A454B19000C
:1067E00001203B4B98471323FC183B493F4B0A229F
:1067F0001800414B9847030023701323FB181B78A4
:10680000002B12D008E03D4B19000120304B984777
:1068100020203B4B984755E01323FB181A78394B3F
:10682000190001202A4B98474CE0374B00221A6090
:106830000820334B98477B68002B43D00023FB6034
:106840001323FC180C23FB183A68796827482F4D4E
:10685000A847030023701323FB181B78002B0CD0D0
:10686000224B18002A4B98472020254B9847294B4C
:1068700019000120164B984724E0234B1A68FB6847
:10688000D218214B1A60204B1A68234B1B682349EE
:1068900001200F4CA0471C4B1A681F4B1B689A42E3
:1068A00010D3124B18001A4B98471D4B19000120AA
:1068B000074B9847002117201A4B98471020104B80
:1068C0009847C046BD4606B0B0BDC04694660300BA
:1068D000B1E40100716301005C00002092660300D6
:1068E000D74F03005E0000208B4F030060040020A0
:1068F000F5630100F866030049DB0200B866030097
:1069000049630100206703008804002079E0020049
:1069100049E50200546703008404002090670300E7
:10692000C4670300AD62010090B585B000AFF860A8
:10693000B9607A60BB68042B00D977E0BB689A0025
:106940003C4BD3181B689F463B4B190001203B4B27
:1069500098476BE03A4B19000120384B98470420C8
:10696000384B984762E07B681B881A007B685B683D
:1069700035490120314CA0477B681B88C82B0DD1BD
:106980007B685A68314B1A60314B00221A607B6871
:106990005A6880239B009A4243D803E02020294B69
:1069A000984743E07B689A687B685B681900100031
:1069B000284B98471020234B984732E07B685A6851
:1069C0007B681B6819001000224B98477B681B7A74
:1069D000002B28D010201B4B984724E07B681A68B6
:1069E0001D4B19000120154B98477B681B680B3322
:1069F0001BD10820194B9847031E06D0184B1800CE
:106A0000184B98470820184B98470420134B984779
:106A1000031E02D00420144B9847144B9847C046DD
:106A200003E0C04602E0C04600E0C046BD4605B0F7
:106A300090BDC046606E0300F8670300B1E401003A
:106A400030680300496301005C680300840400208F
:106A500088040020556701009868030071630100F5
:106A60006004002049E502001563010099660100F9
:106A700080B582B000AF3A60FB1D021C1A70BB1DCE
:106A80000A1C1A703A68BB1D1978FB1D1B785BB293
:106A90001800034B9847C046BD4602B080BDC046B3
:106AA000AD0E0300B0B586B004AF786039603B68C6
:106AB000FF2213401C003B681B0A1A00FF231340EF
:106AC0003A68120C1100FF220A403968090E0D00C5
:106AD0007868094902950192009323000200012081
:106AE000064CA0473A687B6811001800044B984791
:106AF000C046BD4602B0B0BDC8680300B1E40100A5
:106B00001110030090B587B002AF02003960FB1D81
:106B10001A70FB1D1B782C2B02D0322B3DD06FE05E
:106B20003B68FB60FB681B78012B07D1364B1900D3
:106B30000120364B9847364B98475EE0FB681B7840
:106B4000002B5AD1334B19000120304B98470220BB
:106B5000314B98470820314B9847031E06D0304BE5
:106B60001800304B984708202B4B984704202B4B9C
:106B70009847031E02D00420274B98472A4B012137
:106B800018002A4B98472A4A2A48FF2300931300EB
:106B900002220621284CA0472FE03B68BB60BB685F
:106BA0001B781800BB6801331B781C00BB680233DC
:106BB0001B781A00BB6803331B78204901930092AD
:106BC000230002000120114CA04702201C4B9847D3
:106BD0001C4B1B78012B02D11B4B98470FE01B4A23
:106BE000114B110018001A4B9847031E07D0194B80
:106BF00019000120054B984701E0C04600E0C0465F
:106C0000C046BD4605B090BDF8680300B1E4010080
:106C1000D5260200186903001563010071630100A5
:106C20006004002049E502008C04002059FB0200AA
:106C30003C69030048690300012202005069030017
:106C4000496301005C04002099660100706503003F
:106C500025FA02007869030080B582B000AF3B1DC1
:106C60001800084B98473A1D074B11001800074BB6
:106C70009847054B1800064B9847C046BD4602B0E2
:106C800080BDC046412603003C4400206526030029
:106C90005127030080B588B000AF3B001800164BA9
:106CA00098473B00802292001A613B00134A5A60C9
:106CB0003B00BC22FF321A803B0001229A703A004E
:106CC0000F4B110018000F4B98470300FB61FB6945
:106CD000002B06DAFA690C4B190001200B4B984780
:106CE000FEE70B4A064B110018000A4B9847C046B6
:106CF000BD4608B080BDC046D50C03003C44002012
:106D000094440020210D0300A86A0300B1E40100AF
:106D1000296901000D0E030080B582B000AF3A6012
:106D2000FB1D021C1A70BB1D0A1C1A703A68BB1DA1
:106D30001978FB1D1B785BB21800034B9847C046BF
:106D4000BD4602B080BDC046CDF9020080B582B01C
:106D500000AF786039603A687B6811001800034B17
:106D60009847C046BD4602B080BDC04601FA020049
:106D700090B587B000AF78607B681B689B681A7815
:106D8000364B1B789A4265D1354B19000120354BA3
:106D900098477B685B685A687B685B689B68324988
:106DA0000120304CA0477B681B68DA687B681B6851
:106DB0009B682E4901202B4CA0477B681B689B6871
:106DC0001A78264B1B789A4243D17B681B68DB6894
:106DD000013B5A081323FB181A701323FB181B7866
:106DE000052B05D9224B190000201E4B984731E096
:106DF0007B681B689B680133BB6000237B6115E0E7
:106E00007C69631C7B61BB680822B9180A221800E0
:106E1000184B98470300DAB20C23FB181A55BB68CD
:106E20001B782C2B0AD1BB680133BB607B69042B18
:106E300005DCBB681B78002BE2D100E0C0461323C1
:106E4000FB181A780C23FB18110018000A4B9847FE
:106E500000E0C046BD4607B090BDC046F06A0300E2
:106E6000F46A0300B1E40100146B03001C6B03001F
:106E7000246B030091510300CD37010090B587B01A
:106E800000AF78607B681B689B681A78264B1B787C
:106E90009A4244D1254B19000120254B98477B6825
:106EA0005B685A687B685B689B6822490120204CBC
:106EB000A0477B681B68DA687B681B689B681E4973
:106EC00001201B4CA0477B681B689B680133BB609B
:106ED00000237B6115E07C69631C7B61BB68082231
:106EE000B9180A221800154B98470300DAB20C2390
:106EF000FB181A55BB681B782C2B0AD1BB680133D1
:106F0000BB607B69052B05DCBB681B78002BE2D1DD
:106F100000E0C0460C23FB181800094B9847C046F8
:106F2000BD4607B090BDC046F06A03003C6B03004D
:106F3000B1E40100146B03001C6B030091510300CA
:106F40008D38010090B58BB006AFF860B9607A60FB
:106F5000BB68012B3BD0052B58D0002B00D05BE049
:106F60007B681B68002B25DB2D4B190001202D4B66
:106F700098472D492D4AF868002305930023049370
:106F8000002303930023029300230193274B0093D4
:106F90000B000121264CA047031E05D0254B1900EC
:106FA0000120204B984737E0234B190001201D4B4F
:106FB000984731E0214A224B19000120194B98478C
:106FC0001E4AFB68110018001E4B984724E07B689E
:106FD0001B78002B11D11C4B1C49F86802221C4C59
:106FE000A0471C4B1C49F8680222194CA0471B4BB8
:106FF000190001200B4B98470EE07B681B781A00A4
:10700000174B19000120074B984705E0154B190055
:107010000120044B9847C046C046BD4605B090BD10
:10702000586B0300B1E40100746B0300846B030030
:107030006DFA0200906B0300B86B030070650300EB
:10704000D46B030025FA0200716D01000C6C030083
:107050000DFC02007D6E0100206C0300306C03000B
:10706000446C0300786C030080B588B000AF3B1D12
:1070700018001F4B98473B1D1E4A9A603B1D8022FB
:107080009200DA603B1D1C4A1A613B1D802292006F
:107090005A613B1D194A1A803B1D194A9A803A1DB4
:1070A000184B11001800184B98470300FB61FB694F
:1070B000002B06DAFA69154B19000120144B98478A
:1070C000FEE7144A0F4B11001800134B98470300BA
:1070D000FB61FB69002B06DAFA69104B19000120ED
:1070E0000B4B9847FEE7C046BD4608B080BDC04682
:1070F00065F90200C4040020C40600205B070000FC
:10710000701700008C040020B5F802008C6C03009E
:10711000B1E40100456F0100A5F90200C06C030055
:1071200080B584B000AF3B1D18000B4B98473B1D4A
:1071300037221A603B1D00225A603B1D01221A7241
:107140003B1D0222DA723B1D19000720034B9847B2
:10715000C046BD4604B080BDF56A0200296B02003E
:1071600080B500AF064B002207211800054B984759
:1071700000210720044B9847C046BD4680BDC0464D
:107180008D710100F56602005967020080B500AFFD
:10719000024B01221A70C046BD4680BDC4080020C3
:1071A00080B500AF154A164B11001800154B9847D3
:1071B000031E08D0144B19000120144B984702E01D
:1071C0000020134B98470E4B34229B5C002BF7D1C9
:1071D000104B9847104B01221A70104A104B1100A7
:1071E0001800104B9847104B9847104B9847104B7E
:1071F00003221A70C046BD4680BDC04670650300BC
:107200008C04002059FB020078690300B1E40100FE
:10721000E5210200A15702005C040020A56A0100DC
:10722000716A0100E9570200515702009966010096
:107230004D04002080B500AF09E00020164B9847B0
:10724000164B1800164B98470520164B98471020F0
:10725000154B984703001A0001235340DBB2002B63
:1072600009D02020104B984703001A0001235340F7
:10727000DBB2002BE1D10D4B9847FA239B0018009D
:10728000084B98470A4B00221A700A4B00221A70CA
:10729000C046BD4680BDC046E52102003C440020FA
:1072A0008128030071C7010071630100A15702002A
:1072B0005C0400204D04002080B500AF184B9847B7
:1072C000184B9847184A194B11001800184B98474B
:1072D000184B9847184B34229B5C01225340DBB279
:1072E000002B0CD0154A144B11001800144B984772
:1072F000031E04D0134B19000120134B98470E4B6B
:1073000034229B5C002B04D0104B190001200E4B43
:1073100098470F4B01221A70C046BD4680BDC0463B
:10732000A1570200697001004D6D0100196D010047
:10733000E9570200515702008C04002070650300D9
:1073400025FA020078690300B1E40100F46C03003F
:107350004D04002080B500AF00200B4B98470B4B2D
:1073600018000B4B98470B4B98470B4B98470B4B10
:1073700034229B5C002B04D0084B64211800084B7E
:107380009847C046BD4680BDE52102003C44002030
:1073900081280300A5730100197401008C040020EA
:1073A00055FC020090B593B002AF134B1B68390037
:1073B00000221800114B98470300012B18D13B0005
:1073C000190001200E4B98470E4B190001200C4B61
:1073D00098473B0018000C4B984704003A000B49B3
:1073E0000B4800230193012300932300094CA0477D
:1073F000C046BD4611B090BD54040020C5B5010083
:10740000B1E40100106D0300D74F0300146D0300B9
:107410008C040020A1FB020090B593B002AF134B87
:107420001B68390000221800114B98470300012BFC
:1074300018D13B00190001200E4B98470E4B190044
:1074400001200C4B98473B0018000C4B9847040058
:107450003A000B490B4800230193012300932300BA
:10746000094CA047C046BD4611B090BD580400204D
:10747000C5B50100B1E40100106D0300D74F030052
:10748000246D03008C040020A1FB020090B58DB098
:1074900002AF78606420704B9847704B9847002289
:1074A000042105206E4B984702006E4B1A600022A3
:1074B000402102206A4B984702006B4B1A60002261
:1074C00040210220664B98470200684B1A60654BCA
:1074D0001B68002B03D1664B1800664B9847664B20
:1074E0001800644B9847654B9847654B9847654B28
:1074F0009847654B9847654B98470C23FB18182213
:1075000000211800624B9847624B98470C23FB18E8
:10751000614A1A602723FC180C23FB1818005F4BE4
:107520009847030023702723FB181B785BB2002BBE
:1075300009D02723FB1800229A56594B1900012025
:10754000584B9847FEE7584A584B19000120554BB5
:107550009847574B9847574A574B11001800574BBD
:107560009847574A5048FF230093130002220621F0
:10757000544CA04706E00020534B9847534B18004B
:10758000534B98470220534B984703001A0001239E
:107590005340DBB2002BEED1FA239B0018002E4B98
:1075A00098474D4B01221A704B4B1B785BB2012B55
:1075B0000BD002DC002B05D019E0022B08D0032BE6
:1075C00009D014E0454B984715E0454B984712E029
:1075D000444B98470FE0444B9847444B9847FA2355
:1075E000DB0018001C4B9847414B984703E03A4B8F
:1075F00000221A70C0460B23FB1800221A70194B88
:107600001B680B22B918002218003A4B9847030058
:10761000012B05D10B23FB181B785AB22E4B1A7085
:10762000354B1B78DBB2002B11D0344A3449354836
:1076300000230193012300930123334CA047334BD4
:1076400019000120174B98472B4B00221A70642019
:10765000014B9847A8E7C04671C7010001630100CC
:1076600065AA0100500400205404002058040020A2
:10767000346D0300C5E301005C6D0300596C01002B
:10768000956C0100697001002171010061710100B8
:107690001F4C030019050200056B0100F11F0200D9
:1076A000786D0300B1E4010048690300A46D030094
:1076B000515702004D6D0100196D0100E95702009C
:1076C0003C69030001220200E52102003C44002045
:1076D00081280300716301004D040020B97201008C
:1076E00055730100A171010035720100117701008D
:1076F00075620100C5B50100C4080020C86D030013
:10770000CC6D03008C040020A1FB0200DC6D0300A3
:1077100090B58FB000AF3B00164A13CA13C312785E
:107720001A703B0030221A703723FC1839001023DE
:10773000FB180A221800104B9847030023701023EF
:10774000FB1818000D4B98473723FB181B78002BAC
:1077500008D03723FB181A78094B19000020094B71
:10776000984703E0084B1800084B9847C046BD46B1
:107770000FB090BD186E030049DB020049E502001E
:10778000F46D0300B1E40100046E0300C5E30100E1
:1077900090B583B000AF0200FB1D1A70FB1D1B7873
:1077A000032B06D8054B1868F91D00230A22044C48
:1077B000A047C046BD4603B090BDC046500400205F
:1077C0000DAD010090B5A5B000AF78600A00FB1CBC
:1077D0001A704C23FB1800221A6004333C2200214B
:1077E0001800294B98470C23FB1800221A60043319
:1077F0003C2200211800244B984724494C23FB18B5
:1078000001221800224B98474C23FB181900012035
:10781000204B9847204B190001201E4B98470C2302
:10782000FA18FB1C19787B6818001C4B98470C232E
:10783000FA184C23FB1811001800194B98474C23D9
:10784000FB181800174B984703001A004C23FB182D
:107850009A18154B1000190002231A00134B984771
:10786000134B18684C23F91800230A22114CA04727
:1078700003008C22BA1813608C23FB181B681800B5
:10788000BD4625B090BDC0461F4C0300286E0300C6
:10789000DD4E0300B1E40100106D0300A979010081
:1078A0005D4F0300D74F03003C6E0300E94B03001C
:1078B000540400200DAD010090B5A5B000AF786074
:1078C0000A00FB1C1A704C23FB1800221A600433B8
:1078D0003C2200211800284B98470C23FB1800225B
:1078E0001A6004333C2200211800234B9847234997
:1078F0004C23FB1801221800214B98474C23FB18FE
:10790000190001201F4B98471F4B190001201D4BE8
:1079100098470C23FA187B68110018001B4B9847F6
:107920000C23FA184C23FB1811001800184B984729
:107930004C23FB181800174B984703001A004C23E0
:10794000FB189A18144B1000190002231A00134B4D
:107950009847134B18684C23F91800230A22114C3E
:10796000A04703008C22BA1813608C23FB181B68F5
:107970001800BD4625B090BD1F4C0300406E0300AB
:10798000DD4E0300B1E40100106D0300597A0100DF
:107990005D4F0300D74F03003C6E0300E94B03002B
:1079A000580400200DAD010080B586B000AFF8602E
:1079B0007A600B23FB180A1C1A7000237B617B6919
:1079C0007A68D2181F4B1000190002231A001E4BB0
:1079D000984701227B699B187B6100233B6112E081
:1079E0007B697A68D0183B69FA68D3181B781A004B
:1079F000164B1900164B984702007B699B187B6158
:107A00003B6901333B610B23FB181B785A1E3B6912
:107A10009A42E5DC7B697A68D0180B23FB181B7847
:107A2000013BFA68D3181B781A000A4B1900084B5F
:107A3000984702007B699B187B61C046BD4606B033
:107A400080BDC046F06A0300E94B0300546E03009A
:107A5000DD4E0300586E030080B584B000AF78603F
:107A600039600023FB60FB683A68D3187A680649DE
:107A70001800064B98470200FB689B18FB60C04645
:107A8000BD4604B080BDC0465C6E0300DD4E030001
:107A900080B582B000AF78607B6800221A70C04663
:107AA000BD4602B080BD000080B582B000AF0200CC
:107AB0003960FB1D1A70FB1D1B78012B0AD0022BAD
:107AC0000FD0002B14D10E4B0D4A91693A680A432E
:107AD0009A610FE00A4B0A4AD1693A680A43DA61AF
